
project_flash.elf:     file format elf32-littlearm

Sections:
Idx Name          Size      VMA       LMA       File off  Algn
  0 .text         0002383c  00080000  00080000  00008000  2**3
                  CONTENTS, ALLOC, LOAD, READONLY, CODE
  1 .relocate     00000b2c  20070000  000a383c  00030000  2**3
                  CONTENTS, ALLOC, LOAD, CODE
  2 .bss          0000c84c  20070b2c  000a4368  00030b2c  2**2
                  ALLOC
  3 .stack        00002000  2007d378  000b0bb4  00030b2c  2**0
                  ALLOC
  4 .ARM.attributes 00000029  00000000  00000000  00030b2c  2**0
                  CONTENTS, READONLY
  5 .comment      00000070  00000000  00000000  00030b55  2**0
                  CONTENTS, READONLY
  6 .debug_info   0000942b  00000000  00000000  00030bc5  2**0
                  CONTENTS, READONLY, DEBUGGING
  7 .debug_abbrev 00001b36  00000000  00000000  00039ff0  2**0
                  CONTENTS, READONLY, DEBUGGING
  8 .debug_aranges 00000a00  00000000  00000000  0003bb26  2**0
                  CONTENTS, READONLY, DEBUGGING
  9 .debug_ranges 000008f0  00000000  00000000  0003c526  2**0
                  CONTENTS, READONLY, DEBUGGING
 10 .debug_macro  0000626d  00000000  00000000  0003ce16  2**0
                  CONTENTS, READONLY, DEBUGGING
 11 .debug_line   0000d2a5  00000000  00000000  00043083  2**0
                  CONTENTS, READONLY, DEBUGGING
 12 .debug_str    00063a23  00000000  00000000  00050328  2**0
                  CONTENTS, READONLY, DEBUGGING
 13 .debug_frame  00002f9c  00000000  00000000  000b3d4c  2**2
                  CONTENTS, READONLY, DEBUGGING

Disassembly of section .text:

00080000 <_sfixed>:
   80000:	2007f378 	.word	0x2007f378
   80004:	00082745 	.word	0x00082745
   80008:	0008273d 	.word	0x0008273d
   8000c:	0008273d 	.word	0x0008273d
   80010:	0008273d 	.word	0x0008273d
   80014:	0008273d 	.word	0x0008273d
   80018:	0008273d 	.word	0x0008273d
	...
   8002c:	0008273d 	.word	0x0008273d
   80030:	0008273d 	.word	0x0008273d
   80034:	00000000 	.word	0x00000000
   80038:	0008273d 	.word	0x0008273d
   8003c:	000823dd 	.word	0x000823dd
   80040:	0008273d 	.word	0x0008273d
   80044:	0008273d 	.word	0x0008273d
   80048:	0008273d 	.word	0x0008273d
   8004c:	0008273d 	.word	0x0008273d
   80050:	0008273d 	.word	0x0008273d
   80054:	0008273d 	.word	0x0008273d
   80058:	0008273d 	.word	0x0008273d
   8005c:	0008273d 	.word	0x0008273d
   80060:	0008273d 	.word	0x0008273d
   80064:	0008273d 	.word	0x0008273d
   80068:	00000000 	.word	0x00000000
   8006c:	0008273d 	.word	0x0008273d
   80070:	0008273d 	.word	0x0008273d
   80074:	0008273d 	.word	0x0008273d
   80078:	0008273d 	.word	0x0008273d
	...
   80084:	0008273d 	.word	0x0008273d
   80088:	0008273d 	.word	0x0008273d
   8008c:	0008273d 	.word	0x0008273d
   80090:	0008273d 	.word	0x0008273d
   80094:	0008273d 	.word	0x0008273d
   80098:	0008273d 	.word	0x0008273d
   8009c:	0008273d 	.word	0x0008273d
   800a0:	0008273d 	.word	0x0008273d
   800a4:	00000000 	.word	0x00000000
   800a8:	0008273d 	.word	0x0008273d
   800ac:	0008273d 	.word	0x0008273d
   800b0:	0008273d 	.word	0x0008273d
   800b4:	0008273d 	.word	0x0008273d
   800b8:	0008273d 	.word	0x0008273d
   800bc:	0008273d 	.word	0x0008273d
   800c0:	0008273d 	.word	0x0008273d
   800c4:	0008273d 	.word	0x0008273d
   800c8:	0008273d 	.word	0x0008273d
   800cc:	0008273d 	.word	0x0008273d
   800d0:	0008273d 	.word	0x0008273d
   800d4:	0008273d 	.word	0x0008273d
   800d8:	0008273d 	.word	0x0008273d
   800dc:	0008273d 	.word	0x0008273d
   800e0:	0008273d 	.word	0x0008273d
   800e4:	0008273d 	.word	0x0008273d
   800e8:	0008273d 	.word	0x0008273d
   800ec:	0008273d 	.word	0x0008273d
   800f0:	0008273d 	.word	0x0008273d

000800f4 <__do_global_dtors_aux>:
   800f4:	b510      	push	{r4, lr}
   800f6:	4c05      	ldr	r4, [pc, #20]	; (8010c <__do_global_dtors_aux+0x18>)
   800f8:	7823      	ldrb	r3, [r4, #0]
   800fa:	b933      	cbnz	r3, 8010a <__do_global_dtors_aux+0x16>
   800fc:	4b04      	ldr	r3, [pc, #16]	; (80110 <__do_global_dtors_aux+0x1c>)
   800fe:	b113      	cbz	r3, 80106 <__do_global_dtors_aux+0x12>
   80100:	4804      	ldr	r0, [pc, #16]	; (80114 <__do_global_dtors_aux+0x20>)
   80102:	f3af 8000 	nop.w
   80106:	2301      	movs	r3, #1
   80108:	7023      	strb	r3, [r4, #0]
   8010a:	bd10      	pop	{r4, pc}
   8010c:	20070b2c 	.word	0x20070b2c
   80110:	00000000 	.word	0x00000000
   80114:	000a383c 	.word	0x000a383c

00080118 <frame_dummy>:
   80118:	4b08      	ldr	r3, [pc, #32]	; (8013c <frame_dummy+0x24>)
   8011a:	b510      	push	{r4, lr}
   8011c:	b11b      	cbz	r3, 80126 <frame_dummy+0xe>
   8011e:	4808      	ldr	r0, [pc, #32]	; (80140 <frame_dummy+0x28>)
   80120:	4908      	ldr	r1, [pc, #32]	; (80144 <frame_dummy+0x2c>)
   80122:	f3af 8000 	nop.w
   80126:	4808      	ldr	r0, [pc, #32]	; (80148 <frame_dummy+0x30>)
   80128:	6803      	ldr	r3, [r0, #0]
   8012a:	b903      	cbnz	r3, 8012e <frame_dummy+0x16>
   8012c:	bd10      	pop	{r4, pc}
   8012e:	4b07      	ldr	r3, [pc, #28]	; (8014c <frame_dummy+0x34>)
   80130:	2b00      	cmp	r3, #0
   80132:	d0fb      	beq.n	8012c <frame_dummy+0x14>
   80134:	e8bd 4010 	ldmia.w	sp!, {r4, lr}
   80138:	4718      	bx	r3
   8013a:	bf00      	nop
   8013c:	00000000 	.word	0x00000000
   80140:	000a383c 	.word	0x000a383c
   80144:	20070b30 	.word	0x20070b30
   80148:	000a383c 	.word	0x000a383c
   8014c:	00000000 	.word	0x00000000

00080150 <ioport_set_pin_level>:
 *
 * \param pin IOPORT pin to configure
 * \param level Logical value of the pin
 */
static inline void ioport_set_pin_level(ioport_pin_t pin, bool level)
{
   80150:	b480      	push	{r7}
   80152:	b08b      	sub	sp, #44	; 0x2c
   80154:	af00      	add	r7, sp, #0
   80156:	6078      	str	r0, [r7, #4]
   80158:	460b      	mov	r3, r1
   8015a:	70fb      	strb	r3, [r7, #3]
   8015c:	687b      	ldr	r3, [r7, #4]
   8015e:	627b      	str	r3, [r7, #36]	; 0x24
   80160:	78fb      	ldrb	r3, [r7, #3]
   80162:	f887 3023 	strb.w	r3, [r7, #35]	; 0x23
   80166:	6a7b      	ldr	r3, [r7, #36]	; 0x24
   80168:	61fb      	str	r3, [r7, #28]
   8016a:	69fb      	ldr	r3, [r7, #28]
   8016c:	61bb      	str	r3, [r7, #24]
typedef uint32_t ioport_port_t;
typedef uint32_t ioport_port_mask_t;

__always_inline static ioport_port_t arch_ioport_pin_to_port_id(ioport_pin_t pin)
{
	return pin >> 5;
   8016e:	69bb      	ldr	r3, [r7, #24]
   80170:	095b      	lsrs	r3, r3, #5
   80172:	617b      	str	r3, [r7, #20]
	} else {
		return (Pio *)((uintptr_t)IOPORT_BASE_ADDRESS +
		       (IOPORT_PIO_OFFSET * port));
	}
#else
	return (Pio *)((uintptr_t)IOPORT_BASE_ADDRESS +
   80174:	697b      	ldr	r3, [r7, #20]
   80176:	f503 1300 	add.w	r3, r3, #2097152	; 0x200000
   8017a:	f203 7307 	addw	r3, r3, #1799	; 0x707
   8017e:	025b      	lsls	r3, r3, #9
}

__always_inline static void arch_ioport_set_pin_level(ioport_pin_t pin,
		bool level)
{
	Pio *base = arch_ioport_pin_to_base(pin);
   80180:	613b      	str	r3, [r7, #16]

	if (level) {
   80182:	f897 3023 	ldrb.w	r3, [r7, #35]	; 0x23
   80186:	2b00      	cmp	r3, #0
   80188:	d009      	beq.n	8019e <ioport_set_pin_level+0x4e>
   8018a:	6a7b      	ldr	r3, [r7, #36]	; 0x24
   8018c:	60fb      	str	r3, [r7, #12]
	return arch_ioport_port_to_base(arch_ioport_pin_to_port_id(pin));
}

__always_inline static ioport_port_mask_t arch_ioport_pin_to_mask(ioport_pin_t pin)
{
	return 1U << (pin & 0x1F);
   8018e:	68fb      	ldr	r3, [r7, #12]
   80190:	f003 031f 	and.w	r3, r3, #31
   80194:	2201      	movs	r2, #1
   80196:	409a      	lsls	r2, r3
		bool level)
{
	Pio *base = arch_ioport_pin_to_base(pin);

	if (level) {
		base->PIO_SODR = arch_ioport_pin_to_mask(pin);
   80198:	693b      	ldr	r3, [r7, #16]
   8019a:	631a      	str	r2, [r3, #48]	; 0x30
   8019c:	e008      	b.n	801b0 <ioport_set_pin_level+0x60>
   8019e:	6a7b      	ldr	r3, [r7, #36]	; 0x24
   801a0:	60bb      	str	r3, [r7, #8]
	return arch_ioport_port_to_base(arch_ioport_pin_to_port_id(pin));
}

__always_inline static ioport_port_mask_t arch_ioport_pin_to_mask(ioport_pin_t pin)
{
	return 1U << (pin & 0x1F);
   801a2:	68bb      	ldr	r3, [r7, #8]
   801a4:	f003 031f 	and.w	r3, r3, #31
   801a8:	2201      	movs	r2, #1
   801aa:	409a      	lsls	r2, r3
	Pio *base = arch_ioport_pin_to_base(pin);

	if (level) {
		base->PIO_SODR = arch_ioport_pin_to_mask(pin);
	} else {
		base->PIO_CODR = arch_ioport_pin_to_mask(pin);
   801ac:	693b      	ldr	r3, [r7, #16]
   801ae:	635a      	str	r2, [r3, #52]	; 0x34
	arch_ioport_set_pin_level(pin, level);
}
   801b0:	372c      	adds	r7, #44	; 0x2c
   801b2:	46bd      	mov	sp, r7
   801b4:	f85d 7b04 	ldr.w	r7, [sp], #4
   801b8:	4770      	bx	lr
   801ba:	bf00      	nop

000801bc <ioport_toggle_pin_level>:
 * an output.
 *
 * \param pin IOPORT pin to toggle
 */
static inline void ioport_toggle_pin_level(ioport_pin_t pin)
{
   801bc:	b480      	push	{r7}
   801be:	b08b      	sub	sp, #44	; 0x2c
   801c0:	af00      	add	r7, sp, #0
   801c2:	6078      	str	r0, [r7, #4]
   801c4:	687b      	ldr	r3, [r7, #4]
   801c6:	627b      	str	r3, [r7, #36]	; 0x24
   801c8:	6a7b      	ldr	r3, [r7, #36]	; 0x24
   801ca:	623b      	str	r3, [r7, #32]
   801cc:	6a3b      	ldr	r3, [r7, #32]
   801ce:	61fb      	str	r3, [r7, #28]
typedef uint32_t ioport_port_t;
typedef uint32_t ioport_port_mask_t;

__always_inline static ioport_port_t arch_ioport_pin_to_port_id(ioport_pin_t pin)
{
	return pin >> 5;
   801d0:	69fb      	ldr	r3, [r7, #28]
   801d2:	095b      	lsrs	r3, r3, #5
   801d4:	61bb      	str	r3, [r7, #24]
	} else {
		return (Pio *)((uintptr_t)IOPORT_BASE_ADDRESS +
		       (IOPORT_PIO_OFFSET * port));
	}
#else
	return (Pio *)((uintptr_t)IOPORT_BASE_ADDRESS +
   801d6:	69bb      	ldr	r3, [r7, #24]
   801d8:	f503 1300 	add.w	r3, r3, #2097152	; 0x200000
   801dc:	f203 7307 	addw	r3, r3, #1799	; 0x707
   801e0:	025b      	lsls	r3, r3, #9
	return arch_ioport_port_to_base(port)->PIO_PDSR & mask;
}

__always_inline static void arch_ioport_toggle_pin_level(ioport_pin_t pin)
{
	Pio *port = arch_ioport_pin_to_base(pin);
   801e2:	617b      	str	r3, [r7, #20]
   801e4:	6a7b      	ldr	r3, [r7, #36]	; 0x24
   801e6:	613b      	str	r3, [r7, #16]
	return arch_ioport_port_to_base(arch_ioport_pin_to_port_id(pin));
}

__always_inline static ioport_port_mask_t arch_ioport_pin_to_mask(ioport_pin_t pin)
{
	return 1U << (pin & 0x1F);
   801e8:	693b      	ldr	r3, [r7, #16]
   801ea:	f003 031f 	and.w	r3, r3, #31
   801ee:	2201      	movs	r2, #1
   801f0:	fa02 f303 	lsl.w	r3, r2, r3
}

__always_inline static void arch_ioport_toggle_pin_level(ioport_pin_t pin)
{
	Pio *port = arch_ioport_pin_to_base(pin);
	ioport_port_mask_t mask = arch_ioport_pin_to_mask(pin);
   801f4:	60fb      	str	r3, [r7, #12]

	if (port->PIO_PDSR & arch_ioport_pin_to_mask(pin)) {
   801f6:	697b      	ldr	r3, [r7, #20]
   801f8:	6bda      	ldr	r2, [r3, #60]	; 0x3c
   801fa:	6a7b      	ldr	r3, [r7, #36]	; 0x24
   801fc:	60bb      	str	r3, [r7, #8]
	return arch_ioport_port_to_base(arch_ioport_pin_to_port_id(pin));
}

__always_inline static ioport_port_mask_t arch_ioport_pin_to_mask(ioport_pin_t pin)
{
	return 1U << (pin & 0x1F);
   801fe:	68bb      	ldr	r3, [r7, #8]
   80200:	f003 031f 	and.w	r3, r3, #31
   80204:	2101      	movs	r1, #1
   80206:	fa01 f303 	lsl.w	r3, r1, r3
__always_inline static void arch_ioport_toggle_pin_level(ioport_pin_t pin)
{
	Pio *port = arch_ioport_pin_to_base(pin);
	ioport_port_mask_t mask = arch_ioport_pin_to_mask(pin);

	if (port->PIO_PDSR & arch_ioport_pin_to_mask(pin)) {
   8020a:	4013      	ands	r3, r2
   8020c:	2b00      	cmp	r3, #0
   8020e:	d003      	beq.n	80218 <ioport_toggle_pin_level+0x5c>
		port->PIO_CODR = mask;
   80210:	697b      	ldr	r3, [r7, #20]
   80212:	68fa      	ldr	r2, [r7, #12]
   80214:	635a      	str	r2, [r3, #52]	; 0x34
   80216:	e002      	b.n	8021e <ioport_toggle_pin_level+0x62>
	} else {
		port->PIO_SODR = mask;
   80218:	697b      	ldr	r3, [r7, #20]
   8021a:	68fa      	ldr	r2, [r7, #12]
   8021c:	631a      	str	r2, [r3, #48]	; 0x30
	arch_ioport_toggle_pin_level(pin);
}
   8021e:	372c      	adds	r7, #44	; 0x2c
   80220:	46bd      	mov	sp, r7
   80222:	f85d 7b04 	ldr.w	r7, [sp], #4
   80226:	4770      	bx	lr

00080228 <main>:
 * izracuna se avtomatsko iz velikosti celotnega seznama in velikosti prvega elementa
 * */
uint32_t rtos_num_task = sizeof(rtos_task_list) / sizeof(rtos_task_list[0]);

int main (void)
{
   80228:	b590      	push	{r4, r7, lr}
   8022a:	b0ed      	sub	sp, #436	; 0x1b4
   8022c:	af02      	add	r7, sp, #8
	/* sets the processor clock according to conf_clock.h definitions */
	sysclk_init();
   8022e:	f002 fc31 	bl	82a94 <sysclk_init>

	/* disable wathcdog */
	WDT->WDT_MR = WDT_MR_WDDIS;
   80232:	4bbe      	ldr	r3, [pc, #760]	; (8052c <main+0x304>)
   80234:	f44f 4200 	mov.w	r2, #32768	; 0x8000
   80238:	605a      	str	r2, [r3, #4]

	//------inicializacije------
		//inicializacija tipk
		init_buttons();
   8023a:	f001 ff65 	bl	82108 <init_buttons>
		//inicializacija led
		init_leds();
   8023e:	f001 ff89 	bl	82154 <init_leds>
		//inicializacija adc
		adc_setup();
   80242:	f001 fe8d 	bl	81f60 <adc_setup>
		//inicializacija dac
		dac_setup();
   80246:	f001 fed1 	bl	81fec <dac_setup>
		//inicializacija uart
		uart_setup();
   8024a:	f001 ffed 	bl	82228 <uart_setup>

		//inicializacija rtos
		if(rtos_init(RTOS_SLICE_US)!=0) while(1);	//predolga zelena casovna rezina
   8024e:	2008      	movs	r0, #8
   80250:	f002 f84a 	bl	822e8 <rtos_init>
   80254:	4603      	mov	r3, r0
   80256:	2b00      	cmp	r3, #0
   80258:	d000      	beq.n	8025c <main+0x34>
   8025a:	e7fe      	b.n	8025a <main+0x32>
	//--------------------------


	//vse ledice za zacetek ugasnjene
	led_set_state(~0x0000);
   8025c:	f04f 30ff 	mov.w	r0, #4294967295
   80260:	f001 ff8e 	bl	82180 <led_set_state>
	ioport_set_pin_level(D4, 0);
   80264:	2067      	movs	r0, #103	; 0x67
   80266:	2100      	movs	r1, #0
   80268:	f7ff ff72 	bl	80150 <ioport_set_pin_level>

	uint16_t half_window[HALF_WINDOW_SIZE] = {0};	//polovicno okno
   8026c:	1d3b      	adds	r3, r7, #4
   8026e:	461a      	mov	r2, r3
   80270:	f44f 73c0 	mov.w	r3, #384	; 0x180
   80274:	4610      	mov	r0, r2
   80276:	2100      	movs	r1, #0
   80278:	461a      	mov	r2, r3
   8027a:	f005 ff43 	bl	86104 <memset>
	uint16_t half_window_c = 0;					//stevec vzorec polovicnega okna
   8027e:	2300      	movs	r3, #0
   80280:	f8a7 31a6 	strh.w	r3, [r7, #422]	; 0x1a6


	bool is_signal=false;				//je trenutno polovico okna signal
   80284:	2300      	movs	r3, #0
   80286:	f887 31a5 	strb.w	r3, [r7, #421]	; 0x1a5
	bool was_signal=false;				//je bil prejsnjo polovico okna signal
   8028a:	2300      	movs	r3, #0
   8028c:	f887 31a4 	strb.w	r3, [r7, #420]	; 0x1a4
	bool ready_for_processing = false;	//ali moramo signal obdelati
   80290:	2300      	movs	r3, #0
   80292:	f887 318d 	strb.w	r3, [r7, #397]	; 0x18d


	uint8_t ref_class_num=0;			//stevilo trenutnih razlicnih razredov
   80296:	2300      	movs	r3, #0
   80298:	f887 31a3 	strb.w	r3, [r7, #419]	; 0x1a3
	uint8_t ref_eq_num=0;				//stevilo trenutnih signalov iz istega razreda
   8029c:	2300      	movs	r3, #0
   8029e:	f887 31a2 	strb.w	r3, [r7, #418]	; 0x1a2
	const uint16_t *ref_signals_size;			//hrani trenutno dolzino signala znacilk posamicnega referencnega signala
	const float **ref_signals;			//hrani trenutne referencne signal, s katerimi primerjamo signal
	int8_t i_class=-2;					//hrani trenutni razred razvrscenega signala
   802a2:	23fe      	movs	r3, #254	; 0xfe
   802a4:	f887 318c 	strb.w	r3, [r7, #396]	; 0x18c
	/* convers_state - hrani stanje pogovora, v katerem se nahajam
	 *  0 - zacetek (caka, da ga poklices = FIFI)
	 *  1 - ukaz (CAS ali PRIZGI)
	 *  2 - se kaj (caka na DA - prehod v 1, ali HVALA - prehod v 0)
	 */
	int8_t convers_state = 0;
   802a8:	2300      	movs	r3, #0
   802aa:	f887 3197 	strb.w	r3, [r7, #407]	; 0x197


	//delay pri vklopu
	int tmpitmp;
	for(tmpitmp=0; tmpitmp<500000;tmpitmp++);
   802ae:	2300      	movs	r3, #0
   802b0:	f8c7 3190 	str.w	r3, [r7, #400]	; 0x190
   802b4:	e004      	b.n	802c0 <main+0x98>
   802b6:	f8d7 3190 	ldr.w	r3, [r7, #400]	; 0x190
   802ba:	3301      	adds	r3, #1
   802bc:	f8c7 3190 	str.w	r3, [r7, #400]	; 0x190
   802c0:	f8d7 3190 	ldr.w	r3, [r7, #400]	; 0x190
   802c4:	4a9a      	ldr	r2, [pc, #616]	; (80530 <main+0x308>)
   802c6:	4293      	cmp	r3, r2
   802c8:	ddf5      	ble.n	802b6 <main+0x8e>

	//poslusamo
	task_leds.status = 1;
   802ca:	4b9a      	ldr	r3, [pc, #616]	; (80534 <main+0x30c>)
   802cc:	2201      	movs	r2, #1
   802ce:	611a      	str	r2, [r3, #16]

	rtos_enable();	//zagon rtos
   802d0:	f002 f876 	bl	823c0 <rtos_enable>
	while(1){

		while(1){

			half_window_c = 0;
   802d4:	2300      	movs	r3, #0
   802d6:	f8a7 31a6 	strh.w	r3, [r7, #422]	; 0x1a6
			//beremo iz fifo za adc vhodni signal dokler ne preberemo dovolj vzorcev za polovicno okno
			while(half_window_c != HALF_WINDOW_SIZE){
   802da:	e01b      	b.n	80314 <main+0xec>
				uint16_t tmp_data = 0xFF;
   802dc:	1cbb      	adds	r3, r7, #2
   802de:	22ff      	movs	r2, #255	; 0xff
   802e0:	801a      	strh	r2, [r3, #0]
				uint8_t n = fifo_read(&adc_fifo, &tmp_data, 1);	//preberemo en vzorec
   802e2:	1cbb      	adds	r3, r7, #2
   802e4:	4894      	ldr	r0, [pc, #592]	; (80538 <main+0x310>)
   802e6:	4619      	mov	r1, r3
   802e8:	2201      	movs	r2, #1
   802ea:	f002 f8ef 	bl	824cc <fifo_read>
   802ee:	4603      	mov	r3, r0
   802f0:	f887 3187 	strb.w	r3, [r7, #391]	; 0x187

				//ce smo uspesno prebrali, vzorec vpisemo in povecamo stevec
				if(n == 1){
   802f4:	f897 3187 	ldrb.w	r3, [r7, #391]	; 0x187
   802f8:	2b01      	cmp	r3, #1
   802fa:	d10b      	bne.n	80314 <main+0xec>
					half_window[half_window_c] = tmp_data;
   802fc:	f8b7 21a6 	ldrh.w	r2, [r7, #422]	; 0x1a6
   80300:	1cbb      	adds	r3, r7, #2
   80302:	8819      	ldrh	r1, [r3, #0]
   80304:	1d3b      	adds	r3, r7, #4
   80306:	f823 1012 	strh.w	r1, [r3, r2, lsl #1]
					half_window_c++;
   8030a:	f8b7 31a6 	ldrh.w	r3, [r7, #422]	; 0x1a6
   8030e:	3301      	adds	r3, #1
   80310:	f8a7 31a6 	strh.w	r3, [r7, #422]	; 0x1a6

		while(1){

			half_window_c = 0;
			//beremo iz fifo za adc vhodni signal dokler ne preberemo dovolj vzorcev za polovicno okno
			while(half_window_c != HALF_WINDOW_SIZE){
   80314:	f8b7 31a6 	ldrh.w	r3, [r7, #422]	; 0x1a6
   80318:	2bc0      	cmp	r3, #192	; 0xc0
   8031a:	d1df      	bne.n	802dc <main+0xb4>
					half_window[half_window_c] = tmp_data;
					half_window_c++;
				}
			}

			float tmp_power = signal_power(half_window, HALF_WINDOW_SIZE);
   8031c:	1d3b      	adds	r3, r7, #4
   8031e:	4618      	mov	r0, r3
   80320:	21c0      	movs	r1, #192	; 0xc0
   80322:	f000 f98b 	bl	8063c <signal_power>
   80326:	f8c7 0188 	str.w	r0, [r7, #392]	; 0x188
			//ko smo prebrali dovolj vzorcev za polovicno okno, pogledamo kaksna je moc signala
			if( tmp_power>NOISE_POWER /*&& tmp_zeros<NOISE_ZEROS*/ ){
   8032a:	f8d7 0188 	ldr.w	r0, [r7, #392]	; 0x188
   8032e:	4983      	ldr	r1, [pc, #524]	; (8053c <main+0x314>)
   80330:	f005 fbfa 	bl	85b28 <__aeabi_fcmpgt>
   80334:	4603      	mov	r3, r0
   80336:	2b00      	cmp	r3, #0
   80338:	d032      	beq.n	803a0 <main+0x178>

				if(task_leds.status != 2){
   8033a:	4b7e      	ldr	r3, [pc, #504]	; (80534 <main+0x30c>)
   8033c:	691b      	ldr	r3, [r3, #16]
   8033e:	2b02      	cmp	r3, #2
   80340:	d002      	beq.n	80348 <main+0x120>
					task_leds.status = 2;
   80342:	4b7c      	ldr	r3, [pc, #496]	; (80534 <main+0x30c>)
   80344:	2202      	movs	r2, #2
   80346:	611a      	str	r2, [r3, #16]
					//led_set_state(~0x0001);
				}
				//led_set_state(~0x0001);	//za kontrolo -> v koncni verziji daj utripajoco ledico kot opravilo

				is_signal=true;		//je signal
   80348:	2301      	movs	r3, #1
   8034a:	f887 31a5 	strb.w	r3, [r7, #421]	; 0x1a5

				//prepisemo polovicno okno v celoten signal, dokler je prostor
				uint16_t i;
				for(i=0; i<HALF_WINDOW_SIZE && signal_size+HALF_WINDOW_SIZE<=MAX_SIGNAL_SIZE; i++){
   8034e:	2300      	movs	r3, #0
   80350:	f8a7 318e 	strh.w	r3, [r7, #398]	; 0x18e
   80354:	e012      	b.n	8037c <main+0x154>
					signal[signal_size+i] = half_window[i];
   80356:	4b7a      	ldr	r3, [pc, #488]	; (80540 <main+0x318>)
   80358:	881b      	ldrh	r3, [r3, #0]
   8035a:	461a      	mov	r2, r3
   8035c:	f8b7 318e 	ldrh.w	r3, [r7, #398]	; 0x18e
   80360:	4413      	add	r3, r2
   80362:	f8b7 118e 	ldrh.w	r1, [r7, #398]	; 0x18e
   80366:	1d3a      	adds	r2, r7, #4
   80368:	f832 1011 	ldrh.w	r1, [r2, r1, lsl #1]
   8036c:	4a75      	ldr	r2, [pc, #468]	; (80544 <main+0x31c>)
   8036e:	f822 1013 	strh.w	r1, [r2, r3, lsl #1]

				is_signal=true;		//je signal

				//prepisemo polovicno okno v celoten signal, dokler je prostor
				uint16_t i;
				for(i=0; i<HALF_WINDOW_SIZE && signal_size+HALF_WINDOW_SIZE<=MAX_SIGNAL_SIZE; i++){
   80372:	f8b7 318e 	ldrh.w	r3, [r7, #398]	; 0x18e
   80376:	3301      	adds	r3, #1
   80378:	f8a7 318e 	strh.w	r3, [r7, #398]	; 0x18e
   8037c:	f8b7 318e 	ldrh.w	r3, [r7, #398]	; 0x18e
   80380:	2bbf      	cmp	r3, #191	; 0xbf
   80382:	d806      	bhi.n	80392 <main+0x16a>
   80384:	4b6e      	ldr	r3, [pc, #440]	; (80540 <main+0x318>)
   80386:	881b      	ldrh	r3, [r3, #0]
   80388:	33c0      	adds	r3, #192	; 0xc0
   8038a:	f645 52c0 	movw	r2, #24000	; 0x5dc0
   8038e:	4293      	cmp	r3, r2
   80390:	dde1      	ble.n	80356 <main+0x12e>
					signal[signal_size+i] = half_window[i];
				}
				signal_size += HALF_WINDOW_SIZE;	//povecamo dolzino signal
   80392:	4b6b      	ldr	r3, [pc, #428]	; (80540 <main+0x318>)
   80394:	881b      	ldrh	r3, [r3, #0]
   80396:	33c0      	adds	r3, #192	; 0xc0
   80398:	b29a      	uxth	r2, r3
   8039a:	4b69      	ldr	r3, [pc, #420]	; (80540 <main+0x318>)
   8039c:	801a      	strh	r2, [r3, #0]
   8039e:	e002      	b.n	803a6 <main+0x17e>
			}
			else{

				//led_set_state(~0x0000);	//za kontrolo -> v koncni verziji daj utripajoco ledico kot opravilo

				is_signal=false;	//ni signala
   803a0:	2300      	movs	r3, #0
   803a2:	f887 31a5 	strb.w	r3, [r7, #421]	; 0x1a5
			}

			//pogledamo, ali je prislo do konca singala in ga moramo nadalje obdelati
			if( was_signal==true && is_signal==false ){
   803a6:	f897 31a4 	ldrb.w	r3, [r7, #420]	; 0x1a4
   803aa:	2b00      	cmp	r3, #0
   803ac:	f000 811f 	beq.w	805ee <main+0x3c6>
   803b0:	f897 31a5 	ldrb.w	r3, [r7, #421]	; 0x1a5
   803b4:	f083 0301 	eor.w	r3, r3, #1
   803b8:	b2db      	uxtb	r3, r3
   803ba:	2b00      	cmp	r3, #0
   803bc:	f000 8117 	beq.w	805ee <main+0x3c6>
				ready_for_processing = true;
   803c0:	2301      	movs	r3, #1
   803c2:	f887 318d 	strb.w	r3, [r7, #397]	; 0x18d

				//poslusamo
				led_set_state(~0x0000);	//ugasnemo vse ledice
   803c6:	f04f 30ff 	mov.w	r0, #4294967295
   803ca:	f001 fed9 	bl	82180 <led_set_state>
				task_leds.status = 3;	//nato zacnemo s hitrejsim utripanjem LED3, ki nakazuje na racunanje
   803ce:	4b59      	ldr	r3, [pc, #356]	; (80534 <main+0x30c>)
   803d0:	2203      	movs	r2, #3
   803d2:	611a      	str	r2, [r3, #16]

				//izklopimo task adc, da ne beremo novi vhodov, ko govorimo
				task_adc.status=0;
   803d4:	4b5c      	ldr	r3, [pc, #368]	; (80548 <main+0x320>)
   803d6:	2200      	movs	r2, #0
   803d8:	611a      	str	r2, [r3, #16]

				/* dolocimo mozne izgovorjene besede glede na to, kje v pogovoru se nahajamo */
				switch(convers_state){
   803da:	f997 3197 	ldrsb.w	r3, [r7, #407]	; 0x197
   803de:	2b01      	cmp	r3, #1
   803e0:	d010      	beq.n	80404 <main+0x1dc>
   803e2:	2b02      	cmp	r3, #2
   803e4:	d01b      	beq.n	8041e <main+0x1f6>
   803e6:	2b00      	cmp	r3, #0
   803e8:	d126      	bne.n	80438 <main+0x210>
					case 0:{
						ref_class_num = ref_class_num_FIFI;
   803ea:	2301      	movs	r3, #1
   803ec:	f887 31a3 	strb.w	r3, [r7, #419]	; 0x1a3
						ref_eq_num = ref_eq_num_FIFI;
   803f0:	2306      	movs	r3, #6
   803f2:	f887 31a2 	strb.w	r3, [r7, #418]	; 0x1a2
						ref_signals = ref_signals_FIFI;
   803f6:	4b55      	ldr	r3, [pc, #340]	; (8054c <main+0x324>)
   803f8:	f8c7 3198 	str.w	r3, [r7, #408]	; 0x198
						ref_signals_size = ref_signals_size_FIFI;
   803fc:	4b54      	ldr	r3, [pc, #336]	; (80550 <main+0x328>)
   803fe:	f8c7 319c 	str.w	r3, [r7, #412]	; 0x19c
						break;
   80402:	e019      	b.n	80438 <main+0x210>
					}

					case 1:{
						ref_class_num = ref_class_num_LUC_URA;
   80404:	2302      	movs	r3, #2
   80406:	f887 31a3 	strb.w	r3, [r7, #419]	; 0x1a3
						ref_eq_num = ref_eq_num_LUC_URA;
   8040a:	2306      	movs	r3, #6
   8040c:	f887 31a2 	strb.w	r3, [r7, #418]	; 0x1a2
						ref_signals = ref_signals_LUC_URA;
   80410:	4b50      	ldr	r3, [pc, #320]	; (80554 <main+0x32c>)
   80412:	f8c7 3198 	str.w	r3, [r7, #408]	; 0x198
						ref_signals_size = ref_signals_size_LUC_URA;
   80416:	4b50      	ldr	r3, [pc, #320]	; (80558 <main+0x330>)
   80418:	f8c7 319c 	str.w	r3, [r7, #412]	; 0x19c
						break;
   8041c:	e00c      	b.n	80438 <main+0x210>
					}
					case 2:{
						ref_class_num = ref_class_num_DA_NE;
   8041e:	2302      	movs	r3, #2
   80420:	f887 31a3 	strb.w	r3, [r7, #419]	; 0x1a3
						ref_eq_num = ref_eq_num_DA_NE;
   80424:	2306      	movs	r3, #6
   80426:	f887 31a2 	strb.w	r3, [r7, #418]	; 0x1a2
						ref_signals = ref_signals_DA_NE;
   8042a:	4b4c      	ldr	r3, [pc, #304]	; (8055c <main+0x334>)
   8042c:	f8c7 3198 	str.w	r3, [r7, #408]	; 0x198
						ref_signals_size = ref_signals_size_DA_NE;
   80430:	4b4b      	ldr	r3, [pc, #300]	; (80560 <main+0x338>)
   80432:	f8c7 319c 	str.w	r3, [r7, #412]	; 0x19c
						break;
   80436:	bf00      	nop
					}
				}


				/* razvrstimo neznani signal v razred */
				i_class = compare(signal, signal_size, ref_signals, ref_class_num, ref_eq_num, ref_signals_size);
   80438:	4b41      	ldr	r3, [pc, #260]	; (80540 <main+0x318>)
   8043a:	881a      	ldrh	r2, [r3, #0]
   8043c:	f897 41a3 	ldrb.w	r4, [r7, #419]	; 0x1a3
   80440:	f897 31a2 	ldrb.w	r3, [r7, #418]	; 0x1a2
   80444:	9300      	str	r3, [sp, #0]
   80446:	f8d7 319c 	ldr.w	r3, [r7, #412]	; 0x19c
   8044a:	9301      	str	r3, [sp, #4]
   8044c:	483d      	ldr	r0, [pc, #244]	; (80544 <main+0x31c>)
   8044e:	4611      	mov	r1, r2
   80450:	f8d7 2198 	ldr.w	r2, [r7, #408]	; 0x198
   80454:	4623      	mov	r3, r4
   80456:	f000 f92b 	bl	806b0 <compare>
   8045a:	4603      	mov	r3, r0
   8045c:	f887 318c 	strb.w	r3, [r7, #396]	; 0x18c


				task_leds.status = 0;
   80460:	4b34      	ldr	r3, [pc, #208]	; (80534 <main+0x30c>)
   80462:	2200      	movs	r2, #0
   80464:	611a      	str	r2, [r3, #16]
				led_set_state(~0x0000);	//ugasnemo vse ledice - koncali z racunanjem
   80466:	f04f 30ff 	mov.w	r0, #4294967295
   8046a:	f001 fe89 	bl	82180 <led_set_state>



				/* glede na razvrscen razred in mozne besede se odzovemo */
				//nisem razumel -> ponovi (ostanemo v istem stanju)
				if(i_class == -1){
   8046e:	f997 318c 	ldrsb.w	r3, [r7, #396]	; 0x18c
   80472:	f1b3 3fff 	cmp.w	r3, #4294967295
   80476:	d107      	bne.n	80488 <main+0x260>
					output_signal = pos_ponovite;
   80478:	4b3a      	ldr	r3, [pc, #232]	; (80564 <main+0x33c>)
   8047a:	4a3b      	ldr	r2, [pc, #236]	; (80568 <main+0x340>)
   8047c:	601a      	str	r2, [r3, #0]
					output_signal_size = pos_ponovite_size;
   8047e:	f44f 6204 	mov.w	r2, #2112	; 0x840
   80482:	4b3a      	ldr	r3, [pc, #232]	; (8056c <main+0x344>)
   80484:	801a      	strh	r2, [r3, #0]
   80486:	e089      	b.n	8059c <main+0x374>
				}
				//smo v zacetnem stanju in smo razumeli, da nas je poklical -> stanje 1
				else if(convers_state==0 && i_class==0){
   80488:	f997 3197 	ldrsb.w	r3, [r7, #407]	; 0x197
   8048c:	2b00      	cmp	r3, #0
   8048e:	d10e      	bne.n	804ae <main+0x286>
   80490:	f997 318c 	ldrsb.w	r3, [r7, #396]	; 0x18c
   80494:	2b00      	cmp	r3, #0
   80496:	d10a      	bne.n	804ae <main+0x286>
					output_signal = pos_zelite;
   80498:	4b32      	ldr	r3, [pc, #200]	; (80564 <main+0x33c>)
   8049a:	4a35      	ldr	r2, [pc, #212]	; (80570 <main+0x348>)
   8049c:	601a      	str	r2, [r3, #0]
					output_signal_size = pos_zelite_size;
   8049e:	f44f 62f0 	mov.w	r2, #1920	; 0x780
   804a2:	4b32      	ldr	r3, [pc, #200]	; (8056c <main+0x344>)
   804a4:	801a      	strh	r2, [r3, #0]
					convers_state = 1;
   804a6:	2301      	movs	r3, #1
   804a8:	f887 3197 	strb.w	r3, [r7, #407]	; 0x197
   804ac:	e076      	b.n	8059c <main+0x374>
				}
				//smo v prvem stanju in smo razumeli, da je LUC -> stanje 2
				else if(convers_state==1 && i_class==0){
   804ae:	f997 3197 	ldrsb.w	r3, [r7, #407]	; 0x197
   804b2:	2b01      	cmp	r3, #1
   804b4:	d111      	bne.n	804da <main+0x2b2>
   804b6:	f997 318c 	ldrsb.w	r3, [r7, #396]	; 0x18c
   804ba:	2b00      	cmp	r3, #0
   804bc:	d10d      	bne.n	804da <main+0x2b2>
					ioport_toggle_pin_level(D4);									//togglamo stanje led D4, ki predstavlja luc
   804be:	2067      	movs	r0, #103	; 0x67
   804c0:	f7ff fe7c 	bl	801bc <ioport_toggle_pin_level>
					output_signal = pos_se_kaj;
   804c4:	4b27      	ldr	r3, [pc, #156]	; (80564 <main+0x33c>)
   804c6:	4a2b      	ldr	r2, [pc, #172]	; (80574 <main+0x34c>)
   804c8:	601a      	str	r2, [r3, #0]
					output_signal_size = pos_se_kaj_size;
   804ca:	f44f 62f0 	mov.w	r2, #1920	; 0x780
   804ce:	4b27      	ldr	r3, [pc, #156]	; (8056c <main+0x344>)
   804d0:	801a      	strh	r2, [r3, #0]
					convers_state = 2;
   804d2:	2302      	movs	r3, #2
   804d4:	f887 3197 	strb.w	r3, [r7, #407]	; 0x197
   804d8:	e060      	b.n	8059c <main+0x374>
				}
				//smo v prvem stanju in smo razumeli, da je URA -> stanje 2
				else if(convers_state==1 && i_class==1){
   804da:	f997 3197 	ldrsb.w	r3, [r7, #407]	; 0x197
   804de:	2b01      	cmp	r3, #1
   804e0:	d110      	bne.n	80504 <main+0x2dc>
   804e2:	f997 318c 	ldrsb.w	r3, [r7, #396]	; 0x18c
   804e6:	2b01      	cmp	r3, #1
   804e8:	d10c      	bne.n	80504 <main+0x2dc>
					/* izgovorimo uro */
					say_time();
   804ea:	f001 f909 	bl	81700 <say_time>
					output_signal = pos_se_kaj;
   804ee:	4b1d      	ldr	r3, [pc, #116]	; (80564 <main+0x33c>)
   804f0:	4a20      	ldr	r2, [pc, #128]	; (80574 <main+0x34c>)
   804f2:	601a      	str	r2, [r3, #0]
					output_signal_size = pos_se_kaj_size;
   804f4:	f44f 62f0 	mov.w	r2, #1920	; 0x780
   804f8:	4b1c      	ldr	r3, [pc, #112]	; (8056c <main+0x344>)
   804fa:	801a      	strh	r2, [r3, #0]
					convers_state = 2;
   804fc:	2302      	movs	r3, #2
   804fe:	f887 3197 	strb.w	r3, [r7, #407]	; 0x197
   80502:	e04b      	b.n	8059c <main+0x374>
				}
				//smo v drugem stanju in smo razumeli, da je DA -> stanje 1
				else if(convers_state==2 && i_class==0){
   80504:	f997 3197 	ldrsb.w	r3, [r7, #407]	; 0x197
   80508:	2b02      	cmp	r3, #2
   8050a:	d135      	bne.n	80578 <main+0x350>
   8050c:	f997 318c 	ldrsb.w	r3, [r7, #396]	; 0x18c
   80510:	2b00      	cmp	r3, #0
   80512:	d131      	bne.n	80578 <main+0x350>
					output_signal = &pos_zelite[0];
   80514:	4b13      	ldr	r3, [pc, #76]	; (80564 <main+0x33c>)
   80516:	4a16      	ldr	r2, [pc, #88]	; (80570 <main+0x348>)
   80518:	601a      	str	r2, [r3, #0]
					output_signal_size = pos_zelite_size;
   8051a:	f44f 62f0 	mov.w	r2, #1920	; 0x780
   8051e:	4b13      	ldr	r3, [pc, #76]	; (8056c <main+0x344>)
   80520:	801a      	strh	r2, [r3, #0]
					convers_state = 1;
   80522:	2301      	movs	r3, #1
   80524:	f887 3197 	strb.w	r3, [r7, #407]	; 0x197
   80528:	e038      	b.n	8059c <main+0x374>
   8052a:	bf00      	nop
   8052c:	400e1a50 	.word	0x400e1a50
   80530:	0007a11f 	.word	0x0007a11f
   80534:	20070274 	.word	0x20070274
   80538:	200702b0 	.word	0x200702b0
   8053c:	49371b00 	.word	0x49371b00
   80540:	2007c6c8 	.word	0x2007c6c8
   80544:	20070b48 	.word	0x20070b48
   80548:	200702bc 	.word	0x200702bc
   8054c:	2007018c 	.word	0x2007018c
   80550:	000866a4 	.word	0x000866a4
   80554:	200701a4 	.word	0x200701a4
   80558:	00086fa0 	.word	0x00086fa0
   8055c:	200701d4 	.word	0x200701d4
   80560:	000885a8 	.word	0x000885a8
   80564:	2007c70c 	.word	0x2007c70c
   80568:	0008b468 	.word	0x0008b468
   8056c:	2007c710 	.word	0x2007c710
   80570:	00089668 	.word	0x00089668
   80574:	0008a568 	.word	0x0008a568
				}
				//smo v drugem stanju in smo razumeli, da je NE -> stanje 0
				else if(convers_state==2 && i_class==1){
   80578:	f997 3197 	ldrsb.w	r3, [r7, #407]	; 0x197
   8057c:	2b02      	cmp	r3, #2
   8057e:	d10d      	bne.n	8059c <main+0x374>
   80580:	f997 318c 	ldrsb.w	r3, [r7, #396]	; 0x18c
   80584:	2b01      	cmp	r3, #1
   80586:	d109      	bne.n	8059c <main+0x374>
					output_signal = &pos_adijo[0];
   80588:	4b25      	ldr	r3, [pc, #148]	; (80620 <main+0x3f8>)
   8058a:	4a26      	ldr	r2, [pc, #152]	; (80624 <main+0x3fc>)
   8058c:	601a      	str	r2, [r3, #0]
					output_signal_size = pos_adijo_size;
   8058e:	f44f 62c0 	mov.w	r2, #1536	; 0x600
   80592:	4b25      	ldr	r3, [pc, #148]	; (80628 <main+0x400>)
   80594:	801a      	strh	r2, [r3, #0]
					convers_state = 0;
   80596:	2300      	movs	r3, #0
   80598:	f887 3197 	strb.w	r3, [r7, #407]	; 0x197
				}



				if(convers_state==0 &&i_class == -1){
   8059c:	f997 3197 	ldrsb.w	r3, [r7, #407]	; 0x197
   805a0:	2b00      	cmp	r3, #0
   805a2:	d105      	bne.n	805b0 <main+0x388>
   805a4:	f997 318c 	ldrsb.w	r3, [r7, #396]	; 0x18c
   805a8:	f1b3 3fff 	cmp.w	r3, #4294967295
   805ac:	d100      	bne.n	805b0 <main+0x388>
   805ae:	e007      	b.n	805c0 <main+0x398>
					;//edino ce nismo poklicani in nismo razumeli, ne naredimo nic
				}
				else{
					//vklopimo task dac
					task_dac.status=1;
   805b0:	4b1e      	ldr	r3, [pc, #120]	; (8062c <main+0x404>)
   805b2:	2201      	movs	r2, #1
   805b4:	611a      	str	r2, [r3, #16]
					//cakamo, da se predvaja celoten posnetek signala
					while(task_dac.status==1);
   805b6:	bf00      	nop
   805b8:	4b1c      	ldr	r3, [pc, #112]	; (8062c <main+0x404>)
   805ba:	691b      	ldr	r3, [r3, #16]
   805bc:	2b01      	cmp	r3, #1
   805be:	d0fb      	beq.n	805b8 <main+0x390>
				}

				//ko koncamo z odzivom spet vklopimo task adc
				task_adc.status=1;
   805c0:	4b1b      	ldr	r3, [pc, #108]	; (80630 <main+0x408>)
   805c2:	2201      	movs	r2, #1
   805c4:	611a      	str	r2, [r3, #16]

				//ponastavimo vrednosti za zbiranje signala
				signal_size=0;
   805c6:	4b1b      	ldr	r3, [pc, #108]	; (80634 <main+0x40c>)
   805c8:	2200      	movs	r2, #0
   805ca:	801a      	strh	r2, [r3, #0]
				ready_for_processing = false;
   805cc:	2300      	movs	r3, #0
   805ce:	f887 318d 	strb.w	r3, [r7, #397]	; 0x18d
				was_signal = false;
   805d2:	2300      	movs	r3, #0
   805d4:	f887 31a4 	strb.w	r3, [r7, #420]	; 0x1a4
				is_signal = false;
   805d8:	2300      	movs	r3, #0
   805da:	f887 31a5 	strb.w	r3, [r7, #421]	; 0x1a5

				led_set_state(~0x0000);	//ugasnemo vse ledice
   805de:	f04f 30ff 	mov.w	r0, #4294967295
   805e2:	f001 fdcd 	bl	82180 <led_set_state>
				task_leds.status = 1;	//naprej poslusamo
   805e6:	4b14      	ldr	r3, [pc, #80]	; (80638 <main+0x410>)
   805e8:	2201      	movs	r2, #1
   805ea:	611a      	str	r2, [r3, #16]
   805ec:	e006      	b.n	805fc <main+0x3d4>
			}
			else{
				ready_for_processing = false;
   805ee:	2300      	movs	r3, #0
   805f0:	f887 318d 	strb.w	r3, [r7, #397]	; 0x18d
				was_signal = is_signal;		//trenutno stanje postane prejsnje
   805f4:	f897 31a5 	ldrb.w	r3, [r7, #421]	; 0x1a5
   805f8:	f887 31a4 	strb.w	r3, [r7, #420]	; 0x1a4
			}

			//ce smo dosegli najvecjo dolzino signala, ga zavrzemo
			if(signal_size+HALF_WINDOW_SIZE >= MAX_SIGNAL_SIZE){
   805fc:	4b0d      	ldr	r3, [pc, #52]	; (80634 <main+0x40c>)
   805fe:	881b      	ldrh	r3, [r3, #0]
   80600:	33c0      	adds	r3, #192	; 0xc0
   80602:	f645 52bf 	movw	r2, #23999	; 0x5dbf
   80606:	4293      	cmp	r3, r2
   80608:	dd08      	ble.n	8061c <main+0x3f4>
				signal_size=0;
   8060a:	4b0a      	ldr	r3, [pc, #40]	; (80634 <main+0x40c>)
   8060c:	2200      	movs	r2, #0
   8060e:	801a      	strh	r2, [r3, #0]
				was_signal = false;
   80610:	2300      	movs	r3, #0
   80612:	f887 31a4 	strb.w	r3, [r7, #420]	; 0x1a4
				is_signal = false;
   80616:	2300      	movs	r3, #0
   80618:	f887 31a5 	strb.w	r3, [r7, #421]	; 0x1a5
			}



		}
   8061c:	e65a      	b.n	802d4 <main+0xac>
   8061e:	bf00      	nop
   80620:	2007c70c 	.word	0x2007c70c
   80624:	0008c4e8 	.word	0x0008c4e8
   80628:	2007c710 	.word	0x2007c710
   8062c:	200702d0 	.word	0x200702d0
   80630:	200702bc 	.word	0x200702bc
   80634:	2007c6c8 	.word	0x2007c6c8
   80638:	20070274 	.word	0x20070274

0008063c <signal_power>:
 */

#include <signal_processor.h>

/* izracuna moc signala na odseku */
float signal_power(uint16_t *signal, uint16_t signal_size){
   8063c:	b580      	push	{r7, lr}
   8063e:	b084      	sub	sp, #16
   80640:	af00      	add	r7, sp, #0
   80642:	6078      	str	r0, [r7, #4]
   80644:	460b      	mov	r3, r1
   80646:	807b      	strh	r3, [r7, #2]
	float power = 0;
   80648:	f04f 0300 	mov.w	r3, #0
   8064c:	60fb      	str	r3, [r7, #12]
	uint16_t i = 0;
   8064e:	2300      	movs	r3, #0
   80650:	817b      	strh	r3, [r7, #10]

	for(i=0; i<signal_size; i++){
   80652:	2300      	movs	r3, #0
   80654:	817b      	strh	r3, [r7, #10]
   80656:	e022      	b.n	8069e <signal_power+0x62>
		power += (int16_t)(signal[i]-2048)*(int16_t)(signal[i]-2048);
   80658:	897b      	ldrh	r3, [r7, #10]
   8065a:	005b      	lsls	r3, r3, #1
   8065c:	687a      	ldr	r2, [r7, #4]
   8065e:	4413      	add	r3, r2
   80660:	881b      	ldrh	r3, [r3, #0]
   80662:	f5a3 6300 	sub.w	r3, r3, #2048	; 0x800
   80666:	b29b      	uxth	r3, r3
   80668:	b29b      	uxth	r3, r3
   8066a:	b21b      	sxth	r3, r3
   8066c:	897a      	ldrh	r2, [r7, #10]
   8066e:	0052      	lsls	r2, r2, #1
   80670:	6879      	ldr	r1, [r7, #4]
   80672:	440a      	add	r2, r1
   80674:	8812      	ldrh	r2, [r2, #0]
   80676:	f5a2 6200 	sub.w	r2, r2, #2048	; 0x800
   8067a:	b292      	uxth	r2, r2
   8067c:	b292      	uxth	r2, r2
   8067e:	b212      	sxth	r2, r2
   80680:	fb02 f303 	mul.w	r3, r2, r3
   80684:	4618      	mov	r0, r3
   80686:	f005 f83f 	bl	85708 <__aeabi_i2f>
   8068a:	4603      	mov	r3, r0
   8068c:	68f8      	ldr	r0, [r7, #12]
   8068e:	4619      	mov	r1, r3
   80690:	f004 ff86 	bl	855a0 <__addsf3>
   80694:	4603      	mov	r3, r0
   80696:	60fb      	str	r3, [r7, #12]
/* izracuna moc signala na odseku */
float signal_power(uint16_t *signal, uint16_t signal_size){
	float power = 0;
	uint16_t i = 0;

	for(i=0; i<signal_size; i++){
   80698:	897b      	ldrh	r3, [r7, #10]
   8069a:	3301      	adds	r3, #1
   8069c:	817b      	strh	r3, [r7, #10]
   8069e:	897a      	ldrh	r2, [r7, #10]
   806a0:	887b      	ldrh	r3, [r7, #2]
   806a2:	429a      	cmp	r2, r3
   806a4:	d3d8      	bcc.n	80658 <signal_power+0x1c>
		power += (int16_t)(signal[i]-2048)*(int16_t)(signal[i]-2048);
	}

	return power;
   806a6:	68fb      	ldr	r3, [r7, #12]
}
   806a8:	4618      	mov	r0, r3
   806aa:	3710      	adds	r7, #16
   806ac:	46bd      	mov	sp, r7
   806ae:	bd80      	pop	{r7, pc}

000806b0 <compare>:
*     ref_signals - 2d zbirka znacilk referencnih signalov (vsak 2d zbirka)
*     ref_class_num - stevilo razlicnih razredov
*     ref_eq_num - stevilo signalov enakega razreda
*     ref_signals_size - velikost referencnih signalov znacilk
*/
int8_t compare(uint16_t *signal, uint16_t signal_size, const float **ref_signals, uint8_t ref_class_num, uint8_t ref_eq_num, const uint16_t *ref_signals_size){
   806b0:	b580      	push	{r7, lr}
   806b2:	b08a      	sub	sp, #40	; 0x28
   806b4:	af00      	add	r7, sp, #0
   806b6:	60f8      	str	r0, [r7, #12]
   806b8:	607a      	str	r2, [r7, #4]
   806ba:	461a      	mov	r2, r3
   806bc:	460b      	mov	r3, r1
   806be:	817b      	strh	r3, [r7, #10]
   806c0:	4613      	mov	r3, r2
   806c2:	727b      	strb	r3, [r7, #9]
	int16_t i_class, j_ref;

	float min_cost = 0;		//hrani podobnost med neznanim in najbolj podobnim ref signalom
   806c4:	f04f 0300 	mov.w	r3, #0
   806c8:	623b      	str	r3, [r7, #32]
	int8_t min_indx = -1;   //hrani indx razreda najbolj podobnega ref signala
   806ca:	23ff      	movs	r3, #255	; 0xff
   806cc:	77fb      	strb	r3, [r7, #31]
	float tmp_cost = 0;		//hrani trenutno vrednost podobnosti med neznanim in trenutnim ref signalom
   806ce:	f04f 0300 	mov.w	r3, #0
   806d2:	61bb      	str	r3, [r7, #24]

	/* dobimo vektor mfcc znacilk signala - velikost [signal_size/(HALF_WINDOW_SIZE)][MEL_COEFF] */
	float **signal_feat = signal2coeff(signal, signal_size);
   806d4:	897b      	ldrh	r3, [r7, #10]
   806d6:	68f8      	ldr	r0, [r7, #12]
   806d8:	4619      	mov	r1, r3
   806da:	f000 fb01 	bl	80ce0 <signal2coeff>
   806de:	6178      	str	r0, [r7, #20]


	const float *ref_feat;	//hrani znacilke trenutnega referencnega signala

	/* ga primerjamo z danimi referecnimi signali */
	for(i_class=0; i_class<ref_class_num; i_class++){   //med vsemimi razredi
   806e0:	2300      	movs	r3, #0
   806e2:	84fb      	strh	r3, [r7, #38]	; 0x26
   806e4:	e050      	b.n	80788 <compare+0xd8>
		for(j_ref=0; j_ref<ref_eq_num; j_ref++){		//med ref signali znotraj razreda
   806e6:	2300      	movs	r3, #0
   806e8:	84bb      	strh	r3, [r7, #36]	; 0x24
   806ea:	e042      	b.n	80772 <compare+0xc2>
			ref_feat = ref_signals[i_class*ref_eq_num + j_ref];		//znacilke trenutnega [i-ti razred][j-ti posnetek] referencnega signala
   806ec:	f9b7 3026 	ldrsh.w	r3, [r7, #38]	; 0x26
   806f0:	f897 2030 	ldrb.w	r2, [r7, #48]	; 0x30
   806f4:	fb02 f203 	mul.w	r2, r2, r3
   806f8:	f9b7 3024 	ldrsh.w	r3, [r7, #36]	; 0x24
   806fc:	4413      	add	r3, r2
   806fe:	009b      	lsls	r3, r3, #2
   80700:	687a      	ldr	r2, [r7, #4]
   80702:	4413      	add	r3, r2
   80704:	681b      	ldr	r3, [r3, #0]
   80706:	613b      	str	r3, [r7, #16]

			tmp_cost = dtwarp(signal_feat, signal_size/(HALF_WINDOW_SIZE), ref_feat, ref_signals_size[i_class*ref_eq_num + j_ref]);	//izracunamo podobnost med neznanim in trenutnim ref signalom
   80708:	897b      	ldrh	r3, [r7, #10]
   8070a:	4a38      	ldr	r2, [pc, #224]	; (807ec <compare+0x13c>)
   8070c:	fba2 2303 	umull	r2, r3, r2, r3
   80710:	09db      	lsrs	r3, r3, #7
   80712:	b299      	uxth	r1, r3
   80714:	f9b7 3026 	ldrsh.w	r3, [r7, #38]	; 0x26
   80718:	f897 2030 	ldrb.w	r2, [r7, #48]	; 0x30
   8071c:	fb02 f203 	mul.w	r2, r2, r3
   80720:	f9b7 3024 	ldrsh.w	r3, [r7, #36]	; 0x24
   80724:	4413      	add	r3, r2
   80726:	005b      	lsls	r3, r3, #1
   80728:	6b7a      	ldr	r2, [r7, #52]	; 0x34
   8072a:	4413      	add	r3, r2
   8072c:	881b      	ldrh	r3, [r3, #0]
   8072e:	6978      	ldr	r0, [r7, #20]
   80730:	693a      	ldr	r2, [r7, #16]
   80732:	f000 f861 	bl	807f8 <dtwarp>
   80736:	61b8      	str	r0, [r7, #24]

			/* razvrstitev neznanega vzorca po principu 1-NN */
			//ce je prvi ref signal, ga shranimo kot najbolj podobnega
			if(i_class==0 && j_ref==0){
   80738:	f9b7 3026 	ldrsh.w	r3, [r7, #38]	; 0x26
   8073c:	2b00      	cmp	r3, #0
   8073e:	d108      	bne.n	80752 <compare+0xa2>
   80740:	f9b7 3024 	ldrsh.w	r3, [r7, #36]	; 0x24
   80744:	2b00      	cmp	r3, #0
   80746:	d104      	bne.n	80752 <compare+0xa2>
				min_cost = tmp_cost;
   80748:	69bb      	ldr	r3, [r7, #24]
   8074a:	623b      	str	r3, [r7, #32]
				min_indx = i_class;
   8074c:	8cfb      	ldrh	r3, [r7, #38]	; 0x26
   8074e:	77fb      	strb	r3, [r7, #31]
   80750:	e00a      	b.n	80768 <compare+0xb8>
			}
			else{
				//drugace pa le, ce je bolj podobne kot trenutno najbolj podobni
				if(tmp_cost < min_cost){
   80752:	69b8      	ldr	r0, [r7, #24]
   80754:	6a39      	ldr	r1, [r7, #32]
   80756:	f005 f9c9 	bl	85aec <__aeabi_fcmplt>
   8075a:	4603      	mov	r3, r0
   8075c:	2b00      	cmp	r3, #0
   8075e:	d003      	beq.n	80768 <compare+0xb8>
					min_cost = tmp_cost;
   80760:	69bb      	ldr	r3, [r7, #24]
   80762:	623b      	str	r3, [r7, #32]
					min_indx = i_class;
   80764:	8cfb      	ldrh	r3, [r7, #38]	; 0x26
   80766:	77fb      	strb	r3, [r7, #31]

	const float *ref_feat;	//hrani znacilke trenutnega referencnega signala

	/* ga primerjamo z danimi referecnimi signali */
	for(i_class=0; i_class<ref_class_num; i_class++){   //med vsemimi razredi
		for(j_ref=0; j_ref<ref_eq_num; j_ref++){		//med ref signali znotraj razreda
   80768:	8cbb      	ldrh	r3, [r7, #36]	; 0x24
   8076a:	b29b      	uxth	r3, r3
   8076c:	3301      	adds	r3, #1
   8076e:	b29b      	uxth	r3, r3
   80770:	84bb      	strh	r3, [r7, #36]	; 0x24
   80772:	f9b7 2024 	ldrsh.w	r2, [r7, #36]	; 0x24
   80776:	f897 3030 	ldrb.w	r3, [r7, #48]	; 0x30
   8077a:	429a      	cmp	r2, r3
   8077c:	dbb6      	blt.n	806ec <compare+0x3c>


	const float *ref_feat;	//hrani znacilke trenutnega referencnega signala

	/* ga primerjamo z danimi referecnimi signali */
	for(i_class=0; i_class<ref_class_num; i_class++){   //med vsemimi razredi
   8077e:	8cfb      	ldrh	r3, [r7, #38]	; 0x26
   80780:	b29b      	uxth	r3, r3
   80782:	3301      	adds	r3, #1
   80784:	b29b      	uxth	r3, r3
   80786:	84fb      	strh	r3, [r7, #38]	; 0x26
   80788:	f9b7 2026 	ldrsh.w	r2, [r7, #38]	; 0x26
   8078c:	7a7b      	ldrb	r3, [r7, #9]
   8078e:	429a      	cmp	r2, r3
   80790:	dba9      	blt.n	806e6 <compare+0x36>
			}
		}
	}

	/* ce je tudi najbolj podoben signal bolj razlicen, kot pa je prag, vrnemo, da vzorca nismo uspeli razvrstiti */
	if(min_cost > MIN_SIMILARITY){
   80792:	6a38      	ldr	r0, [r7, #32]
   80794:	4916      	ldr	r1, [pc, #88]	; (807f0 <compare+0x140>)
   80796:	f005 f9c7 	bl	85b28 <__aeabi_fcmpgt>
   8079a:	4603      	mov	r3, r0
   8079c:	2b00      	cmp	r3, #0
   8079e:	d001      	beq.n	807a4 <compare+0xf4>
		min_indx = -1;
   807a0:	23ff      	movs	r3, #255	; 0xff
   807a2:	77fb      	strb	r3, [r7, #31]
	}

	/* sprostimo pomnilnik - nastal iz zancilk neznanega signala */
	for(i_class=0; i_class<signal_size/(HALF_WINDOW_SIZE); i_class++){
   807a4:	2300      	movs	r3, #0
   807a6:	84fb      	strh	r3, [r7, #38]	; 0x26
   807a8:	e00d      	b.n	807c6 <compare+0x116>
		free(signal_feat[i_class]);
   807aa:	f9b7 3026 	ldrsh.w	r3, [r7, #38]	; 0x26
   807ae:	009b      	lsls	r3, r3, #2
   807b0:	697a      	ldr	r2, [r7, #20]
   807b2:	4413      	add	r3, r2
   807b4:	681b      	ldr	r3, [r3, #0]
   807b6:	4618      	mov	r0, r3
   807b8:	f005 fa16 	bl	85be8 <free>
	if(min_cost > MIN_SIMILARITY){
		min_indx = -1;
	}

	/* sprostimo pomnilnik - nastal iz zancilk neznanega signala */
	for(i_class=0; i_class<signal_size/(HALF_WINDOW_SIZE); i_class++){
   807bc:	8cfb      	ldrh	r3, [r7, #38]	; 0x26
   807be:	b29b      	uxth	r3, r3
   807c0:	3301      	adds	r3, #1
   807c2:	b29b      	uxth	r3, r3
   807c4:	84fb      	strh	r3, [r7, #38]	; 0x26
   807c6:	f9b7 3026 	ldrsh.w	r3, [r7, #38]	; 0x26
   807ca:	897a      	ldrh	r2, [r7, #10]
   807cc:	4907      	ldr	r1, [pc, #28]	; (807ec <compare+0x13c>)
   807ce:	fba1 1202 	umull	r1, r2, r1, r2
   807d2:	09d2      	lsrs	r2, r2, #7
   807d4:	b292      	uxth	r2, r2
   807d6:	4293      	cmp	r3, r2
   807d8:	dbe7      	blt.n	807aa <compare+0xfa>
		free(signal_feat[i_class]);
	}
	free(signal_feat);
   807da:	6978      	ldr	r0, [r7, #20]
   807dc:	f005 fa04 	bl	85be8 <free>

	return min_indx;
   807e0:	7ffb      	ldrb	r3, [r7, #31]
   807e2:	b25b      	sxtb	r3, r3
}
   807e4:	4618      	mov	r0, r3
   807e6:	3728      	adds	r7, #40	; 0x28
   807e8:	46bd      	mov	sp, r7
   807ea:	bd80      	pop	{r7, pc}
   807ec:	aaaaaaab 	.word	0xaaaaaaab
   807f0:	41200000 	.word	0x41200000
   807f4:	00000000 	.word	0x00000000

000807f8 <dtwarp>:

/* dtwarp - vrne normirano vrednost podobnosti med vhodnim neznanim in referencnim signalom
*/
float dtwarp(float **signal, uint16_t signal_size, const float *ref, uint16_t ref_size){
   807f8:	b5b0      	push	{r4, r5, r7, lr}
   807fa:	b08c      	sub	sp, #48	; 0x30
   807fc:	af00      	add	r7, sp, #0
   807fe:	60f8      	str	r0, [r7, #12]
   80800:	607a      	str	r2, [r7, #4]
   80802:	461a      	mov	r2, r3
   80804:	460b      	mov	r3, r1
   80806:	817b      	strh	r3, [r7, #10]
   80808:	4613      	mov	r3, r2
   8080a:	813b      	strh	r3, [r7, #8]
	uint16_t i,j,k;
	float dmin=0;			//minimalna cena prehoda
   8080c:	f04f 0300 	mov.w	r3, #0
   80810:	627b      	str	r3, [r7, #36]	; 0x24
	float tmp=0;
   80812:	f04f 0300 	mov.w	r3, #0
   80816:	623b      	str	r3, [r7, #32]
	uint8_t tmp_smer = 0;		//trenutna smer prehoda
   80818:	2300      	movs	r3, #0
   8081a:	77fb      	strb	r3, [r7, #31]
	uint16_t dolzina = 1;	//dolzina najcenejse poti
   8081c:	2301      	movs	r3, #1
   8081e:	83bb      	strh	r3, [r7, #28]

	float **razdalje = (float **) malloc(sizeof(float*)*signal_size);   //matrika, ki hrani razdalje med zancilkami referencenga in neznanega signala
   80820:	897b      	ldrh	r3, [r7, #10]
   80822:	009b      	lsls	r3, r3, #2
   80824:	4618      	mov	r0, r3
   80826:	f005 f9d7 	bl	85bd8 <malloc>
   8082a:	4603      	mov	r3, r0
   8082c:	61bb      	str	r3, [r7, #24]
	uint8_t **prehod = (uint8_t **) malloc(sizeof(uint8_t*)*signal_size);   //matrika, ki hrani smer prehoda za najcenejsi prehod
   8082e:	897b      	ldrh	r3, [r7, #10]
   80830:	009b      	lsls	r3, r3, #2
   80832:	4618      	mov	r0, r3
   80834:	f005 f9d0 	bl	85bd8 <malloc>
   80838:	4603      	mov	r3, r0
   8083a:	617b      	str	r3, [r7, #20]
	for(i=0; i<signal_size; i++){
   8083c:	2300      	movs	r3, #0
   8083e:	85fb      	strh	r3, [r7, #46]	; 0x2e
   80840:	e017      	b.n	80872 <dtwarp+0x7a>
		razdalje[i] = (float *) malloc(sizeof(float)*ref_size);
   80842:	8dfb      	ldrh	r3, [r7, #46]	; 0x2e
   80844:	009b      	lsls	r3, r3, #2
   80846:	69ba      	ldr	r2, [r7, #24]
   80848:	18d4      	adds	r4, r2, r3
   8084a:	893b      	ldrh	r3, [r7, #8]
   8084c:	009b      	lsls	r3, r3, #2
   8084e:	4618      	mov	r0, r3
   80850:	f005 f9c2 	bl	85bd8 <malloc>
   80854:	4603      	mov	r3, r0
   80856:	6023      	str	r3, [r4, #0]
		prehod[i] = (uint8_t *) malloc(sizeof(uint8_t)*ref_size);
   80858:	8dfb      	ldrh	r3, [r7, #46]	; 0x2e
   8085a:	009b      	lsls	r3, r3, #2
   8085c:	697a      	ldr	r2, [r7, #20]
   8085e:	18d4      	adds	r4, r2, r3
   80860:	893b      	ldrh	r3, [r7, #8]
   80862:	4618      	mov	r0, r3
   80864:	f005 f9b8 	bl	85bd8 <malloc>
   80868:	4603      	mov	r3, r0
   8086a:	6023      	str	r3, [r4, #0]
	uint8_t tmp_smer = 0;		//trenutna smer prehoda
	uint16_t dolzina = 1;	//dolzina najcenejse poti

	float **razdalje = (float **) malloc(sizeof(float*)*signal_size);   //matrika, ki hrani razdalje med zancilkami referencenga in neznanega signala
	uint8_t **prehod = (uint8_t **) malloc(sizeof(uint8_t*)*signal_size);   //matrika, ki hrani smer prehoda za najcenejsi prehod
	for(i=0; i<signal_size; i++){
   8086c:	8dfb      	ldrh	r3, [r7, #46]	; 0x2e
   8086e:	3301      	adds	r3, #1
   80870:	85fb      	strh	r3, [r7, #46]	; 0x2e
   80872:	8dfa      	ldrh	r2, [r7, #46]	; 0x2e
   80874:	897b      	ldrh	r3, [r7, #10]
   80876:	429a      	cmp	r2, r3
   80878:	d3e3      	bcc.n	80842 <dtwarp+0x4a>
		razdalje[i] = (float *) malloc(sizeof(float)*ref_size);
		prehod[i] = (uint8_t *) malloc(sizeof(uint8_t)*ref_size);
	}

	//izracunamo vse (kvadrate) razdalje med znacilkami (hkrati prepisemo kar ) - ni treba tocno vseh (spremeni, ce bo prepocasi)
	i=0;
   8087a:	2300      	movs	r3, #0
   8087c:	85fb      	strh	r3, [r7, #46]	; 0x2e
	for(i=0; i<signal_size; i++){
   8087e:	2300      	movs	r3, #0
   80880:	85fb      	strh	r3, [r7, #46]	; 0x2e
   80882:	e0bf      	b.n	80a04 <dtwarp+0x20c>
		for(j=0; j<ref_size; j++){
   80884:	2300      	movs	r3, #0
   80886:	85bb      	strh	r3, [r7, #44]	; 0x2c
   80888:	e0b4      	b.n	809f4 <dtwarp+0x1fc>
			razdalje[i][j] = 0;
   8088a:	8dfb      	ldrh	r3, [r7, #46]	; 0x2e
   8088c:	009b      	lsls	r3, r3, #2
   8088e:	69ba      	ldr	r2, [r7, #24]
   80890:	4413      	add	r3, r2
   80892:	681a      	ldr	r2, [r3, #0]
   80894:	8dbb      	ldrh	r3, [r7, #44]	; 0x2c
   80896:	009b      	lsls	r3, r3, #2
   80898:	4413      	add	r3, r2
   8089a:	f04f 0200 	mov.w	r2, #0
   8089e:	601a      	str	r2, [r3, #0]
			prehod[i][j] = 0;
   808a0:	8dfb      	ldrh	r3, [r7, #46]	; 0x2e
   808a2:	009b      	lsls	r3, r3, #2
   808a4:	697a      	ldr	r2, [r7, #20]
   808a6:	4413      	add	r3, r2
   808a8:	681a      	ldr	r2, [r3, #0]
   808aa:	8dbb      	ldrh	r3, [r7, #44]	; 0x2c
   808ac:	4413      	add	r3, r2
   808ae:	2200      	movs	r2, #0
   808b0:	701a      	strb	r2, [r3, #0]
			for(k=0; k<MEL_COEFF; k++){
   808b2:	2300      	movs	r3, #0
   808b4:	857b      	strh	r3, [r7, #42]	; 0x2a
   808b6:	e096      	b.n	809e6 <dtwarp+0x1ee>
				tmp = signal[i][k]-ref[j*MEL_COEFF + k];
   808b8:	8dfb      	ldrh	r3, [r7, #46]	; 0x2e
   808ba:	009b      	lsls	r3, r3, #2
   808bc:	68fa      	ldr	r2, [r7, #12]
   808be:	4413      	add	r3, r2
   808c0:	681a      	ldr	r2, [r3, #0]
   808c2:	8d7b      	ldrh	r3, [r7, #42]	; 0x2a
   808c4:	009b      	lsls	r3, r3, #2
   808c6:	4413      	add	r3, r2
   808c8:	6819      	ldr	r1, [r3, #0]
   808ca:	8dba      	ldrh	r2, [r7, #44]	; 0x2c
   808cc:	4613      	mov	r3, r2
   808ce:	005b      	lsls	r3, r3, #1
   808d0:	4413      	add	r3, r2
   808d2:	009b      	lsls	r3, r3, #2
   808d4:	441a      	add	r2, r3
   808d6:	8d7b      	ldrh	r3, [r7, #42]	; 0x2a
   808d8:	4413      	add	r3, r2
   808da:	009b      	lsls	r3, r3, #2
   808dc:	687a      	ldr	r2, [r7, #4]
   808de:	4413      	add	r3, r2
   808e0:	681b      	ldr	r3, [r3, #0]
   808e2:	4608      	mov	r0, r1
   808e4:	4619      	mov	r1, r3
   808e6:	f004 fe59 	bl	8559c <__aeabi_fsub>
   808ea:	4603      	mov	r3, r0
   808ec:	623b      	str	r3, [r7, #32]

				if(tmp>1000 || tmp<-1000){
   808ee:	6a38      	ldr	r0, [r7, #32]
   808f0:	498f      	ldr	r1, [pc, #572]	; (80b30 <dtwarp+0x338>)
   808f2:	f005 f919 	bl	85b28 <__aeabi_fcmpgt>
   808f6:	4603      	mov	r3, r0
   808f8:	2b00      	cmp	r3, #0
   808fa:	d106      	bne.n	8090a <dtwarp+0x112>
   808fc:	6a38      	ldr	r0, [r7, #32]
   808fe:	498d      	ldr	r1, [pc, #564]	; (80b34 <dtwarp+0x33c>)
   80900:	f005 f8f4 	bl	85aec <__aeabi_fcmplt>
   80904:	4603      	mov	r3, r0
   80906:	2b00      	cmp	r3, #0
   80908:	d017      	beq.n	8093a <dtwarp+0x142>
					razdalje[i][j] += 1000000;
   8090a:	8dfb      	ldrh	r3, [r7, #46]	; 0x2e
   8090c:	009b      	lsls	r3, r3, #2
   8090e:	69ba      	ldr	r2, [r7, #24]
   80910:	4413      	add	r3, r2
   80912:	681a      	ldr	r2, [r3, #0]
   80914:	8dbb      	ldrh	r3, [r7, #44]	; 0x2c
   80916:	009b      	lsls	r3, r3, #2
   80918:	18d4      	adds	r4, r2, r3
   8091a:	8dfb      	ldrh	r3, [r7, #46]	; 0x2e
   8091c:	009b      	lsls	r3, r3, #2
   8091e:	69ba      	ldr	r2, [r7, #24]
   80920:	4413      	add	r3, r2
   80922:	681a      	ldr	r2, [r3, #0]
   80924:	8dbb      	ldrh	r3, [r7, #44]	; 0x2c
   80926:	009b      	lsls	r3, r3, #2
   80928:	4413      	add	r3, r2
   8092a:	681b      	ldr	r3, [r3, #0]
   8092c:	4618      	mov	r0, r3
   8092e:	4982      	ldr	r1, [pc, #520]	; (80b38 <dtwarp+0x340>)
   80930:	f004 fe36 	bl	855a0 <__addsf3>
   80934:	4603      	mov	r3, r0
   80936:	6023      	str	r3, [r4, #0]
   80938:	e052      	b.n	809e0 <dtwarp+0x1e8>
				}
				else if(tmp<0.01 && tmp>-0.01){
   8093a:	6a38      	ldr	r0, [r7, #32]
   8093c:	f004 faa4 	bl	84e88 <__aeabi_f2d>
   80940:	4602      	mov	r2, r0
   80942:	460b      	mov	r3, r1
   80944:	4610      	mov	r0, r2
   80946:	4619      	mov	r1, r3
   80948:	a375      	add	r3, pc, #468	; (adr r3, 80b20 <dtwarp+0x328>)
   8094a:	e9d3 2300 	ldrd	r2, r3, [r3]
   8094e:	f004 fd61 	bl	85414 <__aeabi_dcmplt>
   80952:	4603      	mov	r3, r0
   80954:	2b00      	cmp	r3, #0
   80956:	d027      	beq.n	809a8 <dtwarp+0x1b0>
   80958:	6a38      	ldr	r0, [r7, #32]
   8095a:	f004 fa95 	bl	84e88 <__aeabi_f2d>
   8095e:	4602      	mov	r2, r0
   80960:	460b      	mov	r3, r1
   80962:	4610      	mov	r0, r2
   80964:	4619      	mov	r1, r3
   80966:	a370      	add	r3, pc, #448	; (adr r3, 80b28 <dtwarp+0x330>)
   80968:	e9d3 2300 	ldrd	r2, r3, [r3]
   8096c:	f004 fd70 	bl	85450 <__aeabi_dcmpgt>
   80970:	4603      	mov	r3, r0
   80972:	2b00      	cmp	r3, #0
   80974:	d018      	beq.n	809a8 <dtwarp+0x1b0>
					razdalje[i][j] += 0;
   80976:	8dfb      	ldrh	r3, [r7, #46]	; 0x2e
   80978:	009b      	lsls	r3, r3, #2
   8097a:	69ba      	ldr	r2, [r7, #24]
   8097c:	4413      	add	r3, r2
   8097e:	681a      	ldr	r2, [r3, #0]
   80980:	8dbb      	ldrh	r3, [r7, #44]	; 0x2c
   80982:	009b      	lsls	r3, r3, #2
   80984:	18d4      	adds	r4, r2, r3
   80986:	8dfb      	ldrh	r3, [r7, #46]	; 0x2e
   80988:	009b      	lsls	r3, r3, #2
   8098a:	69ba      	ldr	r2, [r7, #24]
   8098c:	4413      	add	r3, r2
   8098e:	681a      	ldr	r2, [r3, #0]
   80990:	8dbb      	ldrh	r3, [r7, #44]	; 0x2c
   80992:	009b      	lsls	r3, r3, #2
   80994:	4413      	add	r3, r2
   80996:	681b      	ldr	r3, [r3, #0]
   80998:	4618      	mov	r0, r3
   8099a:	f04f 0100 	mov.w	r1, #0
   8099e:	f004 fdff 	bl	855a0 <__addsf3>
   809a2:	4603      	mov	r3, r0
   809a4:	6023      	str	r3, [r4, #0]
   809a6:	e01b      	b.n	809e0 <dtwarp+0x1e8>
				}
				else{
					razdalje[i][j] += tmp*tmp;
   809a8:	8dfb      	ldrh	r3, [r7, #46]	; 0x2e
   809aa:	009b      	lsls	r3, r3, #2
   809ac:	69ba      	ldr	r2, [r7, #24]
   809ae:	4413      	add	r3, r2
   809b0:	681a      	ldr	r2, [r3, #0]
   809b2:	8dbb      	ldrh	r3, [r7, #44]	; 0x2c
   809b4:	009b      	lsls	r3, r3, #2
   809b6:	18d4      	adds	r4, r2, r3
   809b8:	8dfb      	ldrh	r3, [r7, #46]	; 0x2e
   809ba:	009b      	lsls	r3, r3, #2
   809bc:	69ba      	ldr	r2, [r7, #24]
   809be:	4413      	add	r3, r2
   809c0:	681a      	ldr	r2, [r3, #0]
   809c2:	8dbb      	ldrh	r3, [r7, #44]	; 0x2c
   809c4:	009b      	lsls	r3, r3, #2
   809c6:	4413      	add	r3, r2
   809c8:	681d      	ldr	r5, [r3, #0]
   809ca:	6a38      	ldr	r0, [r7, #32]
   809cc:	6a39      	ldr	r1, [r7, #32]
   809ce:	f004 feef 	bl	857b0 <__aeabi_fmul>
   809d2:	4603      	mov	r3, r0
   809d4:	4628      	mov	r0, r5
   809d6:	4619      	mov	r1, r3
   809d8:	f004 fde2 	bl	855a0 <__addsf3>
   809dc:	4603      	mov	r3, r0
   809de:	6023      	str	r3, [r4, #0]
	i=0;
	for(i=0; i<signal_size; i++){
		for(j=0; j<ref_size; j++){
			razdalje[i][j] = 0;
			prehod[i][j] = 0;
			for(k=0; k<MEL_COEFF; k++){
   809e0:	8d7b      	ldrh	r3, [r7, #42]	; 0x2a
   809e2:	3301      	adds	r3, #1
   809e4:	857b      	strh	r3, [r7, #42]	; 0x2a
   809e6:	8d7b      	ldrh	r3, [r7, #42]	; 0x2a
   809e8:	2b0c      	cmp	r3, #12
   809ea:	f67f af65 	bls.w	808b8 <dtwarp+0xc0>
	}

	//izracunamo vse (kvadrate) razdalje med znacilkami (hkrati prepisemo kar ) - ni treba tocno vseh (spremeni, ce bo prepocasi)
	i=0;
	for(i=0; i<signal_size; i++){
		for(j=0; j<ref_size; j++){
   809ee:	8dbb      	ldrh	r3, [r7, #44]	; 0x2c
   809f0:	3301      	adds	r3, #1
   809f2:	85bb      	strh	r3, [r7, #44]	; 0x2c
   809f4:	8dba      	ldrh	r2, [r7, #44]	; 0x2c
   809f6:	893b      	ldrh	r3, [r7, #8]
   809f8:	429a      	cmp	r2, r3
   809fa:	f4ff af46 	bcc.w	8088a <dtwarp+0x92>
		prehod[i] = (uint8_t *) malloc(sizeof(uint8_t)*ref_size);
	}

	//izracunamo vse (kvadrate) razdalje med znacilkami (hkrati prepisemo kar ) - ni treba tocno vseh (spremeni, ce bo prepocasi)
	i=0;
	for(i=0; i<signal_size; i++){
   809fe:	8dfb      	ldrh	r3, [r7, #46]	; 0x2e
   80a00:	3301      	adds	r3, #1
   80a02:	85fb      	strh	r3, [r7, #46]	; 0x2e
   80a04:	8dfa      	ldrh	r2, [r7, #46]	; 0x2e
   80a06:	897b      	ldrh	r3, [r7, #10]
   80a08:	429a      	cmp	r2, r3
   80a0a:	f4ff af3b 	bcc.w	80884 <dtwarp+0x8c>
			}
		}
	}

	//poiscemo pot z najmanjso ceno
	for(i=0; i<signal_size; i++){
   80a0e:	2300      	movs	r3, #0
   80a10:	85fb      	strh	r3, [r7, #46]	; 0x2e
   80a12:	e0d0      	b.n	80bb6 <dtwarp+0x3be>
		for(j=0; j<ref_size; j++){
   80a14:	2300      	movs	r3, #0
   80a16:	85bb      	strh	r3, [r7, #44]	; 0x2c
   80a18:	e0c5      	b.n	80ba6 <dtwarp+0x3ae>
			//poiscemo najmanjsi mozen prehod
			if(i>0 && j>0){
   80a1a:	8dfb      	ldrh	r3, [r7, #46]	; 0x2e
   80a1c:	2b00      	cmp	r3, #0
   80a1e:	d069      	beq.n	80af4 <dtwarp+0x2fc>
   80a20:	8dbb      	ldrh	r3, [r7, #44]	; 0x2c
   80a22:	2b00      	cmp	r3, #0
   80a24:	d066      	beq.n	80af4 <dtwarp+0x2fc>
				if(razdalje[i-1][j] > razdalje[i][j-1]){
   80a26:	8dfb      	ldrh	r3, [r7, #46]	; 0x2e
   80a28:	f103 4380 	add.w	r3, r3, #1073741824	; 0x40000000
   80a2c:	3b01      	subs	r3, #1
   80a2e:	009b      	lsls	r3, r3, #2
   80a30:	69ba      	ldr	r2, [r7, #24]
   80a32:	4413      	add	r3, r2
   80a34:	681a      	ldr	r2, [r3, #0]
   80a36:	8dbb      	ldrh	r3, [r7, #44]	; 0x2c
   80a38:	009b      	lsls	r3, r3, #2
   80a3a:	4413      	add	r3, r2
   80a3c:	6819      	ldr	r1, [r3, #0]
   80a3e:	8dfb      	ldrh	r3, [r7, #46]	; 0x2e
   80a40:	009b      	lsls	r3, r3, #2
   80a42:	69ba      	ldr	r2, [r7, #24]
   80a44:	4413      	add	r3, r2
   80a46:	681a      	ldr	r2, [r3, #0]
   80a48:	8dbb      	ldrh	r3, [r7, #44]	; 0x2c
   80a4a:	f103 4380 	add.w	r3, r3, #1073741824	; 0x40000000
   80a4e:	3b01      	subs	r3, #1
   80a50:	009b      	lsls	r3, r3, #2
   80a52:	4413      	add	r3, r2
   80a54:	681b      	ldr	r3, [r3, #0]
   80a56:	4608      	mov	r0, r1
   80a58:	4619      	mov	r1, r3
   80a5a:	f005 f865 	bl	85b28 <__aeabi_fcmpgt>
   80a5e:	4603      	mov	r3, r0
   80a60:	2b00      	cmp	r3, #0
   80a62:	d00f      	beq.n	80a84 <dtwarp+0x28c>
					tmp = razdalje[i][j-1];
   80a64:	8dfb      	ldrh	r3, [r7, #46]	; 0x2e
   80a66:	009b      	lsls	r3, r3, #2
   80a68:	69ba      	ldr	r2, [r7, #24]
   80a6a:	4413      	add	r3, r2
   80a6c:	681a      	ldr	r2, [r3, #0]
   80a6e:	8dbb      	ldrh	r3, [r7, #44]	; 0x2c
   80a70:	f103 4380 	add.w	r3, r3, #1073741824	; 0x40000000
   80a74:	3b01      	subs	r3, #1
   80a76:	009b      	lsls	r3, r3, #2
   80a78:	4413      	add	r3, r2
   80a7a:	681b      	ldr	r3, [r3, #0]
   80a7c:	623b      	str	r3, [r7, #32]
					tmp_smer = 3;
   80a7e:	2303      	movs	r3, #3
   80a80:	77fb      	strb	r3, [r7, #31]
   80a82:	e00e      	b.n	80aa2 <dtwarp+0x2aa>
				}
				else{
					tmp = razdalje[i-1][j];
   80a84:	8dfb      	ldrh	r3, [r7, #46]	; 0x2e
   80a86:	f103 4380 	add.w	r3, r3, #1073741824	; 0x40000000
   80a8a:	3b01      	subs	r3, #1
   80a8c:	009b      	lsls	r3, r3, #2
   80a8e:	69ba      	ldr	r2, [r7, #24]
   80a90:	4413      	add	r3, r2
   80a92:	681a      	ldr	r2, [r3, #0]
   80a94:	8dbb      	ldrh	r3, [r7, #44]	; 0x2c
   80a96:	009b      	lsls	r3, r3, #2
   80a98:	4413      	add	r3, r2
   80a9a:	681b      	ldr	r3, [r3, #0]
   80a9c:	623b      	str	r3, [r7, #32]
					tmp_smer = 2;
   80a9e:	2302      	movs	r3, #2
   80aa0:	77fb      	strb	r3, [r7, #31]
				}
				if(tmp > razdalje[i-1][j-1]){
   80aa2:	8dfb      	ldrh	r3, [r7, #46]	; 0x2e
   80aa4:	f103 4380 	add.w	r3, r3, #1073741824	; 0x40000000
   80aa8:	3b01      	subs	r3, #1
   80aaa:	009b      	lsls	r3, r3, #2
   80aac:	69ba      	ldr	r2, [r7, #24]
   80aae:	4413      	add	r3, r2
   80ab0:	681a      	ldr	r2, [r3, #0]
   80ab2:	8dbb      	ldrh	r3, [r7, #44]	; 0x2c
   80ab4:	f103 4380 	add.w	r3, r3, #1073741824	; 0x40000000
   80ab8:	3b01      	subs	r3, #1
   80aba:	009b      	lsls	r3, r3, #2
   80abc:	4413      	add	r3, r2
   80abe:	681b      	ldr	r3, [r3, #0]
   80ac0:	4618      	mov	r0, r3
   80ac2:	6a39      	ldr	r1, [r7, #32]
   80ac4:	f005 f812 	bl	85aec <__aeabi_fcmplt>
   80ac8:	4603      	mov	r3, r0
   80aca:	2b00      	cmp	r3, #0
   80acc:	d048      	beq.n	80b60 <dtwarp+0x368>
					dmin = razdalje[i-1][j-1];
   80ace:	8dfb      	ldrh	r3, [r7, #46]	; 0x2e
   80ad0:	f103 4380 	add.w	r3, r3, #1073741824	; 0x40000000
   80ad4:	3b01      	subs	r3, #1
   80ad6:	009b      	lsls	r3, r3, #2
   80ad8:	69ba      	ldr	r2, [r7, #24]
   80ada:	4413      	add	r3, r2
   80adc:	681a      	ldr	r2, [r3, #0]
   80ade:	8dbb      	ldrh	r3, [r7, #44]	; 0x2c
   80ae0:	f103 4380 	add.w	r3, r3, #1073741824	; 0x40000000
   80ae4:	3b01      	subs	r3, #1
   80ae6:	009b      	lsls	r3, r3, #2
   80ae8:	4413      	add	r3, r2
   80aea:	681b      	ldr	r3, [r3, #0]
   80aec:	627b      	str	r3, [r7, #36]	; 0x24
					tmp_smer = 1;
   80aee:	2301      	movs	r3, #1
   80af0:	77fb      	strb	r3, [r7, #31]
				}
				else{
					tmp = razdalje[i-1][j];
					tmp_smer = 2;
				}
				if(tmp > razdalje[i-1][j-1]){
   80af2:	e035      	b.n	80b60 <dtwarp+0x368>
				}
				else{
					;
				}
			}
			else if(i>0){
   80af4:	8dfb      	ldrh	r3, [r7, #46]	; 0x2e
   80af6:	2b00      	cmp	r3, #0
   80af8:	d020      	beq.n	80b3c <dtwarp+0x344>
				tmp = razdalje[i-1][j];
   80afa:	8dfb      	ldrh	r3, [r7, #46]	; 0x2e
   80afc:	f103 4380 	add.w	r3, r3, #1073741824	; 0x40000000
   80b00:	3b01      	subs	r3, #1
   80b02:	009b      	lsls	r3, r3, #2
   80b04:	69ba      	ldr	r2, [r7, #24]
   80b06:	4413      	add	r3, r2
   80b08:	681a      	ldr	r2, [r3, #0]
   80b0a:	8dbb      	ldrh	r3, [r7, #44]	; 0x2c
   80b0c:	009b      	lsls	r3, r3, #2
   80b0e:	4413      	add	r3, r2
   80b10:	681b      	ldr	r3, [r3, #0]
   80b12:	623b      	str	r3, [r7, #32]
				tmp_smer = 2;
   80b14:	2302      	movs	r3, #2
   80b16:	77fb      	strb	r3, [r7, #31]
   80b18:	e022      	b.n	80b60 <dtwarp+0x368>
   80b1a:	bf00      	nop
   80b1c:	f3af 8000 	nop.w
   80b20:	47ae147b 	.word	0x47ae147b
   80b24:	3f847ae1 	.word	0x3f847ae1
   80b28:	47ae147b 	.word	0x47ae147b
   80b2c:	bf847ae1 	.word	0xbf847ae1
   80b30:	447a0000 	.word	0x447a0000
   80b34:	c47a0000 	.word	0xc47a0000
   80b38:	49742400 	.word	0x49742400
			}
			else if(j>0){
   80b3c:	8dbb      	ldrh	r3, [r7, #44]	; 0x2c
   80b3e:	2b00      	cmp	r3, #0
   80b40:	d00e      	beq.n	80b60 <dtwarp+0x368>
				tmp = razdalje[i][j-1];
   80b42:	8dfb      	ldrh	r3, [r7, #46]	; 0x2e
   80b44:	009b      	lsls	r3, r3, #2
   80b46:	69ba      	ldr	r2, [r7, #24]
   80b48:	4413      	add	r3, r2
   80b4a:	681a      	ldr	r2, [r3, #0]
   80b4c:	8dbb      	ldrh	r3, [r7, #44]	; 0x2c
   80b4e:	f103 4380 	add.w	r3, r3, #1073741824	; 0x40000000
   80b52:	3b01      	subs	r3, #1
   80b54:	009b      	lsls	r3, r3, #2
   80b56:	4413      	add	r3, r2
   80b58:	681b      	ldr	r3, [r3, #0]
   80b5a:	623b      	str	r3, [r7, #32]
				tmp_smer = 3;
   80b5c:	2303      	movs	r3, #3
   80b5e:	77fb      	strb	r3, [r7, #31]
			}

			razdalje[i][j] += dmin;
   80b60:	8dfb      	ldrh	r3, [r7, #46]	; 0x2e
   80b62:	009b      	lsls	r3, r3, #2
   80b64:	69ba      	ldr	r2, [r7, #24]
   80b66:	4413      	add	r3, r2
   80b68:	681a      	ldr	r2, [r3, #0]
   80b6a:	8dbb      	ldrh	r3, [r7, #44]	; 0x2c
   80b6c:	009b      	lsls	r3, r3, #2
   80b6e:	18d4      	adds	r4, r2, r3
   80b70:	8dfb      	ldrh	r3, [r7, #46]	; 0x2e
   80b72:	009b      	lsls	r3, r3, #2
   80b74:	69ba      	ldr	r2, [r7, #24]
   80b76:	4413      	add	r3, r2
   80b78:	681a      	ldr	r2, [r3, #0]
   80b7a:	8dbb      	ldrh	r3, [r7, #44]	; 0x2c
   80b7c:	009b      	lsls	r3, r3, #2
   80b7e:	4413      	add	r3, r2
   80b80:	681b      	ldr	r3, [r3, #0]
   80b82:	4618      	mov	r0, r3
   80b84:	6a79      	ldr	r1, [r7, #36]	; 0x24
   80b86:	f004 fd0b 	bl	855a0 <__addsf3>
   80b8a:	4603      	mov	r3, r0
   80b8c:	6023      	str	r3, [r4, #0]
			prehod[i][j] = tmp_smer;
   80b8e:	8dfb      	ldrh	r3, [r7, #46]	; 0x2e
   80b90:	009b      	lsls	r3, r3, #2
   80b92:	697a      	ldr	r2, [r7, #20]
   80b94:	4413      	add	r3, r2
   80b96:	681a      	ldr	r2, [r3, #0]
   80b98:	8dbb      	ldrh	r3, [r7, #44]	; 0x2c
   80b9a:	4413      	add	r3, r2
   80b9c:	7ffa      	ldrb	r2, [r7, #31]
   80b9e:	701a      	strb	r2, [r3, #0]
		}
	}

	//poiscemo pot z najmanjso ceno
	for(i=0; i<signal_size; i++){
		for(j=0; j<ref_size; j++){
   80ba0:	8dbb      	ldrh	r3, [r7, #44]	; 0x2c
   80ba2:	3301      	adds	r3, #1
   80ba4:	85bb      	strh	r3, [r7, #44]	; 0x2c
   80ba6:	8dba      	ldrh	r2, [r7, #44]	; 0x2c
   80ba8:	893b      	ldrh	r3, [r7, #8]
   80baa:	429a      	cmp	r2, r3
   80bac:	f4ff af35 	bcc.w	80a1a <dtwarp+0x222>
			}
		}
	}

	//poiscemo pot z najmanjso ceno
	for(i=0; i<signal_size; i++){
   80bb0:	8dfb      	ldrh	r3, [r7, #46]	; 0x2e
   80bb2:	3301      	adds	r3, #1
   80bb4:	85fb      	strh	r3, [r7, #46]	; 0x2e
   80bb6:	8dfa      	ldrh	r2, [r7, #46]	; 0x2e
   80bb8:	897b      	ldrh	r3, [r7, #10]
   80bba:	429a      	cmp	r2, r3
   80bbc:	f4ff af2a 	bcc.w	80a14 <dtwarp+0x21c>
			prehod[i][j] = tmp_smer;
		}
	}

	//poiscemo se dolzino najcenejse poti
	i = signal_size-1;
   80bc0:	897b      	ldrh	r3, [r7, #10]
   80bc2:	3b01      	subs	r3, #1
   80bc4:	85fb      	strh	r3, [r7, #46]	; 0x2e
	j = ref_size-1;
   80bc6:	893b      	ldrh	r3, [r7, #8]
   80bc8:	3b01      	subs	r3, #1
   80bca:	85bb      	strh	r3, [r7, #44]	; 0x2c
	while(i>0 && j>0){
   80bcc:	e026      	b.n	80c1c <dtwarp+0x424>
		switch(prehod[i][j]){
   80bce:	8dfb      	ldrh	r3, [r7, #46]	; 0x2e
   80bd0:	009b      	lsls	r3, r3, #2
   80bd2:	697a      	ldr	r2, [r7, #20]
   80bd4:	4413      	add	r3, r2
   80bd6:	681a      	ldr	r2, [r3, #0]
   80bd8:	8dbb      	ldrh	r3, [r7, #44]	; 0x2c
   80bda:	4413      	add	r3, r2
   80bdc:	781b      	ldrb	r3, [r3, #0]
   80bde:	2b02      	cmp	r3, #2
   80be0:	d00a      	beq.n	80bf8 <dtwarp+0x400>
   80be2:	2b03      	cmp	r3, #3
   80be4:	d00c      	beq.n	80c00 <dtwarp+0x408>
   80be6:	2b01      	cmp	r3, #1
   80be8:	d10e      	bne.n	80c08 <dtwarp+0x410>
			case 1:
				i--;
   80bea:	8dfb      	ldrh	r3, [r7, #46]	; 0x2e
   80bec:	3b01      	subs	r3, #1
   80bee:	85fb      	strh	r3, [r7, #46]	; 0x2e
				j--;
   80bf0:	8dbb      	ldrh	r3, [r7, #44]	; 0x2c
   80bf2:	3b01      	subs	r3, #1
   80bf4:	85bb      	strh	r3, [r7, #44]	; 0x2c
				break;
   80bf6:	e00e      	b.n	80c16 <dtwarp+0x41e>
			case 2:
				i--;
   80bf8:	8dfb      	ldrh	r3, [r7, #46]	; 0x2e
   80bfa:	3b01      	subs	r3, #1
   80bfc:	85fb      	strh	r3, [r7, #46]	; 0x2e
				break;
   80bfe:	e00a      	b.n	80c16 <dtwarp+0x41e>
			case 3:
				j--;
   80c00:	8dbb      	ldrh	r3, [r7, #44]	; 0x2c
   80c02:	3b01      	subs	r3, #1
   80c04:	85bb      	strh	r3, [r7, #44]	; 0x2c
				break;
   80c06:	e006      	b.n	80c16 <dtwarp+0x41e>
			default:
				i--;
   80c08:	8dfb      	ldrh	r3, [r7, #46]	; 0x2e
   80c0a:	3b01      	subs	r3, #1
   80c0c:	85fb      	strh	r3, [r7, #46]	; 0x2e
				j--;
   80c0e:	8dbb      	ldrh	r3, [r7, #44]	; 0x2c
   80c10:	3b01      	subs	r3, #1
   80c12:	85bb      	strh	r3, [r7, #44]	; 0x2c
				break;
   80c14:	bf00      	nop
		}
		dolzina++;
   80c16:	8bbb      	ldrh	r3, [r7, #28]
   80c18:	3301      	adds	r3, #1
   80c1a:	83bb      	strh	r3, [r7, #28]
	}

	//poiscemo se dolzino najcenejse poti
	i = signal_size-1;
	j = ref_size-1;
	while(i>0 && j>0){
   80c1c:	8dfb      	ldrh	r3, [r7, #46]	; 0x2e
   80c1e:	2b00      	cmp	r3, #0
   80c20:	d002      	beq.n	80c28 <dtwarp+0x430>
   80c22:	8dbb      	ldrh	r3, [r7, #44]	; 0x2c
   80c24:	2b00      	cmp	r3, #0
   80c26:	d1d2      	bne.n	80bce <dtwarp+0x3d6>
				break;
		}
		dolzina++;
	}

	tmp = razdalje[signal_size-1][ref_size-1];
   80c28:	897b      	ldrh	r3, [r7, #10]
   80c2a:	f103 4380 	add.w	r3, r3, #1073741824	; 0x40000000
   80c2e:	3b01      	subs	r3, #1
   80c30:	009b      	lsls	r3, r3, #2
   80c32:	69ba      	ldr	r2, [r7, #24]
   80c34:	4413      	add	r3, r2
   80c36:	681a      	ldr	r2, [r3, #0]
   80c38:	893b      	ldrh	r3, [r7, #8]
   80c3a:	f103 4380 	add.w	r3, r3, #1073741824	; 0x40000000
   80c3e:	3b01      	subs	r3, #1
   80c40:	009b      	lsls	r3, r3, #2
   80c42:	4413      	add	r3, r2
   80c44:	681b      	ldr	r3, [r3, #0]
   80c46:	623b      	str	r3, [r7, #32]
	if(tmp<0.01){
   80c48:	6a38      	ldr	r0, [r7, #32]
   80c4a:	f004 f91d 	bl	84e88 <__aeabi_f2d>
   80c4e:	4602      	mov	r2, r0
   80c50:	460b      	mov	r3, r1
   80c52:	4610      	mov	r0, r2
   80c54:	4619      	mov	r1, r3
   80c56:	a320      	add	r3, pc, #128	; (adr r3, 80cd8 <dtwarp+0x4e0>)
   80c58:	e9d3 2300 	ldrd	r2, r3, [r3]
   80c5c:	f004 fbda 	bl	85414 <__aeabi_dcmplt>
   80c60:	4603      	mov	r3, r0
   80c62:	2b00      	cmp	r3, #0
   80c64:	d003      	beq.n	80c6e <dtwarp+0x476>
		tmp=0;
   80c66:	f04f 0300 	mov.w	r3, #0
   80c6a:	623b      	str	r3, [r7, #32]
   80c6c:	e00d      	b.n	80c8a <dtwarp+0x492>
	}
	else{
		tmp = tmp/(dolzina*dolzina);//rezultat je najcenejsa pot normirana z dolzino te poti - kar s kvadratom dolzine, ker so razdalje kvadrati
   80c6e:	8bbb      	ldrh	r3, [r7, #28]
   80c70:	8bba      	ldrh	r2, [r7, #28]
   80c72:	fb02 f303 	mul.w	r3, r2, r3
   80c76:	4618      	mov	r0, r3
   80c78:	f004 fd46 	bl	85708 <__aeabi_i2f>
   80c7c:	4603      	mov	r3, r0
   80c7e:	6a38      	ldr	r0, [r7, #32]
   80c80:	4619      	mov	r1, r3
   80c82:	f004 fe49 	bl	85918 <__aeabi_fdiv>
   80c86:	4603      	mov	r3, r0
   80c88:	623b      	str	r3, [r7, #32]
	}


	for(i=0; i<signal_size; i++){
   80c8a:	2300      	movs	r3, #0
   80c8c:	85fb      	strh	r3, [r7, #46]	; 0x2e
   80c8e:	e012      	b.n	80cb6 <dtwarp+0x4be>
		free(razdalje[i]);
   80c90:	8dfb      	ldrh	r3, [r7, #46]	; 0x2e
   80c92:	009b      	lsls	r3, r3, #2
   80c94:	69ba      	ldr	r2, [r7, #24]
   80c96:	4413      	add	r3, r2
   80c98:	681b      	ldr	r3, [r3, #0]
   80c9a:	4618      	mov	r0, r3
   80c9c:	f004 ffa4 	bl	85be8 <free>
		free(prehod[i]);
   80ca0:	8dfb      	ldrh	r3, [r7, #46]	; 0x2e
   80ca2:	009b      	lsls	r3, r3, #2
   80ca4:	697a      	ldr	r2, [r7, #20]
   80ca6:	4413      	add	r3, r2
   80ca8:	681b      	ldr	r3, [r3, #0]
   80caa:	4618      	mov	r0, r3
   80cac:	f004 ff9c 	bl	85be8 <free>
	else{
		tmp = tmp/(dolzina*dolzina);//rezultat je najcenejsa pot normirana z dolzino te poti - kar s kvadratom dolzine, ker so razdalje kvadrati
	}


	for(i=0; i<signal_size; i++){
   80cb0:	8dfb      	ldrh	r3, [r7, #46]	; 0x2e
   80cb2:	3301      	adds	r3, #1
   80cb4:	85fb      	strh	r3, [r7, #46]	; 0x2e
   80cb6:	8dfa      	ldrh	r2, [r7, #46]	; 0x2e
   80cb8:	897b      	ldrh	r3, [r7, #10]
   80cba:	429a      	cmp	r2, r3
   80cbc:	d3e8      	bcc.n	80c90 <dtwarp+0x498>
		free(razdalje[i]);
		free(prehod[i]);
	}
	free(razdalje);
   80cbe:	69b8      	ldr	r0, [r7, #24]
   80cc0:	f004 ff92 	bl	85be8 <free>
	free(prehod);
   80cc4:	6978      	ldr	r0, [r7, #20]
   80cc6:	f004 ff8f 	bl	85be8 <free>

	return tmp;
   80cca:	6a3b      	ldr	r3, [r7, #32]
}
   80ccc:	4618      	mov	r0, r3
   80cce:	3730      	adds	r7, #48	; 0x30
   80cd0:	46bd      	mov	sp, r7
   80cd2:	bdb0      	pop	{r4, r5, r7, pc}
   80cd4:	f3af 8000 	nop.w
   80cd8:	47ae147b 	.word	0x47ae147b
   80cdc:	3f847ae1 	.word	0x3f847ae1

00080ce0 <signal2coeff>:

/* signal2coeff
*	 prejme kazalec na signal, za katerega izracuna koeficiente mel kepstruma
*	 vrne kazalec na zbirko nastalih, ki je dvodimenzonalna - [signal_size/WINDOW_SIZE][MEL_COEFF]
*/
float **signal2coeff(uint16_t *signal, uint16_t signal_size){
   80ce0:	b580      	push	{r7, lr}
   80ce2:	b08c      	sub	sp, #48	; 0x30
   80ce4:	af00      	add	r7, sp, #0
   80ce6:	6078      	str	r0, [r7, #4]
   80ce8:	460b      	mov	r3, r1
   80cea:	807b      	strh	r3, [r7, #2]

	uint16_t coeff_size = signal_size/(HALF_WINDOW_SIZE);	//stevilo dobljenih podoken (ker imamo 50% prekrivanje med zaporednima oknoma)
   80cec:	887b      	ldrh	r3, [r7, #2]
   80cee:	4a4f      	ldr	r2, [pc, #316]	; (80e2c <signal2coeff+0x14c>)
   80cf0:	fba2 2303 	umull	r2, r3, r2, r3
   80cf4:	09db      	lsrs	r3, r3, #7
   80cf6:	857b      	strh	r3, [r7, #42]	; 0x2a

	/* pripravimo zbriko za zancilke, veliksoti [signal_size/WINDOW_SIZE][MEL_COEFF] */
	float **coeff = (float**) malloc(sizeof(float*)*coeff_size);
   80cf8:	8d7b      	ldrh	r3, [r7, #42]	; 0x2a
   80cfa:	009b      	lsls	r3, r3, #2
   80cfc:	4618      	mov	r0, r3
   80cfe:	f004 ff6b 	bl	85bd8 <malloc>
   80d02:	4603      	mov	r3, r0
   80d04:	627b      	str	r3, [r7, #36]	; 0x24
	uint16_t i, j;

	/* signalu najprej odstejemo njegovo enosmerno komponento, da dobimo le ac signal */
	int16_t *ac_signal = signal2ac(signal, signal_size);
   80d06:	887b      	ldrh	r3, [r7, #2]
   80d08:	6878      	ldr	r0, [r7, #4]
   80d0a:	4619      	mov	r1, r3
   80d0c:	f000 f892 	bl	80e34 <signal2ac>
   80d10:	6238      	str	r0, [r7, #32]

	/* iz ac signala izluscimo posamicno okno, katero obdelamo - premikamo se po polovici okna naprej*/
	for(i=0; i<=signal_size-HALF_WINDOW_SIZE; i+=HALF_WINDOW_SIZE){
   80d12:	2300      	movs	r3, #0
   80d14:	85fb      	strh	r3, [r7, #46]	; 0x2e
   80d16:	e07b      	b.n	80e10 <signal2coeff+0x130>

		int16_t *windowed = (int16_t*) malloc(sizeof(int16_t)*FFT_SIZE);		//hrani trenutno okno, najvecje dolzine FFT_SIZE vzorcev (pomembno za fft kasneje)
   80d18:	f44f 6080 	mov.w	r0, #1024	; 0x400
   80d1c:	f004 ff5c 	bl	85bd8 <malloc>
   80d20:	4603      	mov	r3, r0
   80d22:	61fb      	str	r3, [r7, #28]

		/* okno mnozimo s Hannovim oknom */
		for(j=0; j<HALF_WINDOW_SIZE; j++){          //zaradi simetrije gremo le do polovice
   80d24:	2300      	movs	r3, #0
   80d26:	85bb      	strh	r3, [r7, #44]	; 0x2c
   80d28:	e039      	b.n	80d9e <signal2coeff+0xbe>

			int32_t tmp = (int32_t) (ac_signal[i+j]*Hann_window_coeff[j]);
   80d2a:	8dfa      	ldrh	r2, [r7, #46]	; 0x2e
   80d2c:	8dbb      	ldrh	r3, [r7, #44]	; 0x2c
   80d2e:	4413      	add	r3, r2
   80d30:	005b      	lsls	r3, r3, #1
   80d32:	6a3a      	ldr	r2, [r7, #32]
   80d34:	4413      	add	r3, r2
   80d36:	881b      	ldrh	r3, [r3, #0]
   80d38:	b21b      	sxth	r3, r3
   80d3a:	8dba      	ldrh	r2, [r7, #44]	; 0x2c
   80d3c:	493c      	ldr	r1, [pc, #240]	; (80e30 <signal2coeff+0x150>)
   80d3e:	f831 2012 	ldrh.w	r2, [r1, r2, lsl #1]
   80d42:	fb02 f303 	mul.w	r3, r2, r3
   80d46:	61bb      	str	r3, [r7, #24]
			tmp = (tmp>>16);
   80d48:	69bb      	ldr	r3, [r7, #24]
   80d4a:	141b      	asrs	r3, r3, #16
   80d4c:	61bb      	str	r3, [r7, #24]
			windowed[j] = (int16_t) tmp;
   80d4e:	8dbb      	ldrh	r3, [r7, #44]	; 0x2c
   80d50:	005b      	lsls	r3, r3, #1
   80d52:	69fa      	ldr	r2, [r7, #28]
   80d54:	4413      	add	r3, r2
   80d56:	69ba      	ldr	r2, [r7, #24]
   80d58:	b292      	uxth	r2, r2
   80d5a:	801a      	strh	r2, [r3, #0]

			tmp = (ac_signal[i+(WINDOW_SIZE-1)-j]*Hann_window_coeff[j]);
   80d5c:	8dfb      	ldrh	r3, [r7, #46]	; 0x2e
   80d5e:	f203 127f 	addw	r2, r3, #383	; 0x17f
   80d62:	8dbb      	ldrh	r3, [r7, #44]	; 0x2c
   80d64:	1ad3      	subs	r3, r2, r3
   80d66:	005b      	lsls	r3, r3, #1
   80d68:	6a3a      	ldr	r2, [r7, #32]
   80d6a:	4413      	add	r3, r2
   80d6c:	881b      	ldrh	r3, [r3, #0]
   80d6e:	b21b      	sxth	r3, r3
   80d70:	8dba      	ldrh	r2, [r7, #44]	; 0x2c
   80d72:	492f      	ldr	r1, [pc, #188]	; (80e30 <signal2coeff+0x150>)
   80d74:	f831 2012 	ldrh.w	r2, [r1, r2, lsl #1]
   80d78:	fb02 f303 	mul.w	r3, r2, r3
   80d7c:	61bb      	str	r3, [r7, #24]
			tmp = (tmp>>16);
   80d7e:	69bb      	ldr	r3, [r7, #24]
   80d80:	141b      	asrs	r3, r3, #16
   80d82:	61bb      	str	r3, [r7, #24]
			windowed[(WINDOW_SIZE-1)-j] = (int16_t) tmp;
   80d84:	8dbb      	ldrh	r3, [r7, #44]	; 0x2c
   80d86:	f5c3 73bf 	rsb	r3, r3, #382	; 0x17e
   80d8a:	3301      	adds	r3, #1
   80d8c:	005b      	lsls	r3, r3, #1
   80d8e:	69fa      	ldr	r2, [r7, #28]
   80d90:	4413      	add	r3, r2
   80d92:	69ba      	ldr	r2, [r7, #24]
   80d94:	b292      	uxth	r2, r2
   80d96:	801a      	strh	r2, [r3, #0]
	for(i=0; i<=signal_size-HALF_WINDOW_SIZE; i+=HALF_WINDOW_SIZE){

		int16_t *windowed = (int16_t*) malloc(sizeof(int16_t)*FFT_SIZE);		//hrani trenutno okno, najvecje dolzine FFT_SIZE vzorcev (pomembno za fft kasneje)

		/* okno mnozimo s Hannovim oknom */
		for(j=0; j<HALF_WINDOW_SIZE; j++){          //zaradi simetrije gremo le do polovice
   80d98:	8dbb      	ldrh	r3, [r7, #44]	; 0x2c
   80d9a:	3301      	adds	r3, #1
   80d9c:	85bb      	strh	r3, [r7, #44]	; 0x2c
   80d9e:	8dbb      	ldrh	r3, [r7, #44]	; 0x2c
   80da0:	2bbf      	cmp	r3, #191	; 0xbf
   80da2:	d9c2      	bls.n	80d2a <signal2coeff+0x4a>
		printf("\n\n\n");
*/

		/* dodamo nicle (zero padding) oknu, da bo dolzine 512 */

		for(j=0; j<FFT_SIZE-WINDOW_SIZE; j++){
   80da4:	2300      	movs	r3, #0
   80da6:	85bb      	strh	r3, [r7, #44]	; 0x2c
   80da8:	e00a      	b.n	80dc0 <signal2coeff+0xe0>
			windowed[WINDOW_SIZE+j] = 0;
   80daa:	8dbb      	ldrh	r3, [r7, #44]	; 0x2c
   80dac:	f503 73c0 	add.w	r3, r3, #384	; 0x180
   80db0:	005b      	lsls	r3, r3, #1
   80db2:	69fa      	ldr	r2, [r7, #28]
   80db4:	4413      	add	r3, r2
   80db6:	2200      	movs	r2, #0
   80db8:	801a      	strh	r2, [r3, #0]
		printf("\n\n\n");
*/

		/* dodamo nicle (zero padding) oknu, da bo dolzine 512 */

		for(j=0; j<FFT_SIZE-WINDOW_SIZE; j++){
   80dba:	8dbb      	ldrh	r3, [r7, #44]	; 0x2c
   80dbc:	3301      	adds	r3, #1
   80dbe:	85bb      	strh	r3, [r7, #44]	; 0x2c
   80dc0:	8dbb      	ldrh	r3, [r7, #44]	; 0x2c
   80dc2:	2b7f      	cmp	r3, #127	; 0x7f
   80dc4:	d9f1      	bls.n	80daa <signal2coeff+0xca>
			windowed[WINDOW_SIZE+j] = 0;
		}

		/* izracunamo mocnostni spekter oknjenega signala */
		float *power = fft512(windowed);
   80dc6:	69f8      	ldr	r0, [r7, #28]
   80dc8:	f000 f88a 	bl	80ee0 <fft512>
   80dcc:	6178      	str	r0, [r7, #20]
		free(windowed);
   80dce:	69f8      	ldr	r0, [r7, #28]
   80dd0:	f004 ff0a 	bl	85be8 <free>

      /*//////////////// VSE TESTIRANO Z MATLABOM IN DELA ODLICNO \\\\\\\\\\\\\\\\*/
      /*/////////////  edino power2mel nisem znal testirati - poglej!!! \\\\\\\\\\\\*/

		/* mocnostni spekter preslikamo na mel skalo - dobimo povprecne moci na odsekih mocnostnega spektra */
		float *mel = power2mel(power);
   80dd4:	6978      	ldr	r0, [r7, #20]
   80dd6:	f000 fb07 	bl	813e8 <power2mel>
   80dda:	6138      	str	r0, [r7, #16]
		free(power);
   80ddc:	6978      	ldr	r0, [r7, #20]
   80dde:	f004 ff03 	bl	85be8 <free>
		printf("\n\n\n");
*/


		/* na log10 signala iz povprecnih moci na mel lestvici izvedemo dct */
		float *window_features = mfcc(mel, MEL_FILTER_NUM, MEL_COEFF);
   80de2:	6938      	ldr	r0, [r7, #16]
   80de4:	2118      	movs	r1, #24
   80de6:	220d      	movs	r2, #13
   80de8:	f000 fbd6 	bl	81598 <mfcc>
   80dec:	60f8      	str	r0, [r7, #12]
		free(mel);
   80dee:	6938      	ldr	r0, [r7, #16]
   80df0:	f004 fefa 	bl	85be8 <free>
		}
		printf("\n\n\n");
*/

		/* sharnimo kazalec na znacilke trenutnega okna na ustrezno mesto */
		coeff[i/(HALF_WINDOW_SIZE)] = window_features;
   80df4:	8dfb      	ldrh	r3, [r7, #46]	; 0x2e
   80df6:	4a0d      	ldr	r2, [pc, #52]	; (80e2c <signal2coeff+0x14c>)
   80df8:	fba2 2303 	umull	r2, r3, r2, r3
   80dfc:	09db      	lsrs	r3, r3, #7
   80dfe:	b29b      	uxth	r3, r3
   80e00:	009b      	lsls	r3, r3, #2
   80e02:	6a7a      	ldr	r2, [r7, #36]	; 0x24
   80e04:	4413      	add	r3, r2
   80e06:	68fa      	ldr	r2, [r7, #12]
   80e08:	601a      	str	r2, [r3, #0]

	/* signalu najprej odstejemo njegovo enosmerno komponento, da dobimo le ac signal */
	int16_t *ac_signal = signal2ac(signal, signal_size);

	/* iz ac signala izluscimo posamicno okno, katero obdelamo - premikamo se po polovici okna naprej*/
	for(i=0; i<=signal_size-HALF_WINDOW_SIZE; i+=HALF_WINDOW_SIZE){
   80e0a:	8dfb      	ldrh	r3, [r7, #46]	; 0x2e
   80e0c:	33c0      	adds	r3, #192	; 0xc0
   80e0e:	85fb      	strh	r3, [r7, #46]	; 0x2e
   80e10:	8dfa      	ldrh	r2, [r7, #46]	; 0x2e
   80e12:	887b      	ldrh	r3, [r7, #2]
   80e14:	3bc0      	subs	r3, #192	; 0xc0
   80e16:	429a      	cmp	r2, r3
   80e18:	f77f af7e 	ble.w	80d18 <signal2coeff+0x38>

		/* sharnimo kazalec na znacilke trenutnega okna na ustrezno mesto */
		coeff[i/(HALF_WINDOW_SIZE)] = window_features;
	}

	free(ac_signal);
   80e1c:	6a38      	ldr	r0, [r7, #32]
   80e1e:	f004 fee3 	bl	85be8 <free>

	return coeff;
   80e22:	6a7b      	ldr	r3, [r7, #36]	; 0x24
}
   80e24:	4618      	mov	r0, r3
   80e26:	3730      	adds	r7, #48	; 0x30
   80e28:	46bd      	mov	sp, r7
   80e2a:	bd80      	pop	{r7, pc}
   80e2c:	aaaaaaab 	.word	0xaaaaaaab
   80e30:	00086508 	.word	0x00086508

00080e34 <signal2ac>:

/* signal2ac prejme signal, iz katerega izlusci le izmenicen del - tako da izracuna povprecje in ga odsteje od signala
*    vrne kazalec na novo ustvarjen signal, ki vsebuje le ac del
*/
int16_t *signal2ac(uint16_t *signal, uint16_t signal_size){
   80e34:	b580      	push	{r7, lr}
   80e36:	b086      	sub	sp, #24
   80e38:	af00      	add	r7, sp, #0
   80e3a:	6078      	str	r0, [r7, #4]
   80e3c:	460b      	mov	r3, r1
   80e3e:	807b      	strh	r3, [r7, #2]
	uint16_t i;
	float vsota=0;
   80e40:	f04f 0300 	mov.w	r3, #0
   80e44:	613b      	str	r3, [r7, #16]
	uint16_t povprecje;

	int16_t *ac_signal = (int16_t*) malloc(sizeof(int16_t)*signal_size);
   80e46:	887b      	ldrh	r3, [r7, #2]
   80e48:	005b      	lsls	r3, r3, #1
   80e4a:	4618      	mov	r0, r3
   80e4c:	f004 fec4 	bl	85bd8 <malloc>
   80e50:	4603      	mov	r3, r0
   80e52:	60fb      	str	r3, [r7, #12]

	for(i=0; i<signal_size; i++){
   80e54:	2300      	movs	r3, #0
   80e56:	82fb      	strh	r3, [r7, #22]
   80e58:	e011      	b.n	80e7e <signal2ac+0x4a>
		vsota += signal[i];
   80e5a:	8afb      	ldrh	r3, [r7, #22]
   80e5c:	005b      	lsls	r3, r3, #1
   80e5e:	687a      	ldr	r2, [r7, #4]
   80e60:	4413      	add	r3, r2
   80e62:	881b      	ldrh	r3, [r3, #0]
   80e64:	4618      	mov	r0, r3
   80e66:	f004 fc4f 	bl	85708 <__aeabi_i2f>
   80e6a:	4603      	mov	r3, r0
   80e6c:	6938      	ldr	r0, [r7, #16]
   80e6e:	4619      	mov	r1, r3
   80e70:	f004 fb96 	bl	855a0 <__addsf3>
   80e74:	4603      	mov	r3, r0
   80e76:	613b      	str	r3, [r7, #16]
	float vsota=0;
	uint16_t povprecje;

	int16_t *ac_signal = (int16_t*) malloc(sizeof(int16_t)*signal_size);

	for(i=0; i<signal_size; i++){
   80e78:	8afb      	ldrh	r3, [r7, #22]
   80e7a:	3301      	adds	r3, #1
   80e7c:	82fb      	strh	r3, [r7, #22]
   80e7e:	8afa      	ldrh	r2, [r7, #22]
   80e80:	887b      	ldrh	r3, [r7, #2]
   80e82:	429a      	cmp	r2, r3
   80e84:	d3e9      	bcc.n	80e5a <signal2ac+0x26>
		vsota += signal[i];
	}

	povprecje = vsota/signal_size;
   80e86:	887b      	ldrh	r3, [r7, #2]
   80e88:	4618      	mov	r0, r3
   80e8a:	f004 fc3d 	bl	85708 <__aeabi_i2f>
   80e8e:	4603      	mov	r3, r0
   80e90:	6938      	ldr	r0, [r7, #16]
   80e92:	4619      	mov	r1, r3
   80e94:	f004 fd40 	bl	85918 <__aeabi_fdiv>
   80e98:	4603      	mov	r3, r0
   80e9a:	4618      	mov	r0, r3
   80e9c:	f004 fe4e 	bl	85b3c <__aeabi_f2uiz>
   80ea0:	4603      	mov	r3, r0
   80ea2:	817b      	strh	r3, [r7, #10]

	for(i=0; i<signal_size; i++){
   80ea4:	2300      	movs	r3, #0
   80ea6:	82fb      	strh	r3, [r7, #22]
   80ea8:	e010      	b.n	80ecc <signal2ac+0x98>
		ac_signal[i] = (int16_t) (signal[i]-povprecje);
   80eaa:	8afb      	ldrh	r3, [r7, #22]
   80eac:	005b      	lsls	r3, r3, #1
   80eae:	68fa      	ldr	r2, [r7, #12]
   80eb0:	4413      	add	r3, r2
   80eb2:	8afa      	ldrh	r2, [r7, #22]
   80eb4:	0052      	lsls	r2, r2, #1
   80eb6:	6879      	ldr	r1, [r7, #4]
   80eb8:	440a      	add	r2, r1
   80eba:	8811      	ldrh	r1, [r2, #0]
   80ebc:	897a      	ldrh	r2, [r7, #10]
   80ebe:	1a8a      	subs	r2, r1, r2
   80ec0:	b292      	uxth	r2, r2
   80ec2:	b292      	uxth	r2, r2
   80ec4:	801a      	strh	r2, [r3, #0]
		vsota += signal[i];
	}

	povprecje = vsota/signal_size;

	for(i=0; i<signal_size; i++){
   80ec6:	8afb      	ldrh	r3, [r7, #22]
   80ec8:	3301      	adds	r3, #1
   80eca:	82fb      	strh	r3, [r7, #22]
   80ecc:	8afa      	ldrh	r2, [r7, #22]
   80ece:	887b      	ldrh	r3, [r7, #2]
   80ed0:	429a      	cmp	r2, r3
   80ed2:	d3ea      	bcc.n	80eaa <signal2ac+0x76>
		ac_signal[i] = (int16_t) (signal[i]-povprecje);
	}

	return ac_signal;
   80ed4:	68fb      	ldr	r3, [r7, #12]
}
   80ed6:	4618      	mov	r0, r3
   80ed8:	3718      	adds	r7, #24
   80eda:	46bd      	mov	sp, r7
   80edc:	bd80      	pop	{r7, pc}
   80ede:	bf00      	nop

00080ee0 <fft512>:


/* fft512 izracuna mocnostni spekter enega okna, podanega v real_signal - predpostavlja dolzino okna 512 vzorcev (po potrebi prej zero padding)
*   vrne kazalec na zbirko mocnostgnega signala
*/
float *fft512(int16_t *real_signal){
   80ee0:	b5b0      	push	{r4, r5, r7, lr}
   80ee2:	b086      	sub	sp, #24
   80ee4:	af00      	add	r7, sp, #0
   80ee6:	6078      	str	r0, [r7, #4]

	cplx *out = (cplx*) malloc(sizeof(cplx)*FFT_SIZE);		//kompleksen signal, ki predstavlja izhod fft-ja
   80ee8:	f44f 5080 	mov.w	r0, #4096	; 0x1000
   80eec:	f004 fe74 	bl	85bd8 <malloc>
   80ef0:	4603      	mov	r3, r0
   80ef2:	613b      	str	r3, [r7, #16]

	_fft(real_signal, out, FFT_SIZE);
   80ef4:	6878      	ldr	r0, [r7, #4]
   80ef6:	6939      	ldr	r1, [r7, #16]
   80ef8:	f44f 7200 	mov.w	r2, #512	; 0x200
   80efc:	f000 f85c 	bl	80fb8 <_fft>

	float *power = (float*) malloc(sizeof(float)*FFT_SIZE);	//mocnostni spekter vhodnega signala
   80f00:	f44f 6000 	mov.w	r0, #2048	; 0x800
   80f04:	f004 fe68 	bl	85bd8 <malloc>
   80f08:	4603      	mov	r3, r0
   80f0a:	60fb      	str	r3, [r7, #12]

	for(int i=0; i<FFT_SIZE; i++){
   80f0c:	2300      	movs	r3, #0
   80f0e:	617b      	str	r3, [r7, #20]
   80f10:	e045      	b.n	80f9e <fft512+0xbe>
		//printf("%.1f, %.1f\n", out[i].r,out[i].i);
		power[i] = (out[i].r/FFT_SIZE*out[i].r/FFT_SIZE + out[i].i/FFT_SIZE*out[i].i/FFT_SIZE);	//izracunamo moc spektra kot re^2+im^2
   80f12:	697b      	ldr	r3, [r7, #20]
   80f14:	009b      	lsls	r3, r3, #2
   80f16:	68fa      	ldr	r2, [r7, #12]
   80f18:	18d4      	adds	r4, r2, r3
   80f1a:	697b      	ldr	r3, [r7, #20]
   80f1c:	00db      	lsls	r3, r3, #3
   80f1e:	693a      	ldr	r2, [r7, #16]
   80f20:	4413      	add	r3, r2
   80f22:	681b      	ldr	r3, [r3, #0]
   80f24:	4618      	mov	r0, r3
   80f26:	f04f 4188 	mov.w	r1, #1140850688	; 0x44000000
   80f2a:	f004 fcf5 	bl	85918 <__aeabi_fdiv>
   80f2e:	4603      	mov	r3, r0
   80f30:	4619      	mov	r1, r3
   80f32:	697b      	ldr	r3, [r7, #20]
   80f34:	00db      	lsls	r3, r3, #3
   80f36:	693a      	ldr	r2, [r7, #16]
   80f38:	4413      	add	r3, r2
   80f3a:	681b      	ldr	r3, [r3, #0]
   80f3c:	4608      	mov	r0, r1
   80f3e:	4619      	mov	r1, r3
   80f40:	f004 fc36 	bl	857b0 <__aeabi_fmul>
   80f44:	4603      	mov	r3, r0
   80f46:	4618      	mov	r0, r3
   80f48:	f04f 4188 	mov.w	r1, #1140850688	; 0x44000000
   80f4c:	f004 fce4 	bl	85918 <__aeabi_fdiv>
   80f50:	4603      	mov	r3, r0
   80f52:	461d      	mov	r5, r3
   80f54:	697b      	ldr	r3, [r7, #20]
   80f56:	00db      	lsls	r3, r3, #3
   80f58:	693a      	ldr	r2, [r7, #16]
   80f5a:	4413      	add	r3, r2
   80f5c:	685b      	ldr	r3, [r3, #4]
   80f5e:	4618      	mov	r0, r3
   80f60:	f04f 4188 	mov.w	r1, #1140850688	; 0x44000000
   80f64:	f004 fcd8 	bl	85918 <__aeabi_fdiv>
   80f68:	4603      	mov	r3, r0
   80f6a:	4619      	mov	r1, r3
   80f6c:	697b      	ldr	r3, [r7, #20]
   80f6e:	00db      	lsls	r3, r3, #3
   80f70:	693a      	ldr	r2, [r7, #16]
   80f72:	4413      	add	r3, r2
   80f74:	685b      	ldr	r3, [r3, #4]
   80f76:	4608      	mov	r0, r1
   80f78:	4619      	mov	r1, r3
   80f7a:	f004 fc19 	bl	857b0 <__aeabi_fmul>
   80f7e:	4603      	mov	r3, r0
   80f80:	4618      	mov	r0, r3
   80f82:	f04f 4188 	mov.w	r1, #1140850688	; 0x44000000
   80f86:	f004 fcc7 	bl	85918 <__aeabi_fdiv>
   80f8a:	4603      	mov	r3, r0
   80f8c:	4628      	mov	r0, r5
   80f8e:	4619      	mov	r1, r3
   80f90:	f004 fb06 	bl	855a0 <__addsf3>
   80f94:	4603      	mov	r3, r0
   80f96:	6023      	str	r3, [r4, #0]

	_fft(real_signal, out, FFT_SIZE);

	float *power = (float*) malloc(sizeof(float)*FFT_SIZE);	//mocnostni spekter vhodnega signala

	for(int i=0; i<FFT_SIZE; i++){
   80f98:	697b      	ldr	r3, [r7, #20]
   80f9a:	3301      	adds	r3, #1
   80f9c:	617b      	str	r3, [r7, #20]
   80f9e:	697b      	ldr	r3, [r7, #20]
   80fa0:	f5b3 7f00 	cmp.w	r3, #512	; 0x200
   80fa4:	dbb5      	blt.n	80f12 <fft512+0x32>
		//printf("%.1f, %.1f\n", out[i].r,out[i].i);
		power[i] = (out[i].r/FFT_SIZE*out[i].r/FFT_SIZE + out[i].i/FFT_SIZE*out[i].i/FFT_SIZE);	//izracunamo moc spektra kot re^2+im^2
		//printf("%8.1f \n", power[i]);
	}

	free(out);
   80fa6:	6938      	ldr	r0, [r7, #16]
   80fa8:	f004 fe1e 	bl	85be8 <free>

	return power;
   80fac:	68fb      	ldr	r3, [r7, #12]
}
   80fae:	4618      	mov	r0, r3
   80fb0:	3718      	adds	r7, #24
   80fb2:	46bd      	mov	sp, r7
   80fb4:	bdb0      	pop	{r4, r5, r7, pc}
   80fb6:	bf00      	nop

00080fb8 <_fft>:

/* _fft izracuna fft signala in; za izracun je uporabljena moja implementacija Radix-2 algortima
*	 fft signala se shrani v out
*/
void _fft(int16_t *in, cplx *out, uint16_t N){
   80fb8:	e92d 4fb0 	stmdb	sp!, {r4, r5, r7, r8, r9, sl, fp, lr}
   80fbc:	b08c      	sub	sp, #48	; 0x30
   80fbe:	af00      	add	r7, sp, #0
   80fc0:	60f8      	str	r0, [r7, #12]
   80fc2:	60b9      	str	r1, [r7, #8]
   80fc4:	4613      	mov	r3, r2
   80fc6:	80fb      	strh	r3, [r7, #6]
	cplx *oute, *outo;
	int16_t *ine, *ino;

	cplx tmp;

	if(N==1){
   80fc8:	88fb      	ldrh	r3, [r7, #6]
   80fca:	2b01      	cmp	r3, #1
   80fcc:	d10d      	bne.n	80fea <_fft+0x32>
		out[0].r=in[0];
   80fce:	68fb      	ldr	r3, [r7, #12]
   80fd0:	881b      	ldrh	r3, [r3, #0]
   80fd2:	b21b      	sxth	r3, r3
   80fd4:	4618      	mov	r0, r3
   80fd6:	f004 fb97 	bl	85708 <__aeabi_i2f>
   80fda:	4602      	mov	r2, r0
   80fdc:	68bb      	ldr	r3, [r7, #8]
   80fde:	601a      	str	r2, [r3, #0]
		out[0].i=0;
   80fe0:	68bb      	ldr	r3, [r7, #8]
   80fe2:	f04f 0200 	mov.w	r2, #0
   80fe6:	605a      	str	r2, [r3, #4]
   80fe8:	e1f4      	b.n	813d4 <_fft+0x41c>
	}
	else{

		oute = (cplx *) malloc(sizeof(cplx)*N/2);
   80fea:	88fb      	ldrh	r3, [r7, #6]
   80fec:	00db      	lsls	r3, r3, #3
   80fee:	085b      	lsrs	r3, r3, #1
   80ff0:	4618      	mov	r0, r3
   80ff2:	f004 fdf1 	bl	85bd8 <malloc>
   80ff6:	4603      	mov	r3, r0
   80ff8:	62bb      	str	r3, [r7, #40]	; 0x28
		outo = (cplx *) malloc(sizeof(cplx)*N/2);
   80ffa:	88fb      	ldrh	r3, [r7, #6]
   80ffc:	00db      	lsls	r3, r3, #3
   80ffe:	085b      	lsrs	r3, r3, #1
   81000:	4618      	mov	r0, r3
   81002:	f004 fde9 	bl	85bd8 <malloc>
   81006:	4603      	mov	r3, r0
   81008:	627b      	str	r3, [r7, #36]	; 0x24

		ine = (int16_t *) malloc(sizeof(int16_t)*N/2);
   8100a:	88fb      	ldrh	r3, [r7, #6]
   8100c:	005b      	lsls	r3, r3, #1
   8100e:	085b      	lsrs	r3, r3, #1
   81010:	4618      	mov	r0, r3
   81012:	f004 fde1 	bl	85bd8 <malloc>
   81016:	4603      	mov	r3, r0
   81018:	623b      	str	r3, [r7, #32]
		ino = (int16_t *) malloc(sizeof(int16_t)*N/2);
   8101a:	88fb      	ldrh	r3, [r7, #6]
   8101c:	005b      	lsls	r3, r3, #1
   8101e:	085b      	lsrs	r3, r3, #1
   81020:	4618      	mov	r0, r3
   81022:	f004 fdd9 	bl	85bd8 <malloc>
   81026:	4603      	mov	r3, r0
   81028:	61fb      	str	r3, [r7, #28]

		for(i=0; i<N/2; i++){
   8102a:	2300      	movs	r3, #0
   8102c:	62fb      	str	r3, [r7, #44]	; 0x2c
   8102e:	e018      	b.n	81062 <_fft+0xaa>
			ine[i] = in[2*i];
   81030:	6afb      	ldr	r3, [r7, #44]	; 0x2c
   81032:	005b      	lsls	r3, r3, #1
   81034:	6a3a      	ldr	r2, [r7, #32]
   81036:	4413      	add	r3, r2
   81038:	6afa      	ldr	r2, [r7, #44]	; 0x2c
   8103a:	0092      	lsls	r2, r2, #2
   8103c:	4611      	mov	r1, r2
   8103e:	68fa      	ldr	r2, [r7, #12]
   81040:	440a      	add	r2, r1
   81042:	8812      	ldrh	r2, [r2, #0]
   81044:	801a      	strh	r2, [r3, #0]
			ino[i] = in[2*i+1];
   81046:	6afb      	ldr	r3, [r7, #44]	; 0x2c
   81048:	005b      	lsls	r3, r3, #1
   8104a:	69fa      	ldr	r2, [r7, #28]
   8104c:	4413      	add	r3, r2
   8104e:	6afa      	ldr	r2, [r7, #44]	; 0x2c
   81050:	0092      	lsls	r2, r2, #2
   81052:	3202      	adds	r2, #2
   81054:	68f9      	ldr	r1, [r7, #12]
   81056:	440a      	add	r2, r1
   81058:	8812      	ldrh	r2, [r2, #0]
   8105a:	801a      	strh	r2, [r3, #0]
		outo = (cplx *) malloc(sizeof(cplx)*N/2);

		ine = (int16_t *) malloc(sizeof(int16_t)*N/2);
		ino = (int16_t *) malloc(sizeof(int16_t)*N/2);

		for(i=0; i<N/2; i++){
   8105c:	6afb      	ldr	r3, [r7, #44]	; 0x2c
   8105e:	3301      	adds	r3, #1
   81060:	62fb      	str	r3, [r7, #44]	; 0x2c
   81062:	88fb      	ldrh	r3, [r7, #6]
   81064:	085b      	lsrs	r3, r3, #1
   81066:	b29b      	uxth	r3, r3
   81068:	461a      	mov	r2, r3
   8106a:	6afb      	ldr	r3, [r7, #44]	; 0x2c
   8106c:	429a      	cmp	r2, r3
   8106e:	dcdf      	bgt.n	81030 <_fft+0x78>
			ine[i] = in[2*i];
			ino[i] = in[2*i+1];
		}

		_fft(ine, oute, N/2);
   81070:	88fb      	ldrh	r3, [r7, #6]
   81072:	085b      	lsrs	r3, r3, #1
   81074:	b29b      	uxth	r3, r3
   81076:	6a38      	ldr	r0, [r7, #32]
   81078:	6ab9      	ldr	r1, [r7, #40]	; 0x28
   8107a:	461a      	mov	r2, r3
   8107c:	f7ff ff9c 	bl	80fb8 <_fft>
		_fft(ino, outo, N/2);
   81080:	88fb      	ldrh	r3, [r7, #6]
   81082:	085b      	lsrs	r3, r3, #1
   81084:	b29b      	uxth	r3, r3
   81086:	69f8      	ldr	r0, [r7, #28]
   81088:	6a79      	ldr	r1, [r7, #36]	; 0x24
   8108a:	461a      	mov	r2, r3
   8108c:	f7ff ff94 	bl	80fb8 <_fft>

		for(i=0; i<N/2; i++){
   81090:	2300      	movs	r3, #0
   81092:	62fb      	str	r3, [r7, #44]	; 0x2c
   81094:	e18a      	b.n	813ac <_fft+0x3f4>
			tmp.r = oute[i].r;
   81096:	6afb      	ldr	r3, [r7, #44]	; 0x2c
   81098:	00db      	lsls	r3, r3, #3
   8109a:	6aba      	ldr	r2, [r7, #40]	; 0x28
   8109c:	4413      	add	r3, r2
   8109e:	681b      	ldr	r3, [r3, #0]
   810a0:	613b      	str	r3, [r7, #16]
			tmp.i = oute[i].i;
   810a2:	6afb      	ldr	r3, [r7, #44]	; 0x2c
   810a4:	00db      	lsls	r3, r3, #3
   810a6:	6aba      	ldr	r2, [r7, #40]	; 0x28
   810a8:	4413      	add	r3, r2
   810aa:	685b      	ldr	r3, [r3, #4]
   810ac:	617b      	str	r3, [r7, #20]

			fi = 2*Pi*i/N;
   810ae:	6af8      	ldr	r0, [r7, #44]	; 0x2c
   810b0:	f003 fed8 	bl	84e64 <__aeabi_i2d>
   810b4:	4602      	mov	r2, r0
   810b6:	460b      	mov	r3, r1
   810b8:	4610      	mov	r0, r2
   810ba:	4619      	mov	r1, r3
   810bc:	a3c8      	add	r3, pc, #800	; (adr r3, 813e0 <_fft+0x428>)
   810be:	e9d3 2300 	ldrd	r2, r3, [r3]
   810c2:	f003 ff35 	bl	84f30 <__aeabi_dmul>
   810c6:	4602      	mov	r2, r0
   810c8:	460b      	mov	r3, r1
   810ca:	4614      	mov	r4, r2
   810cc:	461d      	mov	r5, r3
   810ce:	88fb      	ldrh	r3, [r7, #6]
   810d0:	4618      	mov	r0, r3
   810d2:	f003 fec7 	bl	84e64 <__aeabi_i2d>
   810d6:	4602      	mov	r2, r0
   810d8:	460b      	mov	r3, r1
   810da:	4620      	mov	r0, r4
   810dc:	4629      	mov	r1, r5
   810de:	f004 f851 	bl	85184 <__aeabi_ddiv>
   810e2:	4602      	mov	r2, r0
   810e4:	460b      	mov	r3, r1
   810e6:	4610      	mov	r0, r2
   810e8:	4619      	mov	r1, r3
   810ea:	f004 fa03 	bl	854f4 <__aeabi_d2f>
   810ee:	4603      	mov	r3, r0
   810f0:	61bb      	str	r3, [r7, #24]

			out[i].r = tmp.r + cos(fi)*outo[i].r + sin(fi)*outo[i].i;
   810f2:	6afb      	ldr	r3, [r7, #44]	; 0x2c
   810f4:	00db      	lsls	r3, r3, #3
   810f6:	68ba      	ldr	r2, [r7, #8]
   810f8:	18d4      	adds	r4, r2, r3
   810fa:	693b      	ldr	r3, [r7, #16]
   810fc:	4618      	mov	r0, r3
   810fe:	f003 fec3 	bl	84e88 <__aeabi_f2d>
   81102:	4680      	mov	r8, r0
   81104:	4689      	mov	r9, r1
   81106:	69b8      	ldr	r0, [r7, #24]
   81108:	f003 febe 	bl	84e88 <__aeabi_f2d>
   8110c:	4602      	mov	r2, r0
   8110e:	460b      	mov	r3, r1
   81110:	4610      	mov	r0, r2
   81112:	4619      	mov	r1, r3
   81114:	f002 f894 	bl	83240 <cos>
   81118:	4682      	mov	sl, r0
   8111a:	468b      	mov	fp, r1
   8111c:	6afb      	ldr	r3, [r7, #44]	; 0x2c
   8111e:	00db      	lsls	r3, r3, #3
   81120:	6a7a      	ldr	r2, [r7, #36]	; 0x24
   81122:	4413      	add	r3, r2
   81124:	681b      	ldr	r3, [r3, #0]
   81126:	4618      	mov	r0, r3
   81128:	f003 feae 	bl	84e88 <__aeabi_f2d>
   8112c:	4602      	mov	r2, r0
   8112e:	460b      	mov	r3, r1
   81130:	4650      	mov	r0, sl
   81132:	4659      	mov	r1, fp
   81134:	f003 fefc 	bl	84f30 <__aeabi_dmul>
   81138:	4602      	mov	r2, r0
   8113a:	460b      	mov	r3, r1
   8113c:	4640      	mov	r0, r8
   8113e:	4649      	mov	r1, r9
   81140:	f003 fd44 	bl	84bcc <__adddf3>
   81144:	4602      	mov	r2, r0
   81146:	460b      	mov	r3, r1
   81148:	4690      	mov	r8, r2
   8114a:	4699      	mov	r9, r3
   8114c:	69b8      	ldr	r0, [r7, #24]
   8114e:	f003 fe9b 	bl	84e88 <__aeabi_f2d>
   81152:	4602      	mov	r2, r0
   81154:	460b      	mov	r3, r1
   81156:	4610      	mov	r0, r2
   81158:	4619      	mov	r1, r3
   8115a:	f002 f8b9 	bl	832d0 <sin>
   8115e:	4682      	mov	sl, r0
   81160:	468b      	mov	fp, r1
   81162:	6afb      	ldr	r3, [r7, #44]	; 0x2c
   81164:	00db      	lsls	r3, r3, #3
   81166:	6a7a      	ldr	r2, [r7, #36]	; 0x24
   81168:	4413      	add	r3, r2
   8116a:	685b      	ldr	r3, [r3, #4]
   8116c:	4618      	mov	r0, r3
   8116e:	f003 fe8b 	bl	84e88 <__aeabi_f2d>
   81172:	4602      	mov	r2, r0
   81174:	460b      	mov	r3, r1
   81176:	4650      	mov	r0, sl
   81178:	4659      	mov	r1, fp
   8117a:	f003 fed9 	bl	84f30 <__aeabi_dmul>
   8117e:	4602      	mov	r2, r0
   81180:	460b      	mov	r3, r1
   81182:	4640      	mov	r0, r8
   81184:	4649      	mov	r1, r9
   81186:	f003 fd21 	bl	84bcc <__adddf3>
   8118a:	4602      	mov	r2, r0
   8118c:	460b      	mov	r3, r1
   8118e:	4610      	mov	r0, r2
   81190:	4619      	mov	r1, r3
   81192:	f004 f9af 	bl	854f4 <__aeabi_d2f>
   81196:	4603      	mov	r3, r0
   81198:	6023      	str	r3, [r4, #0]
			out[i].i = tmp.i - sin(fi)*outo[i].r + cos(fi)*outo[i].i;
   8119a:	6afb      	ldr	r3, [r7, #44]	; 0x2c
   8119c:	00db      	lsls	r3, r3, #3
   8119e:	68ba      	ldr	r2, [r7, #8]
   811a0:	18d4      	adds	r4, r2, r3
   811a2:	697b      	ldr	r3, [r7, #20]
   811a4:	4618      	mov	r0, r3
   811a6:	f003 fe6f 	bl	84e88 <__aeabi_f2d>
   811aa:	4680      	mov	r8, r0
   811ac:	4689      	mov	r9, r1
   811ae:	69b8      	ldr	r0, [r7, #24]
   811b0:	f003 fe6a 	bl	84e88 <__aeabi_f2d>
   811b4:	4602      	mov	r2, r0
   811b6:	460b      	mov	r3, r1
   811b8:	4610      	mov	r0, r2
   811ba:	4619      	mov	r1, r3
   811bc:	f002 f888 	bl	832d0 <sin>
   811c0:	4682      	mov	sl, r0
   811c2:	468b      	mov	fp, r1
   811c4:	6afb      	ldr	r3, [r7, #44]	; 0x2c
   811c6:	00db      	lsls	r3, r3, #3
   811c8:	6a7a      	ldr	r2, [r7, #36]	; 0x24
   811ca:	4413      	add	r3, r2
   811cc:	681b      	ldr	r3, [r3, #0]
   811ce:	4618      	mov	r0, r3
   811d0:	f003 fe5a 	bl	84e88 <__aeabi_f2d>
   811d4:	4602      	mov	r2, r0
   811d6:	460b      	mov	r3, r1
   811d8:	4650      	mov	r0, sl
   811da:	4659      	mov	r1, fp
   811dc:	f003 fea8 	bl	84f30 <__aeabi_dmul>
   811e0:	4602      	mov	r2, r0
   811e2:	460b      	mov	r3, r1
   811e4:	4640      	mov	r0, r8
   811e6:	4649      	mov	r1, r9
   811e8:	f003 fcee 	bl	84bc8 <__aeabi_dsub>
   811ec:	4602      	mov	r2, r0
   811ee:	460b      	mov	r3, r1
   811f0:	4690      	mov	r8, r2
   811f2:	4699      	mov	r9, r3
   811f4:	69b8      	ldr	r0, [r7, #24]
   811f6:	f003 fe47 	bl	84e88 <__aeabi_f2d>
   811fa:	4602      	mov	r2, r0
   811fc:	460b      	mov	r3, r1
   811fe:	4610      	mov	r0, r2
   81200:	4619      	mov	r1, r3
   81202:	f002 f81d 	bl	83240 <cos>
   81206:	4682      	mov	sl, r0
   81208:	468b      	mov	fp, r1
   8120a:	6afb      	ldr	r3, [r7, #44]	; 0x2c
   8120c:	00db      	lsls	r3, r3, #3
   8120e:	6a7a      	ldr	r2, [r7, #36]	; 0x24
   81210:	4413      	add	r3, r2
   81212:	685b      	ldr	r3, [r3, #4]
   81214:	4618      	mov	r0, r3
   81216:	f003 fe37 	bl	84e88 <__aeabi_f2d>
   8121a:	4602      	mov	r2, r0
   8121c:	460b      	mov	r3, r1
   8121e:	4650      	mov	r0, sl
   81220:	4659      	mov	r1, fp
   81222:	f003 fe85 	bl	84f30 <__aeabi_dmul>
   81226:	4602      	mov	r2, r0
   81228:	460b      	mov	r3, r1
   8122a:	4640      	mov	r0, r8
   8122c:	4649      	mov	r1, r9
   8122e:	f003 fccd 	bl	84bcc <__adddf3>
   81232:	4602      	mov	r2, r0
   81234:	460b      	mov	r3, r1
   81236:	4610      	mov	r0, r2
   81238:	4619      	mov	r1, r3
   8123a:	f004 f95b 	bl	854f4 <__aeabi_d2f>
   8123e:	4603      	mov	r3, r0
   81240:	6063      	str	r3, [r4, #4]

			out[i+N/2].r = tmp.r - cos(fi)*outo[i].r - sin(fi)*outo[i].i;
   81242:	88fb      	ldrh	r3, [r7, #6]
   81244:	085b      	lsrs	r3, r3, #1
   81246:	b29b      	uxth	r3, r3
   81248:	461a      	mov	r2, r3
   8124a:	6afb      	ldr	r3, [r7, #44]	; 0x2c
   8124c:	4413      	add	r3, r2
   8124e:	00db      	lsls	r3, r3, #3
   81250:	68ba      	ldr	r2, [r7, #8]
   81252:	18d4      	adds	r4, r2, r3
   81254:	693b      	ldr	r3, [r7, #16]
   81256:	4618      	mov	r0, r3
   81258:	f003 fe16 	bl	84e88 <__aeabi_f2d>
   8125c:	4680      	mov	r8, r0
   8125e:	4689      	mov	r9, r1
   81260:	69b8      	ldr	r0, [r7, #24]
   81262:	f003 fe11 	bl	84e88 <__aeabi_f2d>
   81266:	4602      	mov	r2, r0
   81268:	460b      	mov	r3, r1
   8126a:	4610      	mov	r0, r2
   8126c:	4619      	mov	r1, r3
   8126e:	f001 ffe7 	bl	83240 <cos>
   81272:	4682      	mov	sl, r0
   81274:	468b      	mov	fp, r1
   81276:	6afb      	ldr	r3, [r7, #44]	; 0x2c
   81278:	00db      	lsls	r3, r3, #3
   8127a:	6a7a      	ldr	r2, [r7, #36]	; 0x24
   8127c:	4413      	add	r3, r2
   8127e:	681b      	ldr	r3, [r3, #0]
   81280:	4618      	mov	r0, r3
   81282:	f003 fe01 	bl	84e88 <__aeabi_f2d>
   81286:	4602      	mov	r2, r0
   81288:	460b      	mov	r3, r1
   8128a:	4650      	mov	r0, sl
   8128c:	4659      	mov	r1, fp
   8128e:	f003 fe4f 	bl	84f30 <__aeabi_dmul>
   81292:	4602      	mov	r2, r0
   81294:	460b      	mov	r3, r1
   81296:	4640      	mov	r0, r8
   81298:	4649      	mov	r1, r9
   8129a:	f003 fc95 	bl	84bc8 <__aeabi_dsub>
   8129e:	4602      	mov	r2, r0
   812a0:	460b      	mov	r3, r1
   812a2:	4690      	mov	r8, r2
   812a4:	4699      	mov	r9, r3
   812a6:	69b8      	ldr	r0, [r7, #24]
   812a8:	f003 fdee 	bl	84e88 <__aeabi_f2d>
   812ac:	4602      	mov	r2, r0
   812ae:	460b      	mov	r3, r1
   812b0:	4610      	mov	r0, r2
   812b2:	4619      	mov	r1, r3
   812b4:	f002 f80c 	bl	832d0 <sin>
   812b8:	4682      	mov	sl, r0
   812ba:	468b      	mov	fp, r1
   812bc:	6afb      	ldr	r3, [r7, #44]	; 0x2c
   812be:	00db      	lsls	r3, r3, #3
   812c0:	6a7a      	ldr	r2, [r7, #36]	; 0x24
   812c2:	4413      	add	r3, r2
   812c4:	685b      	ldr	r3, [r3, #4]
   812c6:	4618      	mov	r0, r3
   812c8:	f003 fdde 	bl	84e88 <__aeabi_f2d>
   812cc:	4602      	mov	r2, r0
   812ce:	460b      	mov	r3, r1
   812d0:	4650      	mov	r0, sl
   812d2:	4659      	mov	r1, fp
   812d4:	f003 fe2c 	bl	84f30 <__aeabi_dmul>
   812d8:	4602      	mov	r2, r0
   812da:	460b      	mov	r3, r1
   812dc:	4640      	mov	r0, r8
   812de:	4649      	mov	r1, r9
   812e0:	f003 fc72 	bl	84bc8 <__aeabi_dsub>
   812e4:	4602      	mov	r2, r0
   812e6:	460b      	mov	r3, r1
   812e8:	4610      	mov	r0, r2
   812ea:	4619      	mov	r1, r3
   812ec:	f004 f902 	bl	854f4 <__aeabi_d2f>
   812f0:	4603      	mov	r3, r0
   812f2:	6023      	str	r3, [r4, #0]
			out[i+N/2].i = tmp.i + sin(fi)*outo[i].r - cos(fi)*outo[i].i;
   812f4:	88fb      	ldrh	r3, [r7, #6]
   812f6:	085b      	lsrs	r3, r3, #1
   812f8:	b29b      	uxth	r3, r3
   812fa:	461a      	mov	r2, r3
   812fc:	6afb      	ldr	r3, [r7, #44]	; 0x2c
   812fe:	4413      	add	r3, r2
   81300:	00db      	lsls	r3, r3, #3
   81302:	68ba      	ldr	r2, [r7, #8]
   81304:	18d4      	adds	r4, r2, r3
   81306:	697b      	ldr	r3, [r7, #20]
   81308:	4618      	mov	r0, r3
   8130a:	f003 fdbd 	bl	84e88 <__aeabi_f2d>
   8130e:	4680      	mov	r8, r0
   81310:	4689      	mov	r9, r1
   81312:	69b8      	ldr	r0, [r7, #24]
   81314:	f003 fdb8 	bl	84e88 <__aeabi_f2d>
   81318:	4602      	mov	r2, r0
   8131a:	460b      	mov	r3, r1
   8131c:	4610      	mov	r0, r2
   8131e:	4619      	mov	r1, r3
   81320:	f001 ffd6 	bl	832d0 <sin>
   81324:	4682      	mov	sl, r0
   81326:	468b      	mov	fp, r1
   81328:	6afb      	ldr	r3, [r7, #44]	; 0x2c
   8132a:	00db      	lsls	r3, r3, #3
   8132c:	6a7a      	ldr	r2, [r7, #36]	; 0x24
   8132e:	4413      	add	r3, r2
   81330:	681b      	ldr	r3, [r3, #0]
   81332:	4618      	mov	r0, r3
   81334:	f003 fda8 	bl	84e88 <__aeabi_f2d>
   81338:	4602      	mov	r2, r0
   8133a:	460b      	mov	r3, r1
   8133c:	4650      	mov	r0, sl
   8133e:	4659      	mov	r1, fp
   81340:	f003 fdf6 	bl	84f30 <__aeabi_dmul>
   81344:	4602      	mov	r2, r0
   81346:	460b      	mov	r3, r1
   81348:	4640      	mov	r0, r8
   8134a:	4649      	mov	r1, r9
   8134c:	f003 fc3e 	bl	84bcc <__adddf3>
   81350:	4602      	mov	r2, r0
   81352:	460b      	mov	r3, r1
   81354:	4690      	mov	r8, r2
   81356:	4699      	mov	r9, r3
   81358:	69b8      	ldr	r0, [r7, #24]
   8135a:	f003 fd95 	bl	84e88 <__aeabi_f2d>
   8135e:	4602      	mov	r2, r0
   81360:	460b      	mov	r3, r1
   81362:	4610      	mov	r0, r2
   81364:	4619      	mov	r1, r3
   81366:	f001 ff6b 	bl	83240 <cos>
   8136a:	4682      	mov	sl, r0
   8136c:	468b      	mov	fp, r1
   8136e:	6afb      	ldr	r3, [r7, #44]	; 0x2c
   81370:	00db      	lsls	r3, r3, #3
   81372:	6a7a      	ldr	r2, [r7, #36]	; 0x24
   81374:	4413      	add	r3, r2
   81376:	685b      	ldr	r3, [r3, #4]
   81378:	4618      	mov	r0, r3
   8137a:	f003 fd85 	bl	84e88 <__aeabi_f2d>
   8137e:	4602      	mov	r2, r0
   81380:	460b      	mov	r3, r1
   81382:	4650      	mov	r0, sl
   81384:	4659      	mov	r1, fp
   81386:	f003 fdd3 	bl	84f30 <__aeabi_dmul>
   8138a:	4602      	mov	r2, r0
   8138c:	460b      	mov	r3, r1
   8138e:	4640      	mov	r0, r8
   81390:	4649      	mov	r1, r9
   81392:	f003 fc19 	bl	84bc8 <__aeabi_dsub>
   81396:	4602      	mov	r2, r0
   81398:	460b      	mov	r3, r1
   8139a:	4610      	mov	r0, r2
   8139c:	4619      	mov	r1, r3
   8139e:	f004 f8a9 	bl	854f4 <__aeabi_d2f>
   813a2:	4603      	mov	r3, r0
   813a4:	6063      	str	r3, [r4, #4]
		}

		_fft(ine, oute, N/2);
		_fft(ino, outo, N/2);

		for(i=0; i<N/2; i++){
   813a6:	6afb      	ldr	r3, [r7, #44]	; 0x2c
   813a8:	3301      	adds	r3, #1
   813aa:	62fb      	str	r3, [r7, #44]	; 0x2c
   813ac:	88fb      	ldrh	r3, [r7, #6]
   813ae:	085b      	lsrs	r3, r3, #1
   813b0:	b29b      	uxth	r3, r3
   813b2:	461a      	mov	r2, r3
   813b4:	6afb      	ldr	r3, [r7, #44]	; 0x2c
   813b6:	429a      	cmp	r2, r3
   813b8:	f73f ae6d 	bgt.w	81096 <_fft+0xde>

			out[i+N/2].r = tmp.r - cos(fi)*outo[i].r - sin(fi)*outo[i].i;
			out[i+N/2].i = tmp.i + sin(fi)*outo[i].r - cos(fi)*outo[i].i;
		}

		free(oute);
   813bc:	6ab8      	ldr	r0, [r7, #40]	; 0x28
   813be:	f004 fc13 	bl	85be8 <free>
		free(outo);
   813c2:	6a78      	ldr	r0, [r7, #36]	; 0x24
   813c4:	f004 fc10 	bl	85be8 <free>

		free(ine);
   813c8:	6a38      	ldr	r0, [r7, #32]
   813ca:	f004 fc0d 	bl	85be8 <free>
		free(ino);
   813ce:	69f8      	ldr	r0, [r7, #28]
   813d0:	f004 fc0a 	bl	85be8 <free>

	}
}
   813d4:	3730      	adds	r7, #48	; 0x30
   813d6:	46bd      	mov	sp, r7
   813d8:	e8bd 8fb0 	ldmia.w	sp!, {r4, r5, r7, r8, r9, sl, fp, pc}
   813dc:	f3af 8000 	nop.w
   813e0:	4d12d84a 	.word	0x4d12d84a
   813e4:	401921fb 	.word	0x401921fb

000813e8 <power2mel>:

/* power2mel izracuna iz mocnostenga spektra signala povprecne moci na odsekih, ki so med sabo razmaknjene po melodicni lestvici
*    vhod je kazalec na zbirko mocnostnega spektra (velikosti FFT_SIZE = 512)
*    izhod je kazalec na novo zbirko s povprecnimi mocmi
*/
float *power2mel(float *power){
   813e8:	b590      	push	{r4, r7, lr}
   813ea:	b087      	sub	sp, #28
   813ec:	af00      	add	r7, sp, #0
   813ee:	6078      	str	r0, [r7, #4]
	uint16_t i,j;
	float utez;	//trenutna utez prispevka signala

	float *mel = (float *) malloc(sizeof(float)*MEL_FILTER_NUM);	//izhodni vektor, ki vsebuje moci na odsekih signala, ki so melodicno razporejeni med sabo
   813f0:	2060      	movs	r0, #96	; 0x60
   813f2:	f004 fbf1 	bl	85bd8 <malloc>
   813f6:	4603      	mov	r3, r0
   813f8:	60fb      	str	r3, [r7, #12]

	for(i=0; i<MEL_FILTER_NUM; i++){		//pogledamo za vsak BP filter, katere vrednosti padejo notri in dolocimo utezeno povprecno moc  (od 1. centralne pa do predzadnje centralne frekvence)
   813fa:	2300      	movs	r3, #0
   813fc:	82fb      	strh	r3, [r7, #22]
   813fe:	e0b9      	b.n	81574 <power2mel+0x18c>
		mel[i] = 0;
   81400:	8afb      	ldrh	r3, [r7, #22]
   81402:	009b      	lsls	r3, r3, #2
   81404:	68fa      	ldr	r2, [r7, #12]
   81406:	4413      	add	r3, r2
   81408:	f04f 0200 	mov.w	r2, #0
   8140c:	601a      	str	r2, [r3, #0]

		for(j=mel_ferq_bank[i]; j<=mel_ferq_bank[i+2]; j++){     //dovolj je, da gledamo frekvence med prejsnjo in naslednjo centralno frekvenco
   8140e:	8afb      	ldrh	r3, [r7, #22]
   81410:	4a5f      	ldr	r2, [pc, #380]	; (81590 <power2mel+0x1a8>)
   81412:	5cd3      	ldrb	r3, [r2, r3]
   81414:	82bb      	strh	r3, [r7, #20]
   81416:	e0a1      	b.n	8155c <power2mel+0x174>
			if(power[j]<0.01){    //da po nepotrebnem se ne mudimo z majhnimi vrednostmi
   81418:	8abb      	ldrh	r3, [r7, #20]
   8141a:	009b      	lsls	r3, r3, #2
   8141c:	687a      	ldr	r2, [r7, #4]
   8141e:	4413      	add	r3, r2
   81420:	681b      	ldr	r3, [r3, #0]
   81422:	4618      	mov	r0, r3
   81424:	f003 fd30 	bl	84e88 <__aeabi_f2d>
   81428:	4602      	mov	r2, r0
   8142a:	460b      	mov	r3, r1
   8142c:	4610      	mov	r0, r2
   8142e:	4619      	mov	r1, r3
   81430:	a355      	add	r3, pc, #340	; (adr r3, 81588 <power2mel+0x1a0>)
   81432:	e9d3 2300 	ldrd	r2, r3, [r3]
   81436:	f003 ffed 	bl	85414 <__aeabi_dcmplt>
   8143a:	4603      	mov	r3, r0
   8143c:	2b00      	cmp	r3, #0
   8143e:	d000      	beq.n	81442 <power2mel+0x5a>
				continue;
   81440:	e089      	b.n	81556 <power2mel+0x16e>
			}
			//dolocimo utez filtra za posamicno komponento - trikotni potek filtra
			if(j<mel_ferq_bank[i+1]){
   81442:	8afb      	ldrh	r3, [r7, #22]
   81444:	3301      	adds	r3, #1
   81446:	4a52      	ldr	r2, [pc, #328]	; (81590 <power2mel+0x1a8>)
   81448:	5cd3      	ldrb	r3, [r2, r3]
   8144a:	b29b      	uxth	r3, r3
   8144c:	8aba      	ldrh	r2, [r7, #20]
   8144e:	429a      	cmp	r2, r3
   81450:	d225      	bcs.n	8149e <power2mel+0xb6>
				utez = ((float)j-mel_ferq_bank[i]) / (mel_ferq_bank[i+1]-mel_ferq_bank[i]);
   81452:	8abb      	ldrh	r3, [r7, #20]
   81454:	4618      	mov	r0, r3
   81456:	f004 f953 	bl	85700 <__aeabi_ui2f>
   8145a:	4604      	mov	r4, r0
   8145c:	8afb      	ldrh	r3, [r7, #22]
   8145e:	4a4c      	ldr	r2, [pc, #304]	; (81590 <power2mel+0x1a8>)
   81460:	5cd3      	ldrb	r3, [r2, r3]
   81462:	4618      	mov	r0, r3
   81464:	f004 f950 	bl	85708 <__aeabi_i2f>
   81468:	4603      	mov	r3, r0
   8146a:	4620      	mov	r0, r4
   8146c:	4619      	mov	r1, r3
   8146e:	f004 f895 	bl	8559c <__aeabi_fsub>
   81472:	4603      	mov	r3, r0
   81474:	461c      	mov	r4, r3
   81476:	8afb      	ldrh	r3, [r7, #22]
   81478:	3301      	adds	r3, #1
   8147a:	4a45      	ldr	r2, [pc, #276]	; (81590 <power2mel+0x1a8>)
   8147c:	5cd3      	ldrb	r3, [r2, r3]
   8147e:	4619      	mov	r1, r3
   81480:	8afb      	ldrh	r3, [r7, #22]
   81482:	4a43      	ldr	r2, [pc, #268]	; (81590 <power2mel+0x1a8>)
   81484:	5cd3      	ldrb	r3, [r2, r3]
   81486:	1acb      	subs	r3, r1, r3
   81488:	4618      	mov	r0, r3
   8148a:	f004 f93d 	bl	85708 <__aeabi_i2f>
   8148e:	4603      	mov	r3, r0
   81490:	4620      	mov	r0, r4
   81492:	4619      	mov	r1, r3
   81494:	f004 fa40 	bl	85918 <__aeabi_fdiv>
   81498:	4603      	mov	r3, r0
   8149a:	613b      	str	r3, [r7, #16]
   8149c:	e032      	b.n	81504 <power2mel+0x11c>
			}
			else if(j==mel_ferq_bank[i+1]){
   8149e:	8afb      	ldrh	r3, [r7, #22]
   814a0:	3301      	adds	r3, #1
   814a2:	4a3b      	ldr	r2, [pc, #236]	; (81590 <power2mel+0x1a8>)
   814a4:	5cd3      	ldrb	r3, [r2, r3]
   814a6:	b29b      	uxth	r3, r3
   814a8:	8aba      	ldrh	r2, [r7, #20]
   814aa:	429a      	cmp	r2, r3
   814ac:	d103      	bne.n	814b6 <power2mel+0xce>
				utez = 1;
   814ae:	f04f 537e 	mov.w	r3, #1065353216	; 0x3f800000
   814b2:	613b      	str	r3, [r7, #16]
   814b4:	e026      	b.n	81504 <power2mel+0x11c>
			}
			else{
				utez = ((float)mel_ferq_bank[i+2] - j) / (mel_ferq_bank[i+2]-mel_ferq_bank[i+1]);
   814b6:	8afb      	ldrh	r3, [r7, #22]
   814b8:	3302      	adds	r3, #2
   814ba:	4a35      	ldr	r2, [pc, #212]	; (81590 <power2mel+0x1a8>)
   814bc:	5cd3      	ldrb	r3, [r2, r3]
   814be:	4618      	mov	r0, r3
   814c0:	f004 f91e 	bl	85700 <__aeabi_ui2f>
   814c4:	4604      	mov	r4, r0
   814c6:	8abb      	ldrh	r3, [r7, #20]
   814c8:	4618      	mov	r0, r3
   814ca:	f004 f91d 	bl	85708 <__aeabi_i2f>
   814ce:	4603      	mov	r3, r0
   814d0:	4620      	mov	r0, r4
   814d2:	4619      	mov	r1, r3
   814d4:	f004 f862 	bl	8559c <__aeabi_fsub>
   814d8:	4603      	mov	r3, r0
   814da:	461c      	mov	r4, r3
   814dc:	8afb      	ldrh	r3, [r7, #22]
   814de:	3302      	adds	r3, #2
   814e0:	4a2b      	ldr	r2, [pc, #172]	; (81590 <power2mel+0x1a8>)
   814e2:	5cd3      	ldrb	r3, [r2, r3]
   814e4:	4619      	mov	r1, r3
   814e6:	8afb      	ldrh	r3, [r7, #22]
   814e8:	3301      	adds	r3, #1
   814ea:	4a29      	ldr	r2, [pc, #164]	; (81590 <power2mel+0x1a8>)
   814ec:	5cd3      	ldrb	r3, [r2, r3]
   814ee:	1acb      	subs	r3, r1, r3
   814f0:	4618      	mov	r0, r3
   814f2:	f004 f909 	bl	85708 <__aeabi_i2f>
   814f6:	4603      	mov	r3, r0
   814f8:	4620      	mov	r0, r4
   814fa:	4619      	mov	r1, r3
   814fc:	f004 fa0c 	bl	85918 <__aeabi_fdiv>
   81500:	4603      	mov	r3, r0
   81502:	613b      	str	r3, [r7, #16]
			}

			utez = utez*power[j];
   81504:	8abb      	ldrh	r3, [r7, #20]
   81506:	009b      	lsls	r3, r3, #2
   81508:	687a      	ldr	r2, [r7, #4]
   8150a:	4413      	add	r3, r2
   8150c:	681b      	ldr	r3, [r3, #0]
   8150e:	6938      	ldr	r0, [r7, #16]
   81510:	4619      	mov	r1, r3
   81512:	f004 f94d 	bl	857b0 <__aeabi_fmul>
   81516:	4603      	mov	r3, r0
   81518:	613b      	str	r3, [r7, #16]
			if(utez>0.01){    //da po nepotrebnem se ne mudimo z majhnimi vrednostmi
   8151a:	6938      	ldr	r0, [r7, #16]
   8151c:	f003 fcb4 	bl	84e88 <__aeabi_f2d>
   81520:	4602      	mov	r2, r0
   81522:	460b      	mov	r3, r1
   81524:	4610      	mov	r0, r2
   81526:	4619      	mov	r1, r3
   81528:	a317      	add	r3, pc, #92	; (adr r3, 81588 <power2mel+0x1a0>)
   8152a:	e9d3 2300 	ldrd	r2, r3, [r3]
   8152e:	f003 ff8f 	bl	85450 <__aeabi_dcmpgt>
   81532:	4603      	mov	r3, r0
   81534:	2b00      	cmp	r3, #0
   81536:	d00e      	beq.n	81556 <power2mel+0x16e>
				mel[i] += utez;
   81538:	8afb      	ldrh	r3, [r7, #22]
   8153a:	009b      	lsls	r3, r3, #2
   8153c:	68fa      	ldr	r2, [r7, #12]
   8153e:	18d4      	adds	r4, r2, r3
   81540:	8afb      	ldrh	r3, [r7, #22]
   81542:	009b      	lsls	r3, r3, #2
   81544:	68fa      	ldr	r2, [r7, #12]
   81546:	4413      	add	r3, r2
   81548:	681b      	ldr	r3, [r3, #0]
   8154a:	4618      	mov	r0, r3
   8154c:	6939      	ldr	r1, [r7, #16]
   8154e:	f004 f827 	bl	855a0 <__addsf3>
   81552:	4603      	mov	r3, r0
   81554:	6023      	str	r3, [r4, #0]
	float *mel = (float *) malloc(sizeof(float)*MEL_FILTER_NUM);	//izhodni vektor, ki vsebuje moci na odsekih signala, ki so melodicno razporejeni med sabo

	for(i=0; i<MEL_FILTER_NUM; i++){		//pogledamo za vsak BP filter, katere vrednosti padejo notri in dolocimo utezeno povprecno moc  (od 1. centralne pa do predzadnje centralne frekvence)
		mel[i] = 0;

		for(j=mel_ferq_bank[i]; j<=mel_ferq_bank[i+2]; j++){     //dovolj je, da gledamo frekvence med prejsnjo in naslednjo centralno frekvenco
   81556:	8abb      	ldrh	r3, [r7, #20]
   81558:	3301      	adds	r3, #1
   8155a:	82bb      	strh	r3, [r7, #20]
   8155c:	8afb      	ldrh	r3, [r7, #22]
   8155e:	3302      	adds	r3, #2
   81560:	4a0b      	ldr	r2, [pc, #44]	; (81590 <power2mel+0x1a8>)
   81562:	5cd3      	ldrb	r3, [r2, r3]
   81564:	b29b      	uxth	r3, r3
   81566:	8aba      	ldrh	r2, [r7, #20]
   81568:	429a      	cmp	r2, r3
   8156a:	f67f af55 	bls.w	81418 <power2mel+0x30>
	uint16_t i,j;
	float utez;	//trenutna utez prispevka signala

	float *mel = (float *) malloc(sizeof(float)*MEL_FILTER_NUM);	//izhodni vektor, ki vsebuje moci na odsekih signala, ki so melodicno razporejeni med sabo

	for(i=0; i<MEL_FILTER_NUM; i++){		//pogledamo za vsak BP filter, katere vrednosti padejo notri in dolocimo utezeno povprecno moc  (od 1. centralne pa do predzadnje centralne frekvence)
   8156e:	8afb      	ldrh	r3, [r7, #22]
   81570:	3301      	adds	r3, #1
   81572:	82fb      	strh	r3, [r7, #22]
   81574:	8afb      	ldrh	r3, [r7, #22]
   81576:	2b17      	cmp	r3, #23
   81578:	f67f af42 	bls.w	81400 <power2mel+0x18>
				mel[i] += utez;
			}
		}
	}

	return mel;
   8157c:	68fb      	ldr	r3, [r7, #12]
}
   8157e:	4618      	mov	r0, r3
   81580:	371c      	adds	r7, #28
   81582:	46bd      	mov	sp, r7
   81584:	bd90      	pop	{r4, r7, pc}
   81586:	bf00      	nop
   81588:	47ae147b 	.word	0x47ae147b
   8158c:	3f847ae1 	.word	0x3f847ae1
   81590:	00086688 	.word	0x00086688
   81594:	f3af 8000 	nop.w

00081598 <mfcc>:
/* mfcc izvede diskretno kosinusno transformacijo na vhodnem signalu  (da dobis taksne rezultate kot v matlabu moras se mnoziti z sqrt(2/signal_size), kar tu ne naredim, ker ni potrebno - cas)
*    vrne kazalec na novo zbirko s dct transformacijo
*    kot vhod prejme dolzino signala
*    ter stevilo koeficientov mfcc, ki naj jih izracuna (0. izpustimo ker se nanasa na glasnost)
*/
float *mfcc(float *signal, uint8_t signal_size, uint8_t num_mfcc){
   81598:	e92d 43b0 	stmdb	sp!, {r4, r5, r7, r8, r9, lr}
   8159c:	b086      	sub	sp, #24
   8159e:	af00      	add	r7, sp, #0
   815a0:	6078      	str	r0, [r7, #4]
   815a2:	460b      	mov	r3, r1
   815a4:	70fb      	strb	r3, [r7, #3]
   815a6:	4613      	mov	r3, r2
   815a8:	70bb      	strb	r3, [r7, #2]
	float *dct = (float *) malloc(sizeof(float)*num_mfcc);
   815aa:	78bb      	ldrb	r3, [r7, #2]
   815ac:	009b      	lsls	r3, r3, #2
   815ae:	4618      	mov	r0, r3
   815b0:	f004 fb12 	bl	85bd8 <malloc>
   815b4:	4603      	mov	r3, r0
   815b6:	613b      	str	r3, [r7, #16]
	float tmp;

	uint8_t i, j;

	for(i=1; i<=num_mfcc; i++){
   815b8:	2301      	movs	r3, #1
   815ba:	75fb      	strb	r3, [r7, #23]
   815bc:	e088      	b.n	816d0 <mfcc+0x138>
		dct[i-1] = 0;
   815be:	7dfb      	ldrb	r3, [r7, #23]
   815c0:	f103 4380 	add.w	r3, r3, #1073741824	; 0x40000000
   815c4:	3b01      	subs	r3, #1
   815c6:	009b      	lsls	r3, r3, #2
   815c8:	693a      	ldr	r2, [r7, #16]
   815ca:	4413      	add	r3, r2
   815cc:	f04f 0200 	mov.w	r2, #0
   815d0:	601a      	str	r2, [r3, #0]
		for(j=0; j<signal_size; j++){
   815d2:	2300      	movs	r3, #0
   815d4:	75bb      	strb	r3, [r7, #22]
   815d6:	e074      	b.n	816c2 <mfcc+0x12a>
			tmp = log10(signal[j]+0.001)*cos(Pi/signal_size*(j+1.0/2)*i);
   815d8:	7dbb      	ldrb	r3, [r7, #22]
   815da:	009b      	lsls	r3, r3, #2
   815dc:	687a      	ldr	r2, [r7, #4]
   815de:	4413      	add	r3, r2
   815e0:	681b      	ldr	r3, [r3, #0]
   815e2:	4618      	mov	r0, r3
   815e4:	f003 fc50 	bl	84e88 <__aeabi_f2d>
   815e8:	4602      	mov	r2, r0
   815ea:	460b      	mov	r3, r1
   815ec:	4610      	mov	r0, r2
   815ee:	4619      	mov	r1, r3
   815f0:	a33d      	add	r3, pc, #244	; (adr r3, 816e8 <mfcc+0x150>)
   815f2:	e9d3 2300 	ldrd	r2, r3, [r3]
   815f6:	f003 fae9 	bl	84bcc <__adddf3>
   815fa:	4602      	mov	r2, r0
   815fc:	460b      	mov	r3, r1
   815fe:	4610      	mov	r0, r2
   81600:	4619      	mov	r1, r3
   81602:	f001 feaf 	bl	83364 <log10>
   81606:	4604      	mov	r4, r0
   81608:	460d      	mov	r5, r1
   8160a:	78fb      	ldrb	r3, [r7, #3]
   8160c:	4618      	mov	r0, r3
   8160e:	f003 fc29 	bl	84e64 <__aeabi_i2d>
   81612:	4602      	mov	r2, r0
   81614:	460b      	mov	r3, r1
   81616:	a136      	add	r1, pc, #216	; (adr r1, 816f0 <mfcc+0x158>)
   81618:	e9d1 0100 	ldrd	r0, r1, [r1]
   8161c:	f003 fdb2 	bl	85184 <__aeabi_ddiv>
   81620:	4602      	mov	r2, r0
   81622:	460b      	mov	r3, r1
   81624:	4690      	mov	r8, r2
   81626:	4699      	mov	r9, r3
   81628:	7dbb      	ldrb	r3, [r7, #22]
   8162a:	4618      	mov	r0, r3
   8162c:	f003 fc1a 	bl	84e64 <__aeabi_i2d>
   81630:	4602      	mov	r2, r0
   81632:	460b      	mov	r3, r1
   81634:	4610      	mov	r0, r2
   81636:	4619      	mov	r1, r3
   81638:	f04f 0200 	mov.w	r2, #0
   8163c:	4b2e      	ldr	r3, [pc, #184]	; (816f8 <mfcc+0x160>)
   8163e:	f003 fac5 	bl	84bcc <__adddf3>
   81642:	4602      	mov	r2, r0
   81644:	460b      	mov	r3, r1
   81646:	4640      	mov	r0, r8
   81648:	4649      	mov	r1, r9
   8164a:	f003 fc71 	bl	84f30 <__aeabi_dmul>
   8164e:	4602      	mov	r2, r0
   81650:	460b      	mov	r3, r1
   81652:	4690      	mov	r8, r2
   81654:	4699      	mov	r9, r3
   81656:	7dfb      	ldrb	r3, [r7, #23]
   81658:	4618      	mov	r0, r3
   8165a:	f003 fc03 	bl	84e64 <__aeabi_i2d>
   8165e:	4602      	mov	r2, r0
   81660:	460b      	mov	r3, r1
   81662:	4640      	mov	r0, r8
   81664:	4649      	mov	r1, r9
   81666:	f003 fc63 	bl	84f30 <__aeabi_dmul>
   8166a:	4602      	mov	r2, r0
   8166c:	460b      	mov	r3, r1
   8166e:	4610      	mov	r0, r2
   81670:	4619      	mov	r1, r3
   81672:	f001 fde5 	bl	83240 <cos>
   81676:	4602      	mov	r2, r0
   81678:	460b      	mov	r3, r1
   8167a:	4620      	mov	r0, r4
   8167c:	4629      	mov	r1, r5
   8167e:	f003 fc57 	bl	84f30 <__aeabi_dmul>
   81682:	4602      	mov	r2, r0
   81684:	460b      	mov	r3, r1
   81686:	4610      	mov	r0, r2
   81688:	4619      	mov	r1, r3
   8168a:	f003 ff33 	bl	854f4 <__aeabi_d2f>
   8168e:	4603      	mov	r3, r0
   81690:	60fb      	str	r3, [r7, #12]

			dct[i-1] += tmp;
   81692:	7dfb      	ldrb	r3, [r7, #23]
   81694:	f103 4380 	add.w	r3, r3, #1073741824	; 0x40000000
   81698:	3b01      	subs	r3, #1
   8169a:	009b      	lsls	r3, r3, #2
   8169c:	693a      	ldr	r2, [r7, #16]
   8169e:	18d4      	adds	r4, r2, r3
   816a0:	7dfb      	ldrb	r3, [r7, #23]
   816a2:	f103 4380 	add.w	r3, r3, #1073741824	; 0x40000000
   816a6:	3b01      	subs	r3, #1
   816a8:	009b      	lsls	r3, r3, #2
   816aa:	693a      	ldr	r2, [r7, #16]
   816ac:	4413      	add	r3, r2
   816ae:	681b      	ldr	r3, [r3, #0]
   816b0:	4618      	mov	r0, r3
   816b2:	68f9      	ldr	r1, [r7, #12]
   816b4:	f003 ff74 	bl	855a0 <__addsf3>
   816b8:	4603      	mov	r3, r0
   816ba:	6023      	str	r3, [r4, #0]

	uint8_t i, j;

	for(i=1; i<=num_mfcc; i++){
		dct[i-1] = 0;
		for(j=0; j<signal_size; j++){
   816bc:	7dbb      	ldrb	r3, [r7, #22]
   816be:	3301      	adds	r3, #1
   816c0:	75bb      	strb	r3, [r7, #22]
   816c2:	7dba      	ldrb	r2, [r7, #22]
   816c4:	78fb      	ldrb	r3, [r7, #3]
   816c6:	429a      	cmp	r2, r3
   816c8:	d386      	bcc.n	815d8 <mfcc+0x40>
	float *dct = (float *) malloc(sizeof(float)*num_mfcc);
	float tmp;

	uint8_t i, j;

	for(i=1; i<=num_mfcc; i++){
   816ca:	7dfb      	ldrb	r3, [r7, #23]
   816cc:	3301      	adds	r3, #1
   816ce:	75fb      	strb	r3, [r7, #23]
   816d0:	7dfa      	ldrb	r2, [r7, #23]
   816d2:	78bb      	ldrb	r3, [r7, #2]
   816d4:	429a      	cmp	r2, r3
   816d6:	f67f af72 	bls.w	815be <mfcc+0x26>

			dct[i-1] += tmp;
		}
	}

	return dct;
   816da:	693b      	ldr	r3, [r7, #16]
}
   816dc:	4618      	mov	r0, r3
   816de:	3718      	adds	r7, #24
   816e0:	46bd      	mov	sp, r7
   816e2:	e8bd 83b0 	ldmia.w	sp!, {r4, r5, r7, r8, r9, pc}
   816e6:	bf00      	nop
   816e8:	d2f1a9fc 	.word	0xd2f1a9fc
   816ec:	3f50624d 	.word	0x3f50624d
   816f0:	4d12d84a 	.word	0x4d12d84a
   816f4:	400921fb 	.word	0x400921fb
   816f8:	3fe00000 	.word	0x3fe00000
   816fc:	f3af 8000 	nop.w

00081700 <say_time>:
#include <speech_synthesis.h>


/*################ Funkcije ################*/
void say_time(){
   81700:	b480      	push	{r7}
   81702:	af00      	add	r7, sp, #0

	//nastavimo izhodni signal na trenutno uro
	if(hours<=20){
   81704:	4b6a      	ldr	r3, [pc, #424]	; (818b0 <say_time+0x1b0>)
   81706:	781b      	ldrb	r3, [r3, #0]
   81708:	2b14      	cmp	r3, #20
   8170a:	d818      	bhi.n	8173e <say_time+0x3e>
		output_signal = pos_stevilo[hours];
   8170c:	4b68      	ldr	r3, [pc, #416]	; (818b0 <say_time+0x1b0>)
   8170e:	781b      	ldrb	r3, [r3, #0]
   81710:	461a      	mov	r2, r3
   81712:	4b68      	ldr	r3, [pc, #416]	; (818b4 <say_time+0x1b4>)
   81714:	f853 3022 	ldr.w	r3, [r3, r2, lsl #2]
   81718:	4a67      	ldr	r2, [pc, #412]	; (818b8 <say_time+0x1b8>)
   8171a:	6013      	str	r3, [r2, #0]
		output_signal_size = pos_stevilo_size[hours];
   8171c:	4b64      	ldr	r3, [pc, #400]	; (818b0 <say_time+0x1b0>)
   8171e:	781b      	ldrb	r3, [r3, #0]
   81720:	461a      	mov	r2, r3
   81722:	4b66      	ldr	r3, [pc, #408]	; (818bc <say_time+0x1bc>)
   81724:	f833 2012 	ldrh.w	r2, [r3, r2, lsl #1]
   81728:	4b65      	ldr	r3, [pc, #404]	; (818c0 <say_time+0x1c0>)
   8172a:	801a      	strh	r2, [r3, #0]
		//vklopimo task dac
		task_dac.status=1;
   8172c:	4b65      	ldr	r3, [pc, #404]	; (818c4 <say_time+0x1c4>)
   8172e:	2201      	movs	r2, #1
   81730:	611a      	str	r2, [r3, #16]
		//cakamo, da se predvaja celoten posnetek signala
		while(task_dac.status==1);
   81732:	bf00      	nop
   81734:	4b63      	ldr	r3, [pc, #396]	; (818c4 <say_time+0x1c4>)
   81736:	691b      	ldr	r3, [r3, #16]
   81738:	2b01      	cmp	r3, #1
   8173a:	d0fb      	beq.n	81734 <say_time+0x34>
   8173c:	e04a      	b.n	817d4 <say_time+0xd4>
	}
	else{
		//recemo ostanek pri deljenju z 20
		output_signal = pos_stevilo[hours%20];
   8173e:	4b5c      	ldr	r3, [pc, #368]	; (818b0 <say_time+0x1b0>)
   81740:	781a      	ldrb	r2, [r3, #0]
   81742:	4b61      	ldr	r3, [pc, #388]	; (818c8 <say_time+0x1c8>)
   81744:	fba3 1302 	umull	r1, r3, r3, r2
   81748:	0919      	lsrs	r1, r3, #4
   8174a:	460b      	mov	r3, r1
   8174c:	009b      	lsls	r3, r3, #2
   8174e:	440b      	add	r3, r1
   81750:	009b      	lsls	r3, r3, #2
   81752:	1ad3      	subs	r3, r2, r3
   81754:	b2db      	uxtb	r3, r3
   81756:	461a      	mov	r2, r3
   81758:	4b56      	ldr	r3, [pc, #344]	; (818b4 <say_time+0x1b4>)
   8175a:	f853 3022 	ldr.w	r3, [r3, r2, lsl #2]
   8175e:	4a56      	ldr	r2, [pc, #344]	; (818b8 <say_time+0x1b8>)
   81760:	6013      	str	r3, [r2, #0]
		output_signal_size = pos_stevilo_size[hours%20];
   81762:	4b53      	ldr	r3, [pc, #332]	; (818b0 <say_time+0x1b0>)
   81764:	781a      	ldrb	r2, [r3, #0]
   81766:	4b58      	ldr	r3, [pc, #352]	; (818c8 <say_time+0x1c8>)
   81768:	fba3 1302 	umull	r1, r3, r3, r2
   8176c:	0919      	lsrs	r1, r3, #4
   8176e:	460b      	mov	r3, r1
   81770:	009b      	lsls	r3, r3, #2
   81772:	440b      	add	r3, r1
   81774:	009b      	lsls	r3, r3, #2
   81776:	1ad3      	subs	r3, r2, r3
   81778:	b2db      	uxtb	r3, r3
   8177a:	461a      	mov	r2, r3
   8177c:	4b4f      	ldr	r3, [pc, #316]	; (818bc <say_time+0x1bc>)
   8177e:	f833 2012 	ldrh.w	r2, [r3, r2, lsl #1]
   81782:	4b4f      	ldr	r3, [pc, #316]	; (818c0 <say_time+0x1c0>)
   81784:	801a      	strh	r2, [r3, #0]
		//vklopimo task dac
		task_dac.status=1;
   81786:	4b4f      	ldr	r3, [pc, #316]	; (818c4 <say_time+0x1c4>)
   81788:	2201      	movs	r2, #1
   8178a:	611a      	str	r2, [r3, #16]
		//cakamo, da se predvaja celoten posnetek signala
		while(task_dac.status==1);
   8178c:	bf00      	nop
   8178e:	4b4d      	ldr	r3, [pc, #308]	; (818c4 <say_time+0x1c4>)
   81790:	691b      	ldr	r3, [r3, #16]
   81792:	2b01      	cmp	r3, #1
   81794:	d0fb      	beq.n	8178e <say_time+0x8e>

		//dodamo se in
		output_signal = pos_in;
   81796:	4b48      	ldr	r3, [pc, #288]	; (818b8 <say_time+0x1b8>)
   81798:	4a4c      	ldr	r2, [pc, #304]	; (818cc <say_time+0x1cc>)
   8179a:	601a      	str	r2, [r3, #0]
		output_signal_size = pos_in_size;
   8179c:	4b4c      	ldr	r3, [pc, #304]	; (818d0 <say_time+0x1d0>)
   8179e:	881a      	ldrh	r2, [r3, #0]
   817a0:	4b47      	ldr	r3, [pc, #284]	; (818c0 <say_time+0x1c0>)
   817a2:	801a      	strh	r2, [r3, #0]
		//vklopimo task dac
		task_dac.status=1;
   817a4:	4b47      	ldr	r3, [pc, #284]	; (818c4 <say_time+0x1c4>)
   817a6:	2201      	movs	r2, #1
   817a8:	611a      	str	r2, [r3, #16]
		//cakamo, da se predvaja celoten posnetek signala
		while(task_dac.status==1);
   817aa:	bf00      	nop
   817ac:	4b45      	ldr	r3, [pc, #276]	; (818c4 <say_time+0x1c4>)
   817ae:	691b      	ldr	r3, [r3, #16]
   817b0:	2b01      	cmp	r3, #1
   817b2:	d0fb      	beq.n	817ac <say_time+0xac>

		//dvajset
		output_signal = pos_stevilo[20];
   817b4:	4b3f      	ldr	r3, [pc, #252]	; (818b4 <say_time+0x1b4>)
   817b6:	6d1b      	ldr	r3, [r3, #80]	; 0x50
   817b8:	4a3f      	ldr	r2, [pc, #252]	; (818b8 <say_time+0x1b8>)
   817ba:	6013      	str	r3, [r2, #0]
		output_signal_size = pos_stevilo_size[20];
   817bc:	4b3f      	ldr	r3, [pc, #252]	; (818bc <say_time+0x1bc>)
   817be:	8d1a      	ldrh	r2, [r3, #40]	; 0x28
   817c0:	4b3f      	ldr	r3, [pc, #252]	; (818c0 <say_time+0x1c0>)
   817c2:	801a      	strh	r2, [r3, #0]
		//vklopimo task dac
		task_dac.status=1;
   817c4:	4b3f      	ldr	r3, [pc, #252]	; (818c4 <say_time+0x1c4>)
   817c6:	2201      	movs	r2, #1
   817c8:	611a      	str	r2, [r3, #16]
		//cakamo, da se predvaja celoten posnetek signala
		while(task_dac.status==1);
   817ca:	bf00      	nop
   817cc:	4b3d      	ldr	r3, [pc, #244]	; (818c4 <say_time+0x1c4>)
   817ce:	691b      	ldr	r3, [r3, #16]
   817d0:	2b01      	cmp	r3, #1
   817d2:	d0fb      	beq.n	817cc <say_time+0xcc>
	}

	//dodamo se in
	output_signal = pos_in;
   817d4:	4b38      	ldr	r3, [pc, #224]	; (818b8 <say_time+0x1b8>)
   817d6:	4a3d      	ldr	r2, [pc, #244]	; (818cc <say_time+0x1cc>)
   817d8:	601a      	str	r2, [r3, #0]
	output_signal_size = pos_in_size;
   817da:	4b3d      	ldr	r3, [pc, #244]	; (818d0 <say_time+0x1d0>)
   817dc:	881a      	ldrh	r2, [r3, #0]
   817de:	4b38      	ldr	r3, [pc, #224]	; (818c0 <say_time+0x1c0>)
   817e0:	801a      	strh	r2, [r3, #0]
	//vklopimo task dac
	task_dac.status=1;
   817e2:	4b38      	ldr	r3, [pc, #224]	; (818c4 <say_time+0x1c4>)
   817e4:	2201      	movs	r2, #1
   817e6:	611a      	str	r2, [r3, #16]
	//cakamo, da se predvaja celoten posnetek signala
	while(task_dac.status==1);
   817e8:	bf00      	nop
   817ea:	4b36      	ldr	r3, [pc, #216]	; (818c4 <say_time+0x1c4>)
   817ec:	691b      	ldr	r3, [r3, #16]
   817ee:	2b01      	cmp	r3, #1
   817f0:	d0fb      	beq.n	817ea <say_time+0xea>

	//ponovimo za trenutne minute
	if(minutes<=20){
   817f2:	4b38      	ldr	r3, [pc, #224]	; (818d4 <say_time+0x1d4>)
   817f4:	781b      	ldrb	r3, [r3, #0]
   817f6:	2b14      	cmp	r3, #20
   817f8:	d818      	bhi.n	8182c <say_time+0x12c>
		output_signal = pos_stevilo[minutes];
   817fa:	4b36      	ldr	r3, [pc, #216]	; (818d4 <say_time+0x1d4>)
   817fc:	781b      	ldrb	r3, [r3, #0]
   817fe:	461a      	mov	r2, r3
   81800:	4b2c      	ldr	r3, [pc, #176]	; (818b4 <say_time+0x1b4>)
   81802:	f853 3022 	ldr.w	r3, [r3, r2, lsl #2]
   81806:	4a2c      	ldr	r2, [pc, #176]	; (818b8 <say_time+0x1b8>)
   81808:	6013      	str	r3, [r2, #0]
		output_signal_size = pos_stevilo_size[minutes];
   8180a:	4b32      	ldr	r3, [pc, #200]	; (818d4 <say_time+0x1d4>)
   8180c:	781b      	ldrb	r3, [r3, #0]
   8180e:	461a      	mov	r2, r3
   81810:	4b2a      	ldr	r3, [pc, #168]	; (818bc <say_time+0x1bc>)
   81812:	f833 2012 	ldrh.w	r2, [r3, r2, lsl #1]
   81816:	4b2a      	ldr	r3, [pc, #168]	; (818c0 <say_time+0x1c0>)
   81818:	801a      	strh	r2, [r3, #0]
		//vklopimo task dac
		task_dac.status=1;
   8181a:	4b2a      	ldr	r3, [pc, #168]	; (818c4 <say_time+0x1c4>)
   8181c:	2201      	movs	r2, #1
   8181e:	611a      	str	r2, [r3, #16]
		//cakamo, da se predvaja celoten posnetek signala
		while(task_dac.status==1);
   81820:	bf00      	nop
   81822:	4b28      	ldr	r3, [pc, #160]	; (818c4 <say_time+0x1c4>)
   81824:	691b      	ldr	r3, [r3, #16]
   81826:	2b01      	cmp	r3, #1
   81828:	d0fb      	beq.n	81822 <say_time+0x122>
   8182a:	e0c2      	b.n	819b2 <say_time+0x2b2>
	}
	else if(minutes%10 == 0){
   8182c:	4b29      	ldr	r3, [pc, #164]	; (818d4 <say_time+0x1d4>)
   8182e:	781a      	ldrb	r2, [r3, #0]
   81830:	4b25      	ldr	r3, [pc, #148]	; (818c8 <say_time+0x1c8>)
   81832:	fba3 1302 	umull	r1, r3, r3, r2
   81836:	08d9      	lsrs	r1, r3, #3
   81838:	460b      	mov	r3, r1
   8183a:	009b      	lsls	r3, r3, #2
   8183c:	440b      	add	r3, r1
   8183e:	005b      	lsls	r3, r3, #1
   81840:	1ad3      	subs	r3, r2, r3
   81842:	b2db      	uxtb	r3, r3
   81844:	2b00      	cmp	r3, #0
   81846:	d147      	bne.n	818d8 <say_time+0x1d8>
		//izgovorimo le mnogokratnik deset
		output_signal = pos_stevilo[minutes/10];
   81848:	4b22      	ldr	r3, [pc, #136]	; (818d4 <say_time+0x1d4>)
   8184a:	781b      	ldrb	r3, [r3, #0]
   8184c:	4a1e      	ldr	r2, [pc, #120]	; (818c8 <say_time+0x1c8>)
   8184e:	fba2 2303 	umull	r2, r3, r2, r3
   81852:	08db      	lsrs	r3, r3, #3
   81854:	b2db      	uxtb	r3, r3
   81856:	461a      	mov	r2, r3
   81858:	4b16      	ldr	r3, [pc, #88]	; (818b4 <say_time+0x1b4>)
   8185a:	f853 3022 	ldr.w	r3, [r3, r2, lsl #2]
   8185e:	4a16      	ldr	r2, [pc, #88]	; (818b8 <say_time+0x1b8>)
   81860:	6013      	str	r3, [r2, #0]
		output_signal_size = pos_stevilo_size[minutes/10];
   81862:	4b1c      	ldr	r3, [pc, #112]	; (818d4 <say_time+0x1d4>)
   81864:	781b      	ldrb	r3, [r3, #0]
   81866:	4a18      	ldr	r2, [pc, #96]	; (818c8 <say_time+0x1c8>)
   81868:	fba2 2303 	umull	r2, r3, r2, r3
   8186c:	08db      	lsrs	r3, r3, #3
   8186e:	b2db      	uxtb	r3, r3
   81870:	461a      	mov	r2, r3
   81872:	4b12      	ldr	r3, [pc, #72]	; (818bc <say_time+0x1bc>)
   81874:	f833 2012 	ldrh.w	r2, [r3, r2, lsl #1]
   81878:	4b11      	ldr	r3, [pc, #68]	; (818c0 <say_time+0x1c0>)
   8187a:	801a      	strh	r2, [r3, #0]
		//vklopimo task dac
		task_dac.status=1;
   8187c:	4b11      	ldr	r3, [pc, #68]	; (818c4 <say_time+0x1c4>)
   8187e:	2201      	movs	r2, #1
   81880:	611a      	str	r2, [r3, #16]
		//cakamo, da se predvaja celoten posnetek signala
		while(task_dac.status==1);
   81882:	bf00      	nop
   81884:	4b0f      	ldr	r3, [pc, #60]	; (818c4 <say_time+0x1c4>)
   81886:	691b      	ldr	r3, [r3, #16]
   81888:	2b01      	cmp	r3, #1
   8188a:	d0fb      	beq.n	81884 <say_time+0x184>

		//ter besedo deset
		output_signal = pos_stevilo[10];
   8188c:	4b09      	ldr	r3, [pc, #36]	; (818b4 <say_time+0x1b4>)
   8188e:	6a9b      	ldr	r3, [r3, #40]	; 0x28
   81890:	4a09      	ldr	r2, [pc, #36]	; (818b8 <say_time+0x1b8>)
   81892:	6013      	str	r3, [r2, #0]
		output_signal_size = pos_stevilo_size[10];
   81894:	4b09      	ldr	r3, [pc, #36]	; (818bc <say_time+0x1bc>)
   81896:	8a9a      	ldrh	r2, [r3, #20]
   81898:	4b09      	ldr	r3, [pc, #36]	; (818c0 <say_time+0x1c0>)
   8189a:	801a      	strh	r2, [r3, #0]
		//vklopimo task dac
		task_dac.status=1;
   8189c:	4b09      	ldr	r3, [pc, #36]	; (818c4 <say_time+0x1c4>)
   8189e:	2201      	movs	r2, #1
   818a0:	611a      	str	r2, [r3, #16]
		//cakamo, da se predvaja celoten posnetek signala
		while(task_dac.status==1);
   818a2:	bf00      	nop
   818a4:	4b07      	ldr	r3, [pc, #28]	; (818c4 <say_time+0x1c4>)
   818a6:	691b      	ldr	r3, [r3, #16]
   818a8:	2b01      	cmp	r3, #1
   818aa:	d0fb      	beq.n	818a4 <say_time+0x1a4>
   818ac:	e081      	b.n	819b2 <say_time+0x2b2>
   818ae:	bf00      	nop
   818b0:	20070258 	.word	0x20070258
   818b4:	20070204 	.word	0x20070204
   818b8:	2007c70c 	.word	0x2007c70c
   818bc:	000a1368 	.word	0x000a1368
   818c0:	2007c710 	.word	0x2007c710
   818c4:	200702d0 	.word	0x200702d0
   818c8:	cccccccd 	.word	0xcccccccd
   818cc:	000a1398 	.word	0x000a1398
   818d0:	000a1394 	.word	0x000a1394
   818d4:	20070259 	.word	0x20070259
	}
	else{
		//izgovorimo enice
		output_signal = pos_stevilo[minutes%10];
   818d8:	4b3f      	ldr	r3, [pc, #252]	; (819d8 <say_time+0x2d8>)
   818da:	781a      	ldrb	r2, [r3, #0]
   818dc:	4b3f      	ldr	r3, [pc, #252]	; (819dc <say_time+0x2dc>)
   818de:	fba3 1302 	umull	r1, r3, r3, r2
   818e2:	08d9      	lsrs	r1, r3, #3
   818e4:	460b      	mov	r3, r1
   818e6:	009b      	lsls	r3, r3, #2
   818e8:	440b      	add	r3, r1
   818ea:	005b      	lsls	r3, r3, #1
   818ec:	1ad3      	subs	r3, r2, r3
   818ee:	b2db      	uxtb	r3, r3
   818f0:	461a      	mov	r2, r3
   818f2:	4b3b      	ldr	r3, [pc, #236]	; (819e0 <say_time+0x2e0>)
   818f4:	f853 3022 	ldr.w	r3, [r3, r2, lsl #2]
   818f8:	4a3a      	ldr	r2, [pc, #232]	; (819e4 <say_time+0x2e4>)
   818fa:	6013      	str	r3, [r2, #0]
		output_signal_size = pos_stevilo_size[minutes%10];
   818fc:	4b36      	ldr	r3, [pc, #216]	; (819d8 <say_time+0x2d8>)
   818fe:	781a      	ldrb	r2, [r3, #0]
   81900:	4b36      	ldr	r3, [pc, #216]	; (819dc <say_time+0x2dc>)
   81902:	fba3 1302 	umull	r1, r3, r3, r2
   81906:	08d9      	lsrs	r1, r3, #3
   81908:	460b      	mov	r3, r1
   8190a:	009b      	lsls	r3, r3, #2
   8190c:	440b      	add	r3, r1
   8190e:	005b      	lsls	r3, r3, #1
   81910:	1ad3      	subs	r3, r2, r3
   81912:	b2db      	uxtb	r3, r3
   81914:	461a      	mov	r2, r3
   81916:	4b34      	ldr	r3, [pc, #208]	; (819e8 <say_time+0x2e8>)
   81918:	f833 2012 	ldrh.w	r2, [r3, r2, lsl #1]
   8191c:	4b33      	ldr	r3, [pc, #204]	; (819ec <say_time+0x2ec>)
   8191e:	801a      	strh	r2, [r3, #0]
		//vklopimo task dac
		task_dac.status=1;
   81920:	4b33      	ldr	r3, [pc, #204]	; (819f0 <say_time+0x2f0>)
   81922:	2201      	movs	r2, #1
   81924:	611a      	str	r2, [r3, #16]
		//cakamo, da se predvaja celoten posnetek signala
		while(task_dac.status==1);
   81926:	bf00      	nop
   81928:	4b31      	ldr	r3, [pc, #196]	; (819f0 <say_time+0x2f0>)
   8192a:	691b      	ldr	r3, [r3, #16]
   8192c:	2b01      	cmp	r3, #1
   8192e:	d0fb      	beq.n	81928 <say_time+0x228>

		//besedo in
		output_signal = pos_in;
   81930:	4b2c      	ldr	r3, [pc, #176]	; (819e4 <say_time+0x2e4>)
   81932:	4a30      	ldr	r2, [pc, #192]	; (819f4 <say_time+0x2f4>)
   81934:	601a      	str	r2, [r3, #0]
		output_signal_size = pos_in_size;
   81936:	4b30      	ldr	r3, [pc, #192]	; (819f8 <say_time+0x2f8>)
   81938:	881a      	ldrh	r2, [r3, #0]
   8193a:	4b2c      	ldr	r3, [pc, #176]	; (819ec <say_time+0x2ec>)
   8193c:	801a      	strh	r2, [r3, #0]
		//vklopimo task dac
		task_dac.status=1;
   8193e:	4b2c      	ldr	r3, [pc, #176]	; (819f0 <say_time+0x2f0>)
   81940:	2201      	movs	r2, #1
   81942:	611a      	str	r2, [r3, #16]
		//cakamo, da se predvaja celoten posnetek signala
		while(task_dac.status==1);
   81944:	bf00      	nop
   81946:	4b2a      	ldr	r3, [pc, #168]	; (819f0 <say_time+0x2f0>)
   81948:	691b      	ldr	r3, [r3, #16]
   8194a:	2b01      	cmp	r3, #1
   8194c:	d0fb      	beq.n	81946 <say_time+0x246>

		//dodamo desetice
		output_signal = pos_stevilo[minutes/10];
   8194e:	4b22      	ldr	r3, [pc, #136]	; (819d8 <say_time+0x2d8>)
   81950:	781b      	ldrb	r3, [r3, #0]
   81952:	4a22      	ldr	r2, [pc, #136]	; (819dc <say_time+0x2dc>)
   81954:	fba2 2303 	umull	r2, r3, r2, r3
   81958:	08db      	lsrs	r3, r3, #3
   8195a:	b2db      	uxtb	r3, r3
   8195c:	461a      	mov	r2, r3
   8195e:	4b20      	ldr	r3, [pc, #128]	; (819e0 <say_time+0x2e0>)
   81960:	f853 3022 	ldr.w	r3, [r3, r2, lsl #2]
   81964:	4a1f      	ldr	r2, [pc, #124]	; (819e4 <say_time+0x2e4>)
   81966:	6013      	str	r3, [r2, #0]
		output_signal_size = pos_stevilo_size[minutes/10];
   81968:	4b1b      	ldr	r3, [pc, #108]	; (819d8 <say_time+0x2d8>)
   8196a:	781b      	ldrb	r3, [r3, #0]
   8196c:	4a1b      	ldr	r2, [pc, #108]	; (819dc <say_time+0x2dc>)
   8196e:	fba2 2303 	umull	r2, r3, r2, r3
   81972:	08db      	lsrs	r3, r3, #3
   81974:	b2db      	uxtb	r3, r3
   81976:	461a      	mov	r2, r3
   81978:	4b1b      	ldr	r3, [pc, #108]	; (819e8 <say_time+0x2e8>)
   8197a:	f833 2012 	ldrh.w	r2, [r3, r2, lsl #1]
   8197e:	4b1b      	ldr	r3, [pc, #108]	; (819ec <say_time+0x2ec>)
   81980:	801a      	strh	r2, [r3, #0]
		//vklopimo task dac
		task_dac.status=1;
   81982:	4b1b      	ldr	r3, [pc, #108]	; (819f0 <say_time+0x2f0>)
   81984:	2201      	movs	r2, #1
   81986:	611a      	str	r2, [r3, #16]
		//cakamo, da se predvaja celoten posnetek signala
		while(task_dac.status==1);
   81988:	bf00      	nop
   8198a:	4b19      	ldr	r3, [pc, #100]	; (819f0 <say_time+0x2f0>)
   8198c:	691b      	ldr	r3, [r3, #16]
   8198e:	2b01      	cmp	r3, #1
   81990:	d0fb      	beq.n	8198a <say_time+0x28a>

		//ter besedo deset
		output_signal = pos_stevilo[10];
   81992:	4b13      	ldr	r3, [pc, #76]	; (819e0 <say_time+0x2e0>)
   81994:	6a9b      	ldr	r3, [r3, #40]	; 0x28
   81996:	4a13      	ldr	r2, [pc, #76]	; (819e4 <say_time+0x2e4>)
   81998:	6013      	str	r3, [r2, #0]
		output_signal_size = pos_stevilo_size[10];
   8199a:	4b13      	ldr	r3, [pc, #76]	; (819e8 <say_time+0x2e8>)
   8199c:	8a9a      	ldrh	r2, [r3, #20]
   8199e:	4b13      	ldr	r3, [pc, #76]	; (819ec <say_time+0x2ec>)
   819a0:	801a      	strh	r2, [r3, #0]
		//vklopimo task dac
		task_dac.status=1;
   819a2:	4b13      	ldr	r3, [pc, #76]	; (819f0 <say_time+0x2f0>)
   819a4:	2201      	movs	r2, #1
   819a6:	611a      	str	r2, [r3, #16]
		//cakamo, da se predvaja celoten posnetek signala
		while(task_dac.status==1);
   819a8:	bf00      	nop
   819aa:	4b11      	ldr	r3, [pc, #68]	; (819f0 <say_time+0x2f0>)
   819ac:	691b      	ldr	r3, [r3, #16]
   819ae:	2b01      	cmp	r3, #1
   819b0:	d0fb      	beq.n	819aa <say_time+0x2aa>

	}

	//ter besedo minut
	output_signal = pos_minut;
   819b2:	4b0c      	ldr	r3, [pc, #48]	; (819e4 <say_time+0x2e4>)
   819b4:	4a11      	ldr	r2, [pc, #68]	; (819fc <say_time+0x2fc>)
   819b6:	601a      	str	r2, [r3, #0]
	output_signal_size = pos_minut_size;
   819b8:	4b11      	ldr	r3, [pc, #68]	; (81a00 <say_time+0x300>)
   819ba:	881a      	ldrh	r2, [r3, #0]
   819bc:	4b0b      	ldr	r3, [pc, #44]	; (819ec <say_time+0x2ec>)
   819be:	801a      	strh	r2, [r3, #0]
	//vklopimo task dac
	task_dac.status=1;
   819c0:	4b0b      	ldr	r3, [pc, #44]	; (819f0 <say_time+0x2f0>)
   819c2:	2201      	movs	r2, #1
   819c4:	611a      	str	r2, [r3, #16]
	//cakamo, da se predvaja celoten posnetek signala
	while(task_dac.status==1);
   819c6:	bf00      	nop
   819c8:	4b09      	ldr	r3, [pc, #36]	; (819f0 <say_time+0x2f0>)
   819ca:	691b      	ldr	r3, [r3, #16]
   819cc:	2b01      	cmp	r3, #1
   819ce:	d0fb      	beq.n	819c8 <say_time+0x2c8>
}
   819d0:	46bd      	mov	sp, r7
   819d2:	f85d 7b04 	ldr.w	r7, [sp], #4
   819d6:	4770      	bx	lr
   819d8:	20070259 	.word	0x20070259
   819dc:	cccccccd 	.word	0xcccccccd
   819e0:	20070204 	.word	0x20070204
   819e4:	2007c70c 	.word	0x2007c70c
   819e8:	000a1368 	.word	0x000a1368
   819ec:	2007c710 	.word	0x2007c710
   819f0:	200702d0 	.word	0x200702d0
   819f4:	000a1398 	.word	0x000a1398
   819f8:	000a1394 	.word	0x000a1394
   819fc:	000a229c 	.word	0x000a229c
   81a00:	000a2298 	.word	0x000a2298

00081a04 <ioport_toggle_pin_level>:
 * an output.
 *
 * \param pin IOPORT pin to toggle
 */
static inline void ioport_toggle_pin_level(ioport_pin_t pin)
{
   81a04:	b480      	push	{r7}
   81a06:	b08b      	sub	sp, #44	; 0x2c
   81a08:	af00      	add	r7, sp, #0
   81a0a:	6078      	str	r0, [r7, #4]
   81a0c:	687b      	ldr	r3, [r7, #4]
   81a0e:	627b      	str	r3, [r7, #36]	; 0x24
   81a10:	6a7b      	ldr	r3, [r7, #36]	; 0x24
   81a12:	623b      	str	r3, [r7, #32]
   81a14:	6a3b      	ldr	r3, [r7, #32]
   81a16:	61fb      	str	r3, [r7, #28]
typedef uint32_t ioport_port_t;
typedef uint32_t ioport_port_mask_t;

__always_inline static ioport_port_t arch_ioport_pin_to_port_id(ioport_pin_t pin)
{
	return pin >> 5;
   81a18:	69fb      	ldr	r3, [r7, #28]
   81a1a:	095b      	lsrs	r3, r3, #5
   81a1c:	61bb      	str	r3, [r7, #24]
	} else {
		return (Pio *)((uintptr_t)IOPORT_BASE_ADDRESS +
		       (IOPORT_PIO_OFFSET * port));
	}
#else
	return (Pio *)((uintptr_t)IOPORT_BASE_ADDRESS +
   81a1e:	69bb      	ldr	r3, [r7, #24]
   81a20:	f503 1300 	add.w	r3, r3, #2097152	; 0x200000
   81a24:	f203 7307 	addw	r3, r3, #1799	; 0x707
   81a28:	025b      	lsls	r3, r3, #9
	return arch_ioport_port_to_base(port)->PIO_PDSR & mask;
}

__always_inline static void arch_ioport_toggle_pin_level(ioport_pin_t pin)
{
	Pio *port = arch_ioport_pin_to_base(pin);
   81a2a:	617b      	str	r3, [r7, #20]
   81a2c:	6a7b      	ldr	r3, [r7, #36]	; 0x24
   81a2e:	613b      	str	r3, [r7, #16]
	return arch_ioport_port_to_base(arch_ioport_pin_to_port_id(pin));
}

__always_inline static ioport_port_mask_t arch_ioport_pin_to_mask(ioport_pin_t pin)
{
	return 1U << (pin & 0x1F);
   81a30:	693b      	ldr	r3, [r7, #16]
   81a32:	f003 031f 	and.w	r3, r3, #31
   81a36:	2201      	movs	r2, #1
   81a38:	fa02 f303 	lsl.w	r3, r2, r3
}

__always_inline static void arch_ioport_toggle_pin_level(ioport_pin_t pin)
{
	Pio *port = arch_ioport_pin_to_base(pin);
	ioport_port_mask_t mask = arch_ioport_pin_to_mask(pin);
   81a3c:	60fb      	str	r3, [r7, #12]

	if (port->PIO_PDSR & arch_ioport_pin_to_mask(pin)) {
   81a3e:	697b      	ldr	r3, [r7, #20]
   81a40:	6bda      	ldr	r2, [r3, #60]	; 0x3c
   81a42:	6a7b      	ldr	r3, [r7, #36]	; 0x24
   81a44:	60bb      	str	r3, [r7, #8]
	return arch_ioport_port_to_base(arch_ioport_pin_to_port_id(pin));
}

__always_inline static ioport_port_mask_t arch_ioport_pin_to_mask(ioport_pin_t pin)
{
	return 1U << (pin & 0x1F);
   81a46:	68bb      	ldr	r3, [r7, #8]
   81a48:	f003 031f 	and.w	r3, r3, #31
   81a4c:	2101      	movs	r1, #1
   81a4e:	fa01 f303 	lsl.w	r3, r1, r3
__always_inline static void arch_ioport_toggle_pin_level(ioport_pin_t pin)
{
	Pio *port = arch_ioport_pin_to_base(pin);
	ioport_port_mask_t mask = arch_ioport_pin_to_mask(pin);

	if (port->PIO_PDSR & arch_ioport_pin_to_mask(pin)) {
   81a52:	4013      	ands	r3, r2
   81a54:	2b00      	cmp	r3, #0
   81a56:	d003      	beq.n	81a60 <ioport_toggle_pin_level+0x5c>
		port->PIO_CODR = mask;
   81a58:	697b      	ldr	r3, [r7, #20]
   81a5a:	68fa      	ldr	r2, [r7, #12]
   81a5c:	635a      	str	r2, [r3, #52]	; 0x34
   81a5e:	e002      	b.n	81a66 <ioport_toggle_pin_level+0x62>
	} else {
		port->PIO_SODR = mask;
   81a60:	697b      	ldr	r3, [r7, #20]
   81a62:	68fa      	ldr	r2, [r7, #12]
   81a64:	631a      	str	r2, [r3, #48]	; 0x30
	arch_ioport_toggle_pin_level(pin);
}
   81a66:	372c      	adds	r7, #44	; 0x2c
   81a68:	46bd      	mov	sp, r7
   81a6a:	f85d 7b04 	ldr.w	r7, [sp], #4
   81a6e:	4770      	bx	lr

00081a70 <leds_driver>:
	.priority = 3,
	.interval = 5*500,	//perioda 48Hz
	.status = 1,
};

void leds_driver(void){
   81a70:	b580      	push	{r7, lr}
   81a72:	af00      	add	r7, sp, #0
	static uint16_t stevec_status1 = 0;

	switch((int32_t)task_leds.status){
   81a74:	4b13      	ldr	r3, [pc, #76]	; (81ac4 <leds_driver+0x54>)
   81a76:	691b      	ldr	r3, [r3, #16]
   81a78:	2b02      	cmp	r3, #2
   81a7a:	d018      	beq.n	81aae <leds_driver+0x3e>
   81a7c:	2b03      	cmp	r3, #3
   81a7e:	d01b      	beq.n	81ab8 <leds_driver+0x48>
   81a80:	2b01      	cmp	r3, #1
   81a82:	d11d      	bne.n	81ac0 <leds_driver+0x50>
		case 1:
			//poslusa - LED2 utripa
			if(stevec_status1==3){
   81a84:	4b10      	ldr	r3, [pc, #64]	; (81ac8 <leds_driver+0x58>)
   81a86:	881b      	ldrh	r3, [r3, #0]
   81a88:	2b03      	cmp	r3, #3
   81a8a:	d102      	bne.n	81a92 <leds_driver+0x22>
				led_toggle_state(1<<1);
   81a8c:	2002      	movs	r0, #2
   81a8e:	f000 fba3 	bl	821d8 <led_toggle_state>
			}
			stevec_status1++;
   81a92:	4b0d      	ldr	r3, [pc, #52]	; (81ac8 <leds_driver+0x58>)
   81a94:	881b      	ldrh	r3, [r3, #0]
   81a96:	3301      	adds	r3, #1
   81a98:	b29a      	uxth	r2, r3
   81a9a:	4b0b      	ldr	r3, [pc, #44]	; (81ac8 <leds_driver+0x58>)
   81a9c:	801a      	strh	r2, [r3, #0]
			stevec_status1 = stevec_status1 % 4;	//za periodo 12Hz
   81a9e:	4b0a      	ldr	r3, [pc, #40]	; (81ac8 <leds_driver+0x58>)
   81aa0:	881b      	ldrh	r3, [r3, #0]
   81aa2:	f003 0303 	and.w	r3, r3, #3
   81aa6:	b29a      	uxth	r2, r3
   81aa8:	4b07      	ldr	r3, [pc, #28]	; (81ac8 <leds_driver+0x58>)
   81aaa:	801a      	strh	r2, [r3, #0]
			break;
   81aac:	e008      	b.n	81ac0 <leds_driver+0x50>
		case 2:
			//slisi zvok - LED1 on
			led_set_state(~0x0001);
   81aae:	f06f 0001 	mvn.w	r0, #1
   81ab2:	f000 fb65 	bl	82180 <led_set_state>
			break;
   81ab6:	e003      	b.n	81ac0 <leds_driver+0x50>
		case 3:
			//racuna - LED3 utripa hitreje ko drugace LED2
			led_toggle_state(1<<2);
   81ab8:	2004      	movs	r0, #4
   81aba:	f000 fb8d 	bl	821d8 <led_toggle_state>
			break;
   81abe:	bf00      	nop
	}
}
   81ac0:	bd80      	pop	{r7, pc}
   81ac2:	bf00      	nop
   81ac4:	20070274 	.word	0x20070274
   81ac8:	2007c6ca 	.word	0x2007c6ca

00081acc <buttons_driver>:
	.priority = 2,
	.interval = 5*250,	//perioda 96Hz
	.status = 1,
};

void buttons_driver(void){
   81acc:	b580      	push	{r7, lr}
   81ace:	b082      	sub	sp, #8
   81ad0:	af00      	add	r7, sp, #0
	uint8_t button_press = get_button_press();
   81ad2:	f000 fac1 	bl	82058 <get_button_press>
   81ad6:	4603      	mov	r3, r0
   81ad8:	71fb      	strb	r3, [r7, #7]

	//se odzovemo glede na pritisnjeno tipko

	//ce je prva, povecamo ure
	if(button_press & (1<<0)){
   81ada:	79fb      	ldrb	r3, [r7, #7]
   81adc:	f003 0301 	and.w	r3, r3, #1
   81ae0:	2b00      	cmp	r3, #0
   81ae2:	d013      	beq.n	81b0c <buttons_driver+0x40>
		hours++;
   81ae4:	4b27      	ldr	r3, [pc, #156]	; (81b84 <buttons_driver+0xb8>)
   81ae6:	781b      	ldrb	r3, [r3, #0]
   81ae8:	3301      	adds	r3, #1
   81aea:	b2da      	uxtb	r2, r3
   81aec:	4b25      	ldr	r3, [pc, #148]	; (81b84 <buttons_driver+0xb8>)
   81aee:	701a      	strb	r2, [r3, #0]
		hours = hours%24;
   81af0:	4b24      	ldr	r3, [pc, #144]	; (81b84 <buttons_driver+0xb8>)
   81af2:	781a      	ldrb	r2, [r3, #0]
   81af4:	4b24      	ldr	r3, [pc, #144]	; (81b88 <buttons_driver+0xbc>)
   81af6:	fba3 1302 	umull	r1, r3, r3, r2
   81afa:	0919      	lsrs	r1, r3, #4
   81afc:	460b      	mov	r3, r1
   81afe:	005b      	lsls	r3, r3, #1
   81b00:	440b      	add	r3, r1
   81b02:	00db      	lsls	r3, r3, #3
   81b04:	1ad3      	subs	r3, r2, r3
   81b06:	b2da      	uxtb	r2, r3
   81b08:	4b1e      	ldr	r3, [pc, #120]	; (81b84 <buttons_driver+0xb8>)
   81b0a:	701a      	strb	r2, [r3, #0]
	}
	//ce je druga, povecamo min
	if(button_press & (1<<1)){
   81b0c:	79fb      	ldrb	r3, [r7, #7]
   81b0e:	f003 0302 	and.w	r3, r3, #2
   81b12:	2b00      	cmp	r3, #0
   81b14:	d020      	beq.n	81b58 <buttons_driver+0x8c>
		minutes++;
   81b16:	4b1d      	ldr	r3, [pc, #116]	; (81b8c <buttons_driver+0xc0>)
   81b18:	781b      	ldrb	r3, [r3, #0]
   81b1a:	3301      	adds	r3, #1
   81b1c:	b2da      	uxtb	r2, r3
   81b1e:	4b1b      	ldr	r3, [pc, #108]	; (81b8c <buttons_driver+0xc0>)
   81b20:	701a      	strb	r2, [r3, #0]
		if(minutes==60){
   81b22:	4b1a      	ldr	r3, [pc, #104]	; (81b8c <buttons_driver+0xc0>)
   81b24:	781b      	ldrb	r3, [r3, #0]
   81b26:	2b3c      	cmp	r3, #60	; 0x3c
   81b28:	d116      	bne.n	81b58 <buttons_driver+0x8c>
			minutes=0;
   81b2a:	4b18      	ldr	r3, [pc, #96]	; (81b8c <buttons_driver+0xc0>)
   81b2c:	2200      	movs	r2, #0
   81b2e:	701a      	strb	r2, [r3, #0]
			hours++;
   81b30:	4b14      	ldr	r3, [pc, #80]	; (81b84 <buttons_driver+0xb8>)
   81b32:	781b      	ldrb	r3, [r3, #0]
   81b34:	3301      	adds	r3, #1
   81b36:	b2da      	uxtb	r2, r3
   81b38:	4b12      	ldr	r3, [pc, #72]	; (81b84 <buttons_driver+0xb8>)
   81b3a:	701a      	strb	r2, [r3, #0]
			hours = hours%24;
   81b3c:	4b11      	ldr	r3, [pc, #68]	; (81b84 <buttons_driver+0xb8>)
   81b3e:	781a      	ldrb	r2, [r3, #0]
   81b40:	4b11      	ldr	r3, [pc, #68]	; (81b88 <buttons_driver+0xbc>)
   81b42:	fba3 1302 	umull	r1, r3, r3, r2
   81b46:	0919      	lsrs	r1, r3, #4
   81b48:	460b      	mov	r3, r1
   81b4a:	005b      	lsls	r3, r3, #1
   81b4c:	440b      	add	r3, r1
   81b4e:	00db      	lsls	r3, r3, #3
   81b50:	1ad3      	subs	r3, r2, r3
   81b52:	b2da      	uxtb	r2, r3
   81b54:	4b0b      	ldr	r3, [pc, #44]	; (81b84 <buttons_driver+0xb8>)
   81b56:	701a      	strb	r2, [r3, #0]
		}
	}
	//ce je tretja, zmanjsamo minute
	if(button_press & (1<<2)){
   81b58:	79fb      	ldrb	r3, [r7, #7]
   81b5a:	f003 0304 	and.w	r3, r3, #4
   81b5e:	2b00      	cmp	r3, #0
   81b60:	d005      	beq.n	81b6e <buttons_driver+0xa2>
		minutes--;
   81b62:	4b0a      	ldr	r3, [pc, #40]	; (81b8c <buttons_driver+0xc0>)
   81b64:	781b      	ldrb	r3, [r3, #0]
   81b66:	3b01      	subs	r3, #1
   81b68:	b2da      	uxtb	r2, r3
   81b6a:	4b08      	ldr	r3, [pc, #32]	; (81b8c <buttons_driver+0xc0>)
   81b6c:	701a      	strb	r2, [r3, #0]
				hours = 23;
			}
		}
	}
	//spremenimo stanje luci (LED 4)
	if(button_press & (1<<3)){
   81b6e:	79fb      	ldrb	r3, [r7, #7]
   81b70:	f003 0308 	and.w	r3, r3, #8
   81b74:	2b00      	cmp	r3, #0
   81b76:	d002      	beq.n	81b7e <buttons_driver+0xb2>
		ioport_toggle_pin_level(D4);	//ker je posebej od test board, da niso tezave z ostalimi
   81b78:	2067      	movs	r0, #103	; 0x67
   81b7a:	f7ff ff43 	bl	81a04 <ioport_toggle_pin_level>
	}

}
   81b7e:	3708      	adds	r7, #8
   81b80:	46bd      	mov	sp, r7
   81b82:	bd80      	pop	{r7, pc}
   81b84:	20070258 	.word	0x20070258
   81b88:	aaaaaaab 	.word	0xaaaaaaab
   81b8c:	20070259 	.word	0x20070259

00081b90 <clock_driver>:
	.priority = 4,
	.interval = 5*1000,	//perioda 24Hz
	.status = 1,
};

void clock_driver(void){
   81b90:	b480      	push	{r7}
   81b92:	af00      	add	r7, sp, #0
	static uint16_t stevec = 0;


	//vpisemo trenutno stanje tipk v buffer
	if(stevec == 24*60){
   81b94:	4b15      	ldr	r3, [pc, #84]	; (81bec <clock_driver+0x5c>)
   81b96:	881b      	ldrh	r3, [r3, #0]
   81b98:	f5b3 6fb4 	cmp.w	r3, #1440	; 0x5a0
   81b9c:	d11c      	bne.n	81bd8 <clock_driver+0x48>
		stevec = 0;
   81b9e:	4b13      	ldr	r3, [pc, #76]	; (81bec <clock_driver+0x5c>)
   81ba0:	2200      	movs	r2, #0
   81ba2:	801a      	strh	r2, [r3, #0]
		minutes++;
   81ba4:	4b12      	ldr	r3, [pc, #72]	; (81bf0 <clock_driver+0x60>)
   81ba6:	781b      	ldrb	r3, [r3, #0]
   81ba8:	3301      	adds	r3, #1
   81baa:	b2da      	uxtb	r2, r3
   81bac:	4b10      	ldr	r3, [pc, #64]	; (81bf0 <clock_driver+0x60>)
   81bae:	701a      	strb	r2, [r3, #0]
		if(minutes==60){
   81bb0:	4b0f      	ldr	r3, [pc, #60]	; (81bf0 <clock_driver+0x60>)
   81bb2:	781b      	ldrb	r3, [r3, #0]
   81bb4:	2b3c      	cmp	r3, #60	; 0x3c
   81bb6:	d10f      	bne.n	81bd8 <clock_driver+0x48>
			minutes=0;
   81bb8:	4b0d      	ldr	r3, [pc, #52]	; (81bf0 <clock_driver+0x60>)
   81bba:	2200      	movs	r2, #0
   81bbc:	701a      	strb	r2, [r3, #0]
			hours++;
   81bbe:	4b0d      	ldr	r3, [pc, #52]	; (81bf4 <clock_driver+0x64>)
   81bc0:	781b      	ldrb	r3, [r3, #0]
   81bc2:	3301      	adds	r3, #1
   81bc4:	b2da      	uxtb	r2, r3
   81bc6:	4b0b      	ldr	r3, [pc, #44]	; (81bf4 <clock_driver+0x64>)
   81bc8:	701a      	strb	r2, [r3, #0]
			if(hours==24){
   81bca:	4b0a      	ldr	r3, [pc, #40]	; (81bf4 <clock_driver+0x64>)
   81bcc:	781b      	ldrb	r3, [r3, #0]
   81bce:	2b18      	cmp	r3, #24
   81bd0:	d102      	bne.n	81bd8 <clock_driver+0x48>
				hours=0;
   81bd2:	4b08      	ldr	r3, [pc, #32]	; (81bf4 <clock_driver+0x64>)
   81bd4:	2200      	movs	r2, #0
   81bd6:	701a      	strb	r2, [r3, #0]
			}
		}
	}

	stevec++;
   81bd8:	4b04      	ldr	r3, [pc, #16]	; (81bec <clock_driver+0x5c>)
   81bda:	881b      	ldrh	r3, [r3, #0]
   81bdc:	3301      	adds	r3, #1
   81bde:	b29a      	uxth	r2, r3
   81be0:	4b02      	ldr	r3, [pc, #8]	; (81bec <clock_driver+0x5c>)
   81be2:	801a      	strh	r2, [r3, #0]
}
   81be4:	46bd      	mov	sp, r7
   81be6:	f85d 7b04 	ldr.w	r7, [sp], #4
   81bea:	4770      	bx	lr
   81bec:	2007c6cc 	.word	0x2007c6cc
   81bf0:	20070259 	.word	0x20070259
   81bf4:	20070258 	.word	0x20070258

00081bf8 <adc_driver>:
	.interval = 5,			//perioda je 24kHz
	.status = 1,
};

/* driver, le vzorci vhodni signal na adc in ga vpise v fifo */
void adc_driver(void){
   81bf8:	b580      	push	{r7, lr}
   81bfa:	b082      	sub	sp, #8
   81bfc:	af00      	add	r7, sp, #0
	uint8_t n = 0;
   81bfe:	2300      	movs	r3, #0
   81c00:	71fb      	strb	r3, [r7, #7]

	uint16_t adc_val = adc_read();
   81c02:	f000 f9d7 	bl	81fb4 <adc_read>
   81c06:	4603      	mov	r3, r0
   81c08:	b29b      	uxth	r3, r3
   81c0a:	80bb      	strh	r3, [r7, #4]

	adc_val = (adc_val%4048);	//da ga ne zabije kar nekam
   81c0c:	88bb      	ldrh	r3, [r7, #4]
   81c0e:	4a0f      	ldr	r2, [pc, #60]	; (81c4c <adc_driver+0x54>)
   81c10:	fba2 1203 	umull	r1, r2, r2, r3
   81c14:	0ad2      	lsrs	r2, r2, #11
   81c16:	f44f 617d 	mov.w	r1, #4048	; 0xfd0
   81c1a:	fb01 f202 	mul.w	r2, r1, r2
   81c1e:	1a9b      	subs	r3, r3, r2
   81c20:	b29b      	uxth	r3, r3
   81c22:	80bb      	strh	r3, [r7, #4]

	//ko preberemo nov vzorec, ga se filtriramo s korekcijskim LP IIR filtrom <- preveri, ce je dovolj hitro!!!
//	adc_val = iir_filter(adc_val);

	n = fifo_write(&adc_fifo, &adc_val, 1);
   81c24:	1d3b      	adds	r3, r7, #4
   81c26:	480a      	ldr	r0, [pc, #40]	; (81c50 <adc_driver+0x58>)
   81c28:	4619      	mov	r1, r3
   81c2a:	2201      	movs	r2, #1
   81c2c:	f000 fc8a 	bl	82544 <fifo_write>
   81c30:	4603      	mov	r3, r0
   81c32:	71fb      	strb	r3, [r7, #7]

	if(n==0){
   81c34:	79fb      	ldrb	r3, [r7, #7]
   81c36:	2b00      	cmp	r3, #0
   81c38:	d104      	bne.n	81c44 <adc_driver+0x4c>
		;//nekaj naredi?, ker sem zafilal buffer
		//buttons_fifo.write_idx = 0;
		//buttons_fifo.read_idx = 0;
		led_set_state(~0x0002);
   81c3a:	f06f 0002 	mvn.w	r0, #2
   81c3e:	f000 fa9f 	bl	82180 <led_set_state>
		while(1);
   81c42:	e7fe      	b.n	81c42 <adc_driver+0x4a>
	}

}
   81c44:	3708      	adds	r7, #8
   81c46:	46bd      	mov	sp, r7
   81c48:	bd80      	pop	{r7, pc}
   81c4a:	bf00      	nop
   81c4c:	81848da9 	.word	0x81848da9
   81c50:	200702b0 	.word	0x200702b0

00081c54 <dac_driver>:
	.interval = 5,			//perioda je 24kHz
	.status = 0,
};

/* driver, le da na izhodu dac vrednost posnetega signala */
void dac_driver(void){
   81c54:	b580      	push	{r7, lr}
   81c56:	af00      	add	r7, sp, #0
		dac_write(dac_val);
	}*/

	static uint16_t sample=0;	//stevec vzorca signala, ki se predvaja

	dac_write(output_signal[sample]);	//damo na dac trenutni vzorec
   81c58:	4b0e      	ldr	r3, [pc, #56]	; (81c94 <dac_driver+0x40>)
   81c5a:	681a      	ldr	r2, [r3, #0]
   81c5c:	4b0e      	ldr	r3, [pc, #56]	; (81c98 <dac_driver+0x44>)
   81c5e:	881b      	ldrh	r3, [r3, #0]
   81c60:	005b      	lsls	r3, r3, #1
   81c62:	4413      	add	r3, r2
   81c64:	881b      	ldrh	r3, [r3, #0]
   81c66:	4618      	mov	r0, r3
   81c68:	f000 f9de 	bl	82028 <dac_write>

	sample++;	//premaknemo se na naslednji vzorec signala
   81c6c:	4b0a      	ldr	r3, [pc, #40]	; (81c98 <dac_driver+0x44>)
   81c6e:	881b      	ldrh	r3, [r3, #0]
   81c70:	3301      	adds	r3, #1
   81c72:	b29a      	uxth	r2, r3
   81c74:	4b08      	ldr	r3, [pc, #32]	; (81c98 <dac_driver+0x44>)
   81c76:	801a      	strh	r2, [r3, #0]
	//ce smo prisli s predvajanjem signala do konca, prekinemo z opravilom task_dac
	if(sample == output_signal_size){
   81c78:	4b07      	ldr	r3, [pc, #28]	; (81c98 <dac_driver+0x44>)
   81c7a:	881a      	ldrh	r2, [r3, #0]
   81c7c:	4b07      	ldr	r3, [pc, #28]	; (81c9c <dac_driver+0x48>)
   81c7e:	881b      	ldrh	r3, [r3, #0]
   81c80:	429a      	cmp	r2, r3
   81c82:	d105      	bne.n	81c90 <dac_driver+0x3c>
		task_dac.status=0;
   81c84:	4b06      	ldr	r3, [pc, #24]	; (81ca0 <dac_driver+0x4c>)
   81c86:	2200      	movs	r2, #0
   81c88:	611a      	str	r2, [r3, #16]
		sample=0;	//pripravimo se na naslednji vzorec
   81c8a:	4b03      	ldr	r3, [pc, #12]	; (81c98 <dac_driver+0x44>)
   81c8c:	2200      	movs	r2, #0
   81c8e:	801a      	strh	r2, [r3, #0]
	}

}
   81c90:	bd80      	pop	{r7, pc}
   81c92:	bf00      	nop
   81c94:	2007c70c 	.word	0x2007c70c
   81c98:	2007c6ce 	.word	0x2007c6ce
   81c9c:	2007c710 	.word	0x2007c710
   81ca0:	200702d0 	.word	0x200702d0

00081ca4 <sysclk_enable_peripheral_clock>:
 * \brief Enable a peripheral's clock.
 *
 * \param ul_id Id (number) of the peripheral clock.
 */
static inline void sysclk_enable_peripheral_clock(uint32_t ul_id)
{
   81ca4:	b580      	push	{r7, lr}
   81ca6:	b082      	sub	sp, #8
   81ca8:	af00      	add	r7, sp, #0
   81caa:	6078      	str	r0, [r7, #4]
	pmc_enable_periph_clk(ul_id);
   81cac:	6878      	ldr	r0, [r7, #4]
   81cae:	f001 f867 	bl	82d80 <pmc_enable_periph_clk>
}
   81cb2:	3708      	adds	r7, #8
   81cb4:	46bd      	mov	sp, r7
   81cb6:	bd80      	pop	{r7, pc}

00081cb8 <ioport_init>:
 *
 * This function must be called before using any other functions in the IOPORT
 * service.
 */
static inline void ioport_init(void)
{
   81cb8:	b580      	push	{r7, lr}
   81cba:	af00      	add	r7, sp, #0
}

__always_inline static void arch_ioport_init(void)
{
#ifdef ID_PIOA
	sysclk_enable_peripheral_clock(ID_PIOA);
   81cbc:	200b      	movs	r0, #11
   81cbe:	f7ff fff1 	bl	81ca4 <sysclk_enable_peripheral_clock>
#endif
#ifdef ID_PIOB
	sysclk_enable_peripheral_clock(ID_PIOB);
   81cc2:	200c      	movs	r0, #12
   81cc4:	f7ff ffee 	bl	81ca4 <sysclk_enable_peripheral_clock>
#endif
#ifdef ID_PIOC
	sysclk_enable_peripheral_clock(ID_PIOC);
   81cc8:	200d      	movs	r0, #13
   81cca:	f7ff ffeb 	bl	81ca4 <sysclk_enable_peripheral_clock>
#endif
#ifdef ID_PIOD
	sysclk_enable_peripheral_clock(ID_PIOD);
   81cce:	200e      	movs	r0, #14
   81cd0:	f7ff ffe8 	bl	81ca4 <sysclk_enable_peripheral_clock>
	arch_ioport_init();
}
   81cd4:	bd80      	pop	{r7, pc}
   81cd6:	bf00      	nop

00081cd8 <ioport_set_pin_mode>:
 *
 * \param pin IOPORT pin to configure
 * \param mode Mode masks to configure for the specified pin (\ref ioport_modes)
 */
static inline void ioport_set_pin_mode(ioport_pin_t pin, ioport_mode_t mode)
{
   81cd8:	b480      	push	{r7}
   81cda:	b08d      	sub	sp, #52	; 0x34
   81cdc:	af00      	add	r7, sp, #0
   81cde:	6078      	str	r0, [r7, #4]
   81ce0:	6039      	str	r1, [r7, #0]
   81ce2:	687b      	ldr	r3, [r7, #4]
   81ce4:	62fb      	str	r3, [r7, #44]	; 0x2c
   81ce6:	683b      	ldr	r3, [r7, #0]
   81ce8:	62bb      	str	r3, [r7, #40]	; 0x28
   81cea:	6afb      	ldr	r3, [r7, #44]	; 0x2c
   81cec:	627b      	str	r3, [r7, #36]	; 0x24
typedef uint32_t ioport_port_t;
typedef uint32_t ioport_port_mask_t;

__always_inline static ioport_port_t arch_ioport_pin_to_port_id(ioport_pin_t pin)
{
	return pin >> 5;
   81cee:	6a7b      	ldr	r3, [r7, #36]	; 0x24
   81cf0:	095a      	lsrs	r2, r3, #5
   81cf2:	6afb      	ldr	r3, [r7, #44]	; 0x2c
   81cf4:	623b      	str	r3, [r7, #32]
	return arch_ioport_port_to_base(arch_ioport_pin_to_port_id(pin));
}

__always_inline static ioport_port_mask_t arch_ioport_pin_to_mask(ioport_pin_t pin)
{
	return 1U << (pin & 0x1F);
   81cf6:	6a3b      	ldr	r3, [r7, #32]
   81cf8:	f003 031f 	and.w	r3, r3, #31
   81cfc:	2101      	movs	r1, #1
   81cfe:	fa01 f303 	lsl.w	r3, r1, r3
   81d02:	61fa      	str	r2, [r7, #28]
   81d04:	61bb      	str	r3, [r7, #24]
   81d06:	6abb      	ldr	r3, [r7, #40]	; 0x28
   81d08:	617b      	str	r3, [r7, #20]
   81d0a:	69fb      	ldr	r3, [r7, #28]
   81d0c:	613b      	str	r3, [r7, #16]
	} else {
		return (Pio *)((uintptr_t)IOPORT_BASE_ADDRESS +
		       (IOPORT_PIO_OFFSET * port));
	}
#else
	return (Pio *)((uintptr_t)IOPORT_BASE_ADDRESS +
   81d0e:	693b      	ldr	r3, [r7, #16]
   81d10:	f503 1300 	add.w	r3, r3, #2097152	; 0x200000
   81d14:	f203 7307 	addw	r3, r3, #1799	; 0x707
   81d18:	025b      	lsls	r3, r3, #9
}

__always_inline static void arch_ioport_set_port_mode(ioport_port_t port,
		ioport_port_mask_t mask, ioport_mode_t mode)
{
	Pio *base = arch_ioport_port_to_base(port);
   81d1a:	60fb      	str	r3, [r7, #12]

	if (mode & IOPORT_MODE_PULLUP) {
   81d1c:	697b      	ldr	r3, [r7, #20]
   81d1e:	f003 0308 	and.w	r3, r3, #8
   81d22:	2b00      	cmp	r3, #0
   81d24:	d003      	beq.n	81d2e <ioport_set_pin_mode+0x56>
		base->PIO_PUER = mask;
   81d26:	68fb      	ldr	r3, [r7, #12]
   81d28:	69ba      	ldr	r2, [r7, #24]
   81d2a:	665a      	str	r2, [r3, #100]	; 0x64
   81d2c:	e002      	b.n	81d34 <ioport_set_pin_mode+0x5c>
	} else {
		base->PIO_PUDR = mask;
   81d2e:	68fb      	ldr	r3, [r7, #12]
   81d30:	69ba      	ldr	r2, [r7, #24]
   81d32:	661a      	str	r2, [r3, #96]	; 0x60
	} else {
		base->PIO_PPDDR = mask;
	}
#endif

	if (mode & IOPORT_MODE_OPEN_DRAIN) {
   81d34:	697b      	ldr	r3, [r7, #20]
   81d36:	f003 0320 	and.w	r3, r3, #32
   81d3a:	2b00      	cmp	r3, #0
   81d3c:	d003      	beq.n	81d46 <ioport_set_pin_mode+0x6e>
		base->PIO_MDER = mask;
   81d3e:	68fb      	ldr	r3, [r7, #12]
   81d40:	69ba      	ldr	r2, [r7, #24]
   81d42:	651a      	str	r2, [r3, #80]	; 0x50
   81d44:	e002      	b.n	81d4c <ioport_set_pin_mode+0x74>
	} else {
		base->PIO_MDDR = mask;
   81d46:	68fb      	ldr	r3, [r7, #12]
   81d48:	69ba      	ldr	r2, [r7, #24]
   81d4a:	655a      	str	r2, [r3, #84]	; 0x54
	}

	if (mode & (IOPORT_MODE_GLITCH_FILTER | IOPORT_MODE_DEBOUNCE)) {
   81d4c:	697b      	ldr	r3, [r7, #20]
   81d4e:	f003 03c0 	and.w	r3, r3, #192	; 0xc0
   81d52:	2b00      	cmp	r3, #0
   81d54:	d003      	beq.n	81d5e <ioport_set_pin_mode+0x86>
		base->PIO_IFER = mask;
   81d56:	68fb      	ldr	r3, [r7, #12]
   81d58:	69ba      	ldr	r2, [r7, #24]
   81d5a:	621a      	str	r2, [r3, #32]
   81d5c:	e002      	b.n	81d64 <ioport_set_pin_mode+0x8c>
	} else {
		base->PIO_IFDR = mask;
   81d5e:	68fb      	ldr	r3, [r7, #12]
   81d60:	69ba      	ldr	r2, [r7, #24]
   81d62:	625a      	str	r2, [r3, #36]	; 0x24
	}

	if (mode & IOPORT_MODE_DEBOUNCE) {
   81d64:	697b      	ldr	r3, [r7, #20]
   81d66:	f003 0380 	and.w	r3, r3, #128	; 0x80
   81d6a:	2b00      	cmp	r3, #0
   81d6c:	d004      	beq.n	81d78 <ioport_set_pin_mode+0xa0>
#if SAM3U || SAM3XA
		base->PIO_DIFSR = mask;
   81d6e:	68fb      	ldr	r3, [r7, #12]
   81d70:	69ba      	ldr	r2, [r7, #24]
   81d72:	f8c3 2084 	str.w	r2, [r3, #132]	; 0x84
   81d76:	e003      	b.n	81d80 <ioport_set_pin_mode+0xa8>
#else
		base->PIO_IFSCER = mask;
#endif
	} else {
#if SAM3U || SAM3XA
		base->PIO_SCIFSR = mask;
   81d78:	68fb      	ldr	r3, [r7, #12]
   81d7a:	69ba      	ldr	r2, [r7, #24]
   81d7c:	f8c3 2080 	str.w	r2, [r3, #128]	; 0x80
		base->PIO_IFSCDR = mask;
#endif
	}

#if !defined(IOPORT_MODE_MUX_BIT1)
	if (mode & IOPORT_MODE_MUX_BIT0) {
   81d80:	697b      	ldr	r3, [r7, #20]
   81d82:	f003 0301 	and.w	r3, r3, #1
   81d86:	2b00      	cmp	r3, #0
   81d88:	d006      	beq.n	81d98 <ioport_set_pin_mode+0xc0>
		base->PIO_ABSR |= mask;
   81d8a:	68fb      	ldr	r3, [r7, #12]
   81d8c:	6f1a      	ldr	r2, [r3, #112]	; 0x70
   81d8e:	69bb      	ldr	r3, [r7, #24]
   81d90:	431a      	orrs	r2, r3
   81d92:	68fb      	ldr	r3, [r7, #12]
   81d94:	671a      	str	r2, [r3, #112]	; 0x70
   81d96:	e006      	b.n	81da6 <ioport_set_pin_mode+0xce>
	} else {
		base->PIO_ABSR &= ~mask;
   81d98:	68fb      	ldr	r3, [r7, #12]
   81d9a:	6f1a      	ldr	r2, [r3, #112]	; 0x70
   81d9c:	69bb      	ldr	r3, [r7, #24]
   81d9e:	43db      	mvns	r3, r3
   81da0:	401a      	ands	r2, r3
   81da2:	68fb      	ldr	r3, [r7, #12]
   81da4:	671a      	str	r2, [r3, #112]	; 0x70
	arch_ioport_set_pin_mode(pin, mode);
}
   81da6:	3734      	adds	r7, #52	; 0x34
   81da8:	46bd      	mov	sp, r7
   81daa:	f85d 7b04 	ldr.w	r7, [sp], #4
   81dae:	4770      	bx	lr

00081db0 <ioport_set_pin_dir>:
 * \param pin IOPORT pin to configure
 * \param dir Direction to set for the specified pin (\ref ioport_direction)
 */
static inline void ioport_set_pin_dir(ioport_pin_t pin,
		enum ioport_direction dir)
{
   81db0:	b480      	push	{r7}
   81db2:	b08d      	sub	sp, #52	; 0x34
   81db4:	af00      	add	r7, sp, #0
   81db6:	6078      	str	r0, [r7, #4]
   81db8:	460b      	mov	r3, r1
   81dba:	70fb      	strb	r3, [r7, #3]
   81dbc:	687b      	ldr	r3, [r7, #4]
   81dbe:	62fb      	str	r3, [r7, #44]	; 0x2c
   81dc0:	78fb      	ldrb	r3, [r7, #3]
   81dc2:	f887 302b 	strb.w	r3, [r7, #43]	; 0x2b
   81dc6:	6afb      	ldr	r3, [r7, #44]	; 0x2c
   81dc8:	627b      	str	r3, [r7, #36]	; 0x24
   81dca:	6a7b      	ldr	r3, [r7, #36]	; 0x24
   81dcc:	623b      	str	r3, [r7, #32]
typedef uint32_t ioport_port_t;
typedef uint32_t ioport_port_mask_t;

__always_inline static ioport_port_t arch_ioport_pin_to_port_id(ioport_pin_t pin)
{
	return pin >> 5;
   81dce:	6a3b      	ldr	r3, [r7, #32]
   81dd0:	095b      	lsrs	r3, r3, #5
   81dd2:	61fb      	str	r3, [r7, #28]
	} else {
		return (Pio *)((uintptr_t)IOPORT_BASE_ADDRESS +
		       (IOPORT_PIO_OFFSET * port));
	}
#else
	return (Pio *)((uintptr_t)IOPORT_BASE_ADDRESS +
   81dd4:	69fb      	ldr	r3, [r7, #28]
   81dd6:	f503 1300 	add.w	r3, r3, #2097152	; 0x200000
   81dda:	f203 7307 	addw	r3, r3, #1799	; 0x707
   81dde:	025b      	lsls	r3, r3, #9
}

__always_inline static void arch_ioport_set_pin_dir(ioport_pin_t pin,
		enum ioport_direction dir)
{
	Pio *base = arch_ioport_pin_to_base(pin);
   81de0:	61bb      	str	r3, [r7, #24]

	if (dir == IOPORT_DIR_OUTPUT) {
   81de2:	f897 302b 	ldrb.w	r3, [r7, #43]	; 0x2b
   81de6:	2b01      	cmp	r3, #1
   81de8:	d109      	bne.n	81dfe <ioport_set_pin_dir+0x4e>
   81dea:	6afb      	ldr	r3, [r7, #44]	; 0x2c
   81dec:	617b      	str	r3, [r7, #20]
	return arch_ioport_port_to_base(arch_ioport_pin_to_port_id(pin));
}

__always_inline static ioport_port_mask_t arch_ioport_pin_to_mask(ioport_pin_t pin)
{
	return 1U << (pin & 0x1F);
   81dee:	697b      	ldr	r3, [r7, #20]
   81df0:	f003 031f 	and.w	r3, r3, #31
   81df4:	2201      	movs	r2, #1
   81df6:	409a      	lsls	r2, r3
		enum ioport_direction dir)
{
	Pio *base = arch_ioport_pin_to_base(pin);

	if (dir == IOPORT_DIR_OUTPUT) {
		base->PIO_OER = arch_ioport_pin_to_mask(pin);
   81df8:	69bb      	ldr	r3, [r7, #24]
   81dfa:	611a      	str	r2, [r3, #16]
   81dfc:	e00c      	b.n	81e18 <ioport_set_pin_dir+0x68>
	} else if (dir == IOPORT_DIR_INPUT) {
   81dfe:	f897 302b 	ldrb.w	r3, [r7, #43]	; 0x2b
   81e02:	2b00      	cmp	r3, #0
   81e04:	d108      	bne.n	81e18 <ioport_set_pin_dir+0x68>
   81e06:	6afb      	ldr	r3, [r7, #44]	; 0x2c
   81e08:	613b      	str	r3, [r7, #16]
	return arch_ioport_port_to_base(arch_ioport_pin_to_port_id(pin));
}

__always_inline static ioport_port_mask_t arch_ioport_pin_to_mask(ioport_pin_t pin)
{
	return 1U << (pin & 0x1F);
   81e0a:	693b      	ldr	r3, [r7, #16]
   81e0c:	f003 031f 	and.w	r3, r3, #31
   81e10:	2201      	movs	r2, #1
   81e12:	409a      	lsls	r2, r3
	Pio *base = arch_ioport_pin_to_base(pin);

	if (dir == IOPORT_DIR_OUTPUT) {
		base->PIO_OER = arch_ioport_pin_to_mask(pin);
	} else if (dir == IOPORT_DIR_INPUT) {
		base->PIO_ODR = arch_ioport_pin_to_mask(pin);
   81e14:	69bb      	ldr	r3, [r7, #24]
   81e16:	615a      	str	r2, [r3, #20]
   81e18:	6afb      	ldr	r3, [r7, #44]	; 0x2c
   81e1a:	60fb      	str	r3, [r7, #12]
	return arch_ioport_port_to_base(arch_ioport_pin_to_port_id(pin));
}

__always_inline static ioport_port_mask_t arch_ioport_pin_to_mask(ioport_pin_t pin)
{
	return 1U << (pin & 0x1F);
   81e1c:	68fb      	ldr	r3, [r7, #12]
   81e1e:	f003 031f 	and.w	r3, r3, #31
   81e22:	2201      	movs	r2, #1
   81e24:	409a      	lsls	r2, r3
		base->PIO_OER = arch_ioport_pin_to_mask(pin);
	} else if (dir == IOPORT_DIR_INPUT) {
		base->PIO_ODR = arch_ioport_pin_to_mask(pin);
	}

	base->PIO_OWER = arch_ioport_pin_to_mask(pin);
   81e26:	69bb      	ldr	r3, [r7, #24]
   81e28:	f8c3 20a0 	str.w	r2, [r3, #160]	; 0xa0
	arch_ioport_set_pin_dir(pin, dir);
}
   81e2c:	3734      	adds	r7, #52	; 0x34
   81e2e:	46bd      	mov	sp, r7
   81e30:	f85d 7b04 	ldr.w	r7, [sp], #4
   81e34:	4770      	bx	lr
   81e36:	bf00      	nop

00081e38 <ioport_set_pin_level>:
 *
 * \param pin IOPORT pin to configure
 * \param level Logical value of the pin
 */
static inline void ioport_set_pin_level(ioport_pin_t pin, bool level)
{
   81e38:	b480      	push	{r7}
   81e3a:	b08b      	sub	sp, #44	; 0x2c
   81e3c:	af00      	add	r7, sp, #0
   81e3e:	6078      	str	r0, [r7, #4]
   81e40:	460b      	mov	r3, r1
   81e42:	70fb      	strb	r3, [r7, #3]
   81e44:	687b      	ldr	r3, [r7, #4]
   81e46:	627b      	str	r3, [r7, #36]	; 0x24
   81e48:	78fb      	ldrb	r3, [r7, #3]
   81e4a:	f887 3023 	strb.w	r3, [r7, #35]	; 0x23
   81e4e:	6a7b      	ldr	r3, [r7, #36]	; 0x24
   81e50:	61fb      	str	r3, [r7, #28]
   81e52:	69fb      	ldr	r3, [r7, #28]
   81e54:	61bb      	str	r3, [r7, #24]
typedef uint32_t ioport_port_t;
typedef uint32_t ioport_port_mask_t;

__always_inline static ioport_port_t arch_ioport_pin_to_port_id(ioport_pin_t pin)
{
	return pin >> 5;
   81e56:	69bb      	ldr	r3, [r7, #24]
   81e58:	095b      	lsrs	r3, r3, #5
   81e5a:	617b      	str	r3, [r7, #20]
	} else {
		return (Pio *)((uintptr_t)IOPORT_BASE_ADDRESS +
		       (IOPORT_PIO_OFFSET * port));
	}
#else
	return (Pio *)((uintptr_t)IOPORT_BASE_ADDRESS +
   81e5c:	697b      	ldr	r3, [r7, #20]
   81e5e:	f503 1300 	add.w	r3, r3, #2097152	; 0x200000
   81e62:	f203 7307 	addw	r3, r3, #1799	; 0x707
   81e66:	025b      	lsls	r3, r3, #9
}

__always_inline static void arch_ioport_set_pin_level(ioport_pin_t pin,
		bool level)
{
	Pio *base = arch_ioport_pin_to_base(pin);
   81e68:	613b      	str	r3, [r7, #16]

	if (level) {
   81e6a:	f897 3023 	ldrb.w	r3, [r7, #35]	; 0x23
   81e6e:	2b00      	cmp	r3, #0
   81e70:	d009      	beq.n	81e86 <ioport_set_pin_level+0x4e>
   81e72:	6a7b      	ldr	r3, [r7, #36]	; 0x24
   81e74:	60fb      	str	r3, [r7, #12]
	return arch_ioport_port_to_base(arch_ioport_pin_to_port_id(pin));
}

__always_inline static ioport_port_mask_t arch_ioport_pin_to_mask(ioport_pin_t pin)
{
	return 1U << (pin & 0x1F);
   81e76:	68fb      	ldr	r3, [r7, #12]
   81e78:	f003 031f 	and.w	r3, r3, #31
   81e7c:	2201      	movs	r2, #1
   81e7e:	409a      	lsls	r2, r3
		bool level)
{
	Pio *base = arch_ioport_pin_to_base(pin);

	if (level) {
		base->PIO_SODR = arch_ioport_pin_to_mask(pin);
   81e80:	693b      	ldr	r3, [r7, #16]
   81e82:	631a      	str	r2, [r3, #48]	; 0x30
   81e84:	e008      	b.n	81e98 <ioport_set_pin_level+0x60>
   81e86:	6a7b      	ldr	r3, [r7, #36]	; 0x24
   81e88:	60bb      	str	r3, [r7, #8]
	return arch_ioport_port_to_base(arch_ioport_pin_to_port_id(pin));
}

__always_inline static ioport_port_mask_t arch_ioport_pin_to_mask(ioport_pin_t pin)
{
	return 1U << (pin & 0x1F);
   81e8a:	68bb      	ldr	r3, [r7, #8]
   81e8c:	f003 031f 	and.w	r3, r3, #31
   81e90:	2201      	movs	r2, #1
   81e92:	409a      	lsls	r2, r3
	Pio *base = arch_ioport_pin_to_base(pin);

	if (level) {
		base->PIO_SODR = arch_ioport_pin_to_mask(pin);
	} else {
		base->PIO_CODR = arch_ioport_pin_to_mask(pin);
   81e94:	693b      	ldr	r3, [r7, #16]
   81e96:	635a      	str	r2, [r3, #52]	; 0x34
	arch_ioport_set_pin_level(pin, level);
}
   81e98:	372c      	adds	r7, #44	; 0x2c
   81e9a:	46bd      	mov	sp, r7
   81e9c:	f85d 7b04 	ldr.w	r7, [sp], #4
   81ea0:	4770      	bx	lr
   81ea2:	bf00      	nop

00081ea4 <ioport_get_pin_level>:
 *
 * \param pin IOPORT pin to read
 * \return Current logical value of the specified pin
 */
static inline bool ioport_get_pin_level(ioport_pin_t pin)
{
   81ea4:	b480      	push	{r7}
   81ea6:	b089      	sub	sp, #36	; 0x24
   81ea8:	af00      	add	r7, sp, #0
   81eaa:	6078      	str	r0, [r7, #4]
   81eac:	687b      	ldr	r3, [r7, #4]
   81eae:	61fb      	str	r3, [r7, #28]
   81eb0:	69fb      	ldr	r3, [r7, #28]
   81eb2:	61bb      	str	r3, [r7, #24]
   81eb4:	69bb      	ldr	r3, [r7, #24]
   81eb6:	617b      	str	r3, [r7, #20]
typedef uint32_t ioport_port_t;
typedef uint32_t ioport_port_mask_t;

__always_inline static ioport_port_t arch_ioport_pin_to_port_id(ioport_pin_t pin)
{
	return pin >> 5;
   81eb8:	697b      	ldr	r3, [r7, #20]
   81eba:	095b      	lsrs	r3, r3, #5
   81ebc:	613b      	str	r3, [r7, #16]
	} else {
		return (Pio *)((uintptr_t)IOPORT_BASE_ADDRESS +
		       (IOPORT_PIO_OFFSET * port));
	}
#else
	return (Pio *)((uintptr_t)IOPORT_BASE_ADDRESS +
   81ebe:	693b      	ldr	r3, [r7, #16]
   81ec0:	f503 1300 	add.w	r3, r3, #2097152	; 0x200000
   81ec4:	f203 7307 	addw	r3, r3, #1799	; 0x707
   81ec8:	025b      	lsls	r3, r3, #9
	base->PIO_CODR = mask & ~level;
}

__always_inline static bool arch_ioport_get_pin_level(ioport_pin_t pin)
{
	return arch_ioport_pin_to_base(pin)->PIO_PDSR & arch_ioport_pin_to_mask(pin);
   81eca:	6bda      	ldr	r2, [r3, #60]	; 0x3c
   81ecc:	69fb      	ldr	r3, [r7, #28]
   81ece:	60fb      	str	r3, [r7, #12]
	return arch_ioport_port_to_base(arch_ioport_pin_to_port_id(pin));
}

__always_inline static ioport_port_mask_t arch_ioport_pin_to_mask(ioport_pin_t pin)
{
	return 1U << (pin & 0x1F);
   81ed0:	68fb      	ldr	r3, [r7, #12]
   81ed2:	f003 031f 	and.w	r3, r3, #31
   81ed6:	2101      	movs	r1, #1
   81ed8:	fa01 f303 	lsl.w	r3, r1, r3
	base->PIO_CODR = mask & ~level;
}

__always_inline static bool arch_ioport_get_pin_level(ioport_pin_t pin)
{
	return arch_ioport_pin_to_base(pin)->PIO_PDSR & arch_ioport_pin_to_mask(pin);
   81edc:	4013      	ands	r3, r2
   81ede:	2b00      	cmp	r3, #0
   81ee0:	bf14      	ite	ne
   81ee2:	2301      	movne	r3, #1
   81ee4:	2300      	moveq	r3, #0
   81ee6:	b2db      	uxtb	r3, r3
	return arch_ioport_get_pin_level(pin);
}
   81ee8:	4618      	mov	r0, r3
   81eea:	3724      	adds	r7, #36	; 0x24
   81eec:	46bd      	mov	sp, r7
   81eee:	f85d 7b04 	ldr.w	r7, [sp], #4
   81ef2:	4770      	bx	lr

00081ef4 <ioport_toggle_pin_level>:
 * an output.
 *
 * \param pin IOPORT pin to toggle
 */
static inline void ioport_toggle_pin_level(ioport_pin_t pin)
{
   81ef4:	b480      	push	{r7}
   81ef6:	b08b      	sub	sp, #44	; 0x2c
   81ef8:	af00      	add	r7, sp, #0
   81efa:	6078      	str	r0, [r7, #4]
   81efc:	687b      	ldr	r3, [r7, #4]
   81efe:	627b      	str	r3, [r7, #36]	; 0x24
   81f00:	6a7b      	ldr	r3, [r7, #36]	; 0x24
   81f02:	623b      	str	r3, [r7, #32]
   81f04:	6a3b      	ldr	r3, [r7, #32]
   81f06:	61fb      	str	r3, [r7, #28]
typedef uint32_t ioport_port_t;
typedef uint32_t ioport_port_mask_t;

__always_inline static ioport_port_t arch_ioport_pin_to_port_id(ioport_pin_t pin)
{
	return pin >> 5;
   81f08:	69fb      	ldr	r3, [r7, #28]
   81f0a:	095b      	lsrs	r3, r3, #5
   81f0c:	61bb      	str	r3, [r7, #24]
	} else {
		return (Pio *)((uintptr_t)IOPORT_BASE_ADDRESS +
		       (IOPORT_PIO_OFFSET * port));
	}
#else
	return (Pio *)((uintptr_t)IOPORT_BASE_ADDRESS +
   81f0e:	69bb      	ldr	r3, [r7, #24]
   81f10:	f503 1300 	add.w	r3, r3, #2097152	; 0x200000
   81f14:	f203 7307 	addw	r3, r3, #1799	; 0x707
   81f18:	025b      	lsls	r3, r3, #9
	return arch_ioport_port_to_base(port)->PIO_PDSR & mask;
}

__always_inline static void arch_ioport_toggle_pin_level(ioport_pin_t pin)
{
	Pio *port = arch_ioport_pin_to_base(pin);
   81f1a:	617b      	str	r3, [r7, #20]
   81f1c:	6a7b      	ldr	r3, [r7, #36]	; 0x24
   81f1e:	613b      	str	r3, [r7, #16]
	return arch_ioport_port_to_base(arch_ioport_pin_to_port_id(pin));
}

__always_inline static ioport_port_mask_t arch_ioport_pin_to_mask(ioport_pin_t pin)
{
	return 1U << (pin & 0x1F);
   81f20:	693b      	ldr	r3, [r7, #16]
   81f22:	f003 031f 	and.w	r3, r3, #31
   81f26:	2201      	movs	r2, #1
   81f28:	fa02 f303 	lsl.w	r3, r2, r3
}

__always_inline static void arch_ioport_toggle_pin_level(ioport_pin_t pin)
{
	Pio *port = arch_ioport_pin_to_base(pin);
	ioport_port_mask_t mask = arch_ioport_pin_to_mask(pin);
   81f2c:	60fb      	str	r3, [r7, #12]

	if (port->PIO_PDSR & arch_ioport_pin_to_mask(pin)) {
   81f2e:	697b      	ldr	r3, [r7, #20]
   81f30:	6bda      	ldr	r2, [r3, #60]	; 0x3c
   81f32:	6a7b      	ldr	r3, [r7, #36]	; 0x24
   81f34:	60bb      	str	r3, [r7, #8]
	return arch_ioport_port_to_base(arch_ioport_pin_to_port_id(pin));
}

__always_inline static ioport_port_mask_t arch_ioport_pin_to_mask(ioport_pin_t pin)
{
	return 1U << (pin & 0x1F);
   81f36:	68bb      	ldr	r3, [r7, #8]
   81f38:	f003 031f 	and.w	r3, r3, #31
   81f3c:	2101      	movs	r1, #1
   81f3e:	fa01 f303 	lsl.w	r3, r1, r3
__always_inline static void arch_ioport_toggle_pin_level(ioport_pin_t pin)
{
	Pio *port = arch_ioport_pin_to_base(pin);
	ioport_port_mask_t mask = arch_ioport_pin_to_mask(pin);

	if (port->PIO_PDSR & arch_ioport_pin_to_mask(pin)) {
   81f42:	4013      	ands	r3, r2
   81f44:	2b00      	cmp	r3, #0
   81f46:	d003      	beq.n	81f50 <ioport_toggle_pin_level+0x5c>
		port->PIO_CODR = mask;
   81f48:	697b      	ldr	r3, [r7, #20]
   81f4a:	68fa      	ldr	r2, [r7, #12]
   81f4c:	635a      	str	r2, [r3, #52]	; 0x34
   81f4e:	e002      	b.n	81f56 <ioport_toggle_pin_level+0x62>
	} else {
		port->PIO_SODR = mask;
   81f50:	697b      	ldr	r3, [r7, #20]
   81f52:	68fa      	ldr	r2, [r7, #12]
   81f54:	631a      	str	r2, [r3, #48]	; 0x30
	arch_ioport_toggle_pin_level(pin);
}
   81f56:	372c      	adds	r7, #44	; 0x2c
   81f58:	46bd      	mov	sp, r7
   81f5a:	f85d 7b04 	ldr.w	r7, [sp], #4
   81f5e:	4770      	bx	lr

00081f60 <adc_setup>:
#include <test_board.h>


//----------------------------------------------------
// --------- Funkcije, ki se ticejo ADC --------------
void adc_setup(void){
   81f60:	b580      	push	{r7, lr}
   81f62:	af00      	add	r7, sp, #0
	//inicializira uro za ADC
	sysclk_enable_peripheral_clock(ID_ADC);
   81f64:	2025      	movs	r0, #37	; 0x25
   81f66:	f7ff fe9d 	bl	81ca4 <sysclk_enable_peripheral_clock>

	//inicializira adc
	adc_init(ADC, SystemCoreClock, ADC_clock, ADC_STARTUP_TIME_4);
   81f6a:	4b0f      	ldr	r3, [pc, #60]	; (81fa8 <adc_setup+0x48>)
   81f6c:	681b      	ldr	r3, [r3, #0]
   81f6e:	480f      	ldr	r0, [pc, #60]	; (81fac <adc_setup+0x4c>)
   81f70:	4619      	mov	r1, r3
   81f72:	4a0f      	ldr	r2, [pc, #60]	; (81fb0 <adc_setup+0x50>)
   81f74:	f44f 2380 	mov.w	r3, #262144	; 0x40000
   81f78:	f001 f846 	bl	83008 <adc_init>

	adc_configure_timing(ADC, 0, ADC_SETTLING_TIME_3, 1);
   81f7c:	480b      	ldr	r0, [pc, #44]	; (81fac <adc_setup+0x4c>)
   81f7e:	2100      	movs	r1, #0
   81f80:	f44f 1240 	mov.w	r2, #3145728	; 0x300000
   81f84:	2301      	movs	r3, #1
   81f86:	f001 f8a1 	bl	830cc <adc_configure_timing>

	adc_set_resolution(ADC, ADC_12_BITS );
   81f8a:	4808      	ldr	r0, [pc, #32]	; (81fac <adc_setup+0x4c>)
   81f8c:	2100      	movs	r1, #0
   81f8e:	f001 f86d 	bl	8306c <adc_set_resolution>

	adc_configure_trigger(ADC, ADC_TRIG_SW, ADC_MR_FREERUN_OFF);
   81f92:	4806      	ldr	r0, [pc, #24]	; (81fac <adc_setup+0x4c>)
   81f94:	2100      	movs	r1, #0
   81f96:	2200      	movs	r2, #0
   81f98:	f001 f880 	bl	8309c <adc_configure_trigger>

	adc_enable_channel(ADC, A0);
   81f9c:	4803      	ldr	r0, [pc, #12]	; (81fac <adc_setup+0x4c>)
   81f9e:	2107      	movs	r1, #7
   81fa0:	f001 f8c0 	bl	83124 <adc_enable_channel>
}
   81fa4:	bd80      	pop	{r7, pc}
   81fa6:	bf00      	nop
   81fa8:	200702e8 	.word	0x200702e8
   81fac:	400c0000 	.word	0x400c0000
   81fb0:	0061a800 	.word	0x0061a800

00081fb4 <adc_read>:

uint32_t adc_read(void){
   81fb4:	b580      	push	{r7, lr}
   81fb6:	b082      	sub	sp, #8
   81fb8:	af00      	add	r7, sp, #0
	adc_start(ADC);
   81fba:	480b      	ldr	r0, [pc, #44]	; (81fe8 <adc_read+0x34>)
   81fbc:	f001 f8a6 	bl	8310c <adc_start>

	uint32_t status = 0;
   81fc0:	2300      	movs	r3, #0
   81fc2:	607b      	str	r3, [r7, #4]

	while(status == 0){
   81fc4:	e003      	b.n	81fce <adc_read+0x1a>
		status = adc_get_status(ADC);
   81fc6:	4808      	ldr	r0, [pc, #32]	; (81fe8 <adc_read+0x34>)
   81fc8:	f001 f8d6 	bl	83178 <adc_get_status>
   81fcc:	6078      	str	r0, [r7, #4]
uint32_t adc_read(void){
	adc_start(ADC);

	uint32_t status = 0;

	while(status == 0){
   81fce:	687b      	ldr	r3, [r7, #4]
   81fd0:	2b00      	cmp	r3, #0
   81fd2:	d0f8      	beq.n	81fc6 <adc_read+0x12>
		status = adc_get_status(ADC);
	}

	return adc_get_channel_value(ADC, A0);
   81fd4:	4804      	ldr	r0, [pc, #16]	; (81fe8 <adc_read+0x34>)
   81fd6:	2107      	movs	r1, #7
   81fd8:	f001 f8b6 	bl	83148 <adc_get_channel_value>
   81fdc:	4603      	mov	r3, r0
}
   81fde:	4618      	mov	r0, r3
   81fe0:	3708      	adds	r7, #8
   81fe2:	46bd      	mov	sp, r7
   81fe4:	bd80      	pop	{r7, pc}
   81fe6:	bf00      	nop
   81fe8:	400c0000 	.word	0x400c0000

00081fec <dac_setup>:
//----------------------------------------------------


//----------------------------------------------------
// --------- Funkcije, ki se ticejo DAC --------------
void dac_setup(void){
   81fec:	b580      	push	{r7, lr}
   81fee:	af00      	add	r7, sp, #0
	sysclk_enable_peripheral_clock(ID_DACC);
   81ff0:	2026      	movs	r0, #38	; 0x26
   81ff2:	f7ff fe57 	bl	81ca4 <sysclk_enable_peripheral_clock>
	dacc_reset(DACC);	//za zacetek resetiramo dacc, ce je slucajno se kaj notri ostalo
   81ff6:	480b      	ldr	r0, [pc, #44]	; (82024 <dac_setup+0x38>)
   81ff8:	f000 ff5a 	bl	82eb0 <dacc_reset>
	dacc_set_transfer_mode(DACC, DACC_MR_WORD_HALF);	//nastavimo, da je nas podatek le na 16 bitih od 32 bitov registra
   81ffc:	4809      	ldr	r0, [pc, #36]	; (82024 <dac_setup+0x38>)
   81ffe:	2100      	movs	r1, #0
   82000:	f000 ff62 	bl	82ec8 <dacc_set_transfer_mode>
	dacc_set_timing(DACC, 0x08, 0, 0x10);
   82004:	4807      	ldr	r0, [pc, #28]	; (82024 <dac_setup+0x38>)
   82006:	2108      	movs	r1, #8
   82008:	2200      	movs	r2, #0
   8200a:	2310      	movs	r3, #16
   8200c:	f000 ffb4 	bl	82f78 <dacc_set_timing>
	dacc_set_channel_selection(DACC, 1);
   82010:	4804      	ldr	r0, [pc, #16]	; (82024 <dac_setup+0x38>)
   82012:	2101      	movs	r1, #1
   82014:	f000 ff8e 	bl	82f34 <dacc_set_channel_selection>
	dacc_enable_channel(DACC, 1);	//ze tudi pravilno postavi kanale pinov
   82018:	4802      	ldr	r0, [pc, #8]	; (82024 <dac_setup+0x38>)
   8201a:	2101      	movs	r1, #1
   8201c:	f000 ffde 	bl	82fdc <dacc_enable_channel>
}
   82020:	bd80      	pop	{r7, pc}
   82022:	bf00      	nop
   82024:	400c8000 	.word	0x400c8000

00082028 <dac_write>:

void dac_write(uint16_t dac_val){
   82028:	b580      	push	{r7, lr}
   8202a:	b082      	sub	sp, #8
   8202c:	af00      	add	r7, sp, #0
   8202e:	4603      	mov	r3, r0
   82030:	80fb      	strh	r3, [r7, #6]
	/* predno vpisemo novo vrednost, moramo pocakati,
	 * ali je dacc prost za nov vnos (bit na 1)
	 * zato pogledamo 9. bit registra DACC_ISR
	 * */
	while( (dacc_get_interrupt_status(DACC) & DACC_ISR_TXRDY) == 0 );
   82032:	bf00      	nop
   82034:	4807      	ldr	r0, [pc, #28]	; (82054 <dac_write+0x2c>)
   82036:	f000 ff63 	bl	82f00 <dacc_get_interrupt_status>
   8203a:	4603      	mov	r3, r0
   8203c:	f003 0301 	and.w	r3, r3, #1
   82040:	2b00      	cmp	r3, #0
   82042:	d0f7      	beq.n	82034 <dac_write+0xc>

	//vpisemo novo vrednost
	dacc_write_conversion_data(DACC, dac_val);
   82044:	88fb      	ldrh	r3, [r7, #6]
   82046:	4803      	ldr	r0, [pc, #12]	; (82054 <dac_write+0x2c>)
   82048:	4619      	mov	r1, r3
   8204a:	f000 ff65 	bl	82f18 <dacc_write_conversion_data>
}
   8204e:	3708      	adds	r7, #8
   82050:	46bd      	mov	sp, r7
   82052:	bd80      	pop	{r7, pc}
   82054:	400c8000 	.word	0x400c8000

00082058 <get_button_press>:
//----------------------------------------------------
//----------------------------------------------------

//----------------------------------------------------
//------------- Funkcije, ki se ticejo tipk ----------
int get_button_press(void){
   82058:	b580      	push	{r7, lr}
   8205a:	b082      	sub	sp, #8
   8205c:	af00      	add	r7, sp, #0
	int out;
	int state = 0x0;
   8205e:	2300      	movs	r3, #0
   82060:	607b      	str	r3, [r7, #4]
	static int state_old = 0xFFFFFFFF;

	state = get_button_state();
   82062:	f000 f811 	bl	82088 <get_button_state>
   82066:	6078      	str	r0, [r7, #4]
	out = (state_old ^ state) & state_old;		//ce se je stanje spremenilo, zaznamo s XOR, pri cemer mora biti stanje drugacno kot prej
   82068:	687b      	ldr	r3, [r7, #4]
   8206a:	43da      	mvns	r2, r3
   8206c:	4b05      	ldr	r3, [pc, #20]	; (82084 <get_button_press+0x2c>)
   8206e:	681b      	ldr	r3, [r3, #0]
   82070:	4013      	ands	r3, r2
   82072:	603b      	str	r3, [r7, #0]
	state_old = state;
   82074:	4a03      	ldr	r2, [pc, #12]	; (82084 <get_button_press+0x2c>)
   82076:	687b      	ldr	r3, [r7, #4]
   82078:	6013      	str	r3, [r2, #0]

	return out;
   8207a:	683b      	ldr	r3, [r7, #0]
}
   8207c:	4618      	mov	r0, r3
   8207e:	3708      	adds	r7, #8
   82080:	46bd      	mov	sp, r7
   82082:	bd80      	pop	{r7, pc}
   82084:	200702e4 	.word	0x200702e4

00082088 <get_button_state>:

int get_button_state(void){
   82088:	b580      	push	{r7, lr}
   8208a:	b082      	sub	sp, #8
   8208c:	af00      	add	r7, sp, #0
	int state = 0xFFFFFFFF;
   8208e:	f04f 33ff 	mov.w	r3, #4294967295
   82092:	607b      	str	r3, [r7, #4]

	if(ioport_get_pin_level(T4) == 0){
   82094:	2057      	movs	r0, #87	; 0x57
   82096:	f7ff ff05 	bl	81ea4 <ioport_get_pin_level>
   8209a:	4603      	mov	r3, r0
   8209c:	f083 0301 	eor.w	r3, r3, #1
   820a0:	b2db      	uxtb	r3, r3
   820a2:	2b00      	cmp	r3, #0
   820a4:	d003      	beq.n	820ae <get_button_state+0x26>
		state &= 0xFFFFFFF7;
   820a6:	687b      	ldr	r3, [r7, #4]
   820a8:	f023 0308 	bic.w	r3, r3, #8
   820ac:	607b      	str	r3, [r7, #4]
	}
	if(ioport_get_pin_level(T3) == 0){
   820ae:	2058      	movs	r0, #88	; 0x58
   820b0:	f7ff fef8 	bl	81ea4 <ioport_get_pin_level>
   820b4:	4603      	mov	r3, r0
   820b6:	f083 0301 	eor.w	r3, r3, #1
   820ba:	b2db      	uxtb	r3, r3
   820bc:	2b00      	cmp	r3, #0
   820be:	d003      	beq.n	820c8 <get_button_state+0x40>
		state &= 0xFFFFFFFB;
   820c0:	687b      	ldr	r3, [r7, #4]
   820c2:	f023 0304 	bic.w	r3, r3, #4
   820c6:	607b      	str	r3, [r7, #4]
	}
	if(ioport_get_pin_level(T2) == 0){
   820c8:	2059      	movs	r0, #89	; 0x59
   820ca:	f7ff feeb 	bl	81ea4 <ioport_get_pin_level>
   820ce:	4603      	mov	r3, r0
   820d0:	f083 0301 	eor.w	r3, r3, #1
   820d4:	b2db      	uxtb	r3, r3
   820d6:	2b00      	cmp	r3, #0
   820d8:	d003      	beq.n	820e2 <get_button_state+0x5a>
		state &= 0xFFFFFFFD;
   820da:	687b      	ldr	r3, [r7, #4]
   820dc:	f023 0302 	bic.w	r3, r3, #2
   820e0:	607b      	str	r3, [r7, #4]
	}
	if(ioport_get_pin_level(T1) == 0){
   820e2:	205a      	movs	r0, #90	; 0x5a
   820e4:	f7ff fede 	bl	81ea4 <ioport_get_pin_level>
   820e8:	4603      	mov	r3, r0
   820ea:	f083 0301 	eor.w	r3, r3, #1
   820ee:	b2db      	uxtb	r3, r3
   820f0:	2b00      	cmp	r3, #0
   820f2:	d003      	beq.n	820fc <get_button_state+0x74>
		state &= 0xFFFFFFFE;
   820f4:	687b      	ldr	r3, [r7, #4]
   820f6:	f023 0301 	bic.w	r3, r3, #1
   820fa:	607b      	str	r3, [r7, #4]
	/*Druga opcija - postavljamo prebrane vrednosti na prave bite
		state = 0xFFFFFFF0;
		state = state | (ioport_get_level(T1) << 0) | (ioport_get_level(T1) << 1) | (ioport_get_level(T1) << 2) | (ioport_get_level(T1) << 3);

	*/
	return state;
   820fc:	687b      	ldr	r3, [r7, #4]
}
   820fe:	4618      	mov	r0, r3
   82100:	3708      	adds	r7, #8
   82102:	46bd      	mov	sp, r7
   82104:	bd80      	pop	{r7, pc}
   82106:	bf00      	nop

00082108 <init_buttons>:


void init_buttons(void){
   82108:	b580      	push	{r7, lr}
   8210a:	af00      	add	r7, sp, #0
	ioport_init();
   8210c:	f7ff fdd4 	bl	81cb8 <ioport_init>

	ioport_set_pin_dir(T1, IOPORT_DIR_INPUT);
   82110:	205a      	movs	r0, #90	; 0x5a
   82112:	2100      	movs	r1, #0
   82114:	f7ff fe4c 	bl	81db0 <ioport_set_pin_dir>
	ioport_set_pin_dir(T2, IOPORT_DIR_INPUT);
   82118:	2059      	movs	r0, #89	; 0x59
   8211a:	2100      	movs	r1, #0
   8211c:	f7ff fe48 	bl	81db0 <ioport_set_pin_dir>
	ioport_set_pin_dir(T3, IOPORT_DIR_INPUT);
   82120:	2058      	movs	r0, #88	; 0x58
   82122:	2100      	movs	r1, #0
   82124:	f7ff fe44 	bl	81db0 <ioport_set_pin_dir>
	ioport_set_pin_dir(T4, IOPORT_DIR_INPUT);
   82128:	2057      	movs	r0, #87	; 0x57
   8212a:	2100      	movs	r1, #0
   8212c:	f7ff fe40 	bl	81db0 <ioport_set_pin_dir>

	ioport_set_pin_mode(T1, IOPORT_MODE_PULLUP | IOPORT_MODE_DEBOUNCE);
   82130:	205a      	movs	r0, #90	; 0x5a
   82132:	2188      	movs	r1, #136	; 0x88
   82134:	f7ff fdd0 	bl	81cd8 <ioport_set_pin_mode>
	ioport_set_pin_mode(T2, IOPORT_MODE_PULLUP | IOPORT_MODE_DEBOUNCE);
   82138:	2059      	movs	r0, #89	; 0x59
   8213a:	2188      	movs	r1, #136	; 0x88
   8213c:	f7ff fdcc 	bl	81cd8 <ioport_set_pin_mode>
	ioport_set_pin_mode(T3, IOPORT_MODE_PULLUP | IOPORT_MODE_DEBOUNCE);
   82140:	2058      	movs	r0, #88	; 0x58
   82142:	2188      	movs	r1, #136	; 0x88
   82144:	f7ff fdc8 	bl	81cd8 <ioport_set_pin_mode>
	ioport_set_pin_mode(T4, IOPORT_MODE_PULLUP | IOPORT_MODE_DEBOUNCE);
   82148:	2057      	movs	r0, #87	; 0x57
   8214a:	2188      	movs	r1, #136	; 0x88
   8214c:	f7ff fdc4 	bl	81cd8 <ioport_set_pin_mode>
}
   82150:	bd80      	pop	{r7, pc}
   82152:	bf00      	nop

00082154 <init_leds>:
//----------------------------------------------------


//----------------------------------------------------
// --------- Funkcije, ki se ticejo LED --------------
void init_leds(void){
   82154:	b580      	push	{r7, lr}
   82156:	af00      	add	r7, sp, #0
	ioport_init();
   82158:	f7ff fdae 	bl	81cb8 <ioport_init>

	ioport_set_pin_dir(D1, IOPORT_DIR_OUTPUT);
   8215c:	2056      	movs	r0, #86	; 0x56
   8215e:	2101      	movs	r1, #1
   82160:	f7ff fe26 	bl	81db0 <ioport_set_pin_dir>
	ioport_set_pin_dir(D2, IOPORT_DIR_OUTPUT);
   82164:	2055      	movs	r0, #85	; 0x55
   82166:	2101      	movs	r1, #1
   82168:	f7ff fe22 	bl	81db0 <ioport_set_pin_dir>
	ioport_set_pin_dir(D3, IOPORT_DIR_OUTPUT);
   8216c:	205d      	movs	r0, #93	; 0x5d
   8216e:	2101      	movs	r1, #1
   82170:	f7ff fe1e 	bl	81db0 <ioport_set_pin_dir>
	ioport_set_pin_dir(D4, IOPORT_DIR_OUTPUT);
   82174:	2067      	movs	r0, #103	; 0x67
   82176:	2101      	movs	r1, #1
   82178:	f7ff fe1a 	bl	81db0 <ioport_set_pin_dir>
}
   8217c:	bd80      	pop	{r7, pc}
   8217e:	bf00      	nop

00082180 <led_set_state>:


void led_set_state(int state){
   82180:	b580      	push	{r7, lr}
   82182:	b082      	sub	sp, #8
   82184:	af00      	add	r7, sp, #0
   82186:	6078      	str	r0, [r7, #4]
	ioport_set_pin_level(D1, !(0x00000001 & state));	//enako tudi 1<<0
   82188:	687b      	ldr	r3, [r7, #4]
   8218a:	f003 0301 	and.w	r3, r3, #1
   8218e:	2b00      	cmp	r3, #0
   82190:	bf0c      	ite	eq
   82192:	2301      	moveq	r3, #1
   82194:	2300      	movne	r3, #0
   82196:	b2db      	uxtb	r3, r3
   82198:	2056      	movs	r0, #86	; 0x56
   8219a:	4619      	mov	r1, r3
   8219c:	f7ff fe4c 	bl	81e38 <ioport_set_pin_level>
	ioport_set_pin_level(D2, !(0x00000002 & state));	//enako tudi 1<<1
   821a0:	687b      	ldr	r3, [r7, #4]
   821a2:	f003 0302 	and.w	r3, r3, #2
   821a6:	2b00      	cmp	r3, #0
   821a8:	bf0c      	ite	eq
   821aa:	2301      	moveq	r3, #1
   821ac:	2300      	movne	r3, #0
   821ae:	b2db      	uxtb	r3, r3
   821b0:	2055      	movs	r0, #85	; 0x55
   821b2:	4619      	mov	r1, r3
   821b4:	f7ff fe40 	bl	81e38 <ioport_set_pin_level>
	ioport_set_pin_level(D3, !(0x00000004 & state));	//enako tudi 1<<2
   821b8:	687b      	ldr	r3, [r7, #4]
   821ba:	f003 0304 	and.w	r3, r3, #4
   821be:	2b00      	cmp	r3, #0
   821c0:	bf0c      	ite	eq
   821c2:	2301      	moveq	r3, #1
   821c4:	2300      	movne	r3, #0
   821c6:	b2db      	uxtb	r3, r3
   821c8:	205d      	movs	r0, #93	; 0x5d
   821ca:	4619      	mov	r1, r3
   821cc:	f7ff fe34 	bl	81e38 <ioport_set_pin_level>
//ker je posebej lucka	ioport_set_pin_level(D4, !(0x00000008 & state));	//enako tudi 1<<3
}
   821d0:	3708      	adds	r7, #8
   821d2:	46bd      	mov	sp, r7
   821d4:	bd80      	pop	{r7, pc}
   821d6:	bf00      	nop

000821d8 <led_toggle_state>:

void led_toggle_state(int state){
   821d8:	b580      	push	{r7, lr}
   821da:	b082      	sub	sp, #8
   821dc:	af00      	add	r7, sp, #0
   821de:	6078      	str	r0, [r7, #4]
	if( (state & (1<<0) ) !=0 ){
   821e0:	687b      	ldr	r3, [r7, #4]
   821e2:	f003 0301 	and.w	r3, r3, #1
   821e6:	2b00      	cmp	r3, #0
   821e8:	d002      	beq.n	821f0 <led_toggle_state+0x18>
		ioport_toggle_pin_level(D1);
   821ea:	2056      	movs	r0, #86	; 0x56
   821ec:	f7ff fe82 	bl	81ef4 <ioport_toggle_pin_level>
	}
	if( (state & (1<<1) ) !=0 ){
   821f0:	687b      	ldr	r3, [r7, #4]
   821f2:	f003 0302 	and.w	r3, r3, #2
   821f6:	2b00      	cmp	r3, #0
   821f8:	d002      	beq.n	82200 <led_toggle_state+0x28>
		ioport_toggle_pin_level(D2);
   821fa:	2055      	movs	r0, #85	; 0x55
   821fc:	f7ff fe7a 	bl	81ef4 <ioport_toggle_pin_level>
	}
	if( (state & (1<<2) ) !=0 ){
   82200:	687b      	ldr	r3, [r7, #4]
   82202:	f003 0304 	and.w	r3, r3, #4
   82206:	2b00      	cmp	r3, #0
   82208:	d002      	beq.n	82210 <led_toggle_state+0x38>
		ioport_toggle_pin_level(D3);
   8220a:	205d      	movs	r0, #93	; 0x5d
   8220c:	f7ff fe72 	bl	81ef4 <ioport_toggle_pin_level>
	}
	if( (state & (1<<3) ) !=0 ){
   82210:	687b      	ldr	r3, [r7, #4]
   82212:	f003 0308 	and.w	r3, r3, #8
   82216:	2b00      	cmp	r3, #0
   82218:	d002      	beq.n	82220 <led_toggle_state+0x48>
		ioport_toggle_pin_level(D4);
   8221a:	2067      	movs	r0, #103	; 0x67
   8221c:	f7ff fe6a 	bl	81ef4 <ioport_toggle_pin_level>
	}
}
   82220:	3708      	adds	r7, #8
   82222:	46bd      	mov	sp, r7
   82224:	bd80      	pop	{r7, pc}
   82226:	bf00      	nop

00082228 <uart_setup>:



//----------------------------------------------------
// --------- Funkcije, ki se ticejo UART --------------
void uart_setup(void){
   82228:	b580      	push	{r7, lr}
   8222a:	b084      	sub	sp, #16
   8222c:	af00      	add	r7, sp, #0
	/*------------ PIOA ----------*/
	//vklopimo uro (napajanje) za periferno enoto na POIA, kjer sta Rx in Tx liniji
	sysclk_enable_peripheral_clock(ID_PIOA);
   8222e:	200b      	movs	r0, #11
   82230:	f7ff fd38 	bl	81ca4 <sysclk_enable_peripheral_clock>
	//nastavimo funkcijo preiferne enote na PA8 - Rx in PA9 - Tx (s set_peripheral odklopimo pinov od pioa porta, zato moramo nataviti le NVIC prekinitve od uart)
	pio_set_peripheral(PIOA, PIO_PERIPH_A, PIO_PA8A_URXD | PIO_PA9A_UTXD);
   82234:	4814      	ldr	r0, [pc, #80]	; (82288 <uart_setup+0x60>)
   82236:	f04f 6100 	mov.w	r1, #134217728	; 0x8000000
   8223a:	f44f 7240 	mov.w	r2, #768	; 0x300
   8223e:	f000 fdf7 	bl	82e30 <pio_set_peripheral>
	//za UART komunikacijo, ne sme biti linija nikoli v zraku -> nastavimo pull-up upre na teh pinih
	pio_pull_up(PIOA, PIO_PA8A_URXD | PIO_PA9A_UTXD, PIO_PULLUP);
